:1000000000000120B5020000DD020000DF02000058
:10001000E1020000E3020000E50200000000000031
:10002000000000000000000000000000E7020000E7
:10003000E902000000000000EB020000ED020000F9
:10004000E5230000EF020000C52C0000EF020000D5
:10005000EF020000EF0200007D270000EF02000029
:10006000EF020000EF020000EF020000EF020000CC
:10007000EF020000EF020000EF020000EF020000BC
:10008000EF02000079110000EF020000EF02000013
:1000900019120000EF020000EF020000EF02000062
:1000A000EF020000EF020000EF020000EF0200008C
:1000B00055310000EF0200000000000000000000C9
:1000C000EF02000011320000CD320000EF0200000C
:1000D000EF020000EF020000EF020000000000004D
:1000E0000000000000000000000000000000000010
:1000F0000000000000000000000000000000000000
:1001000000000000000000000000000000000000EF
:1001100000000000000000000000000000000000DF
:1001200000000000000000000000000000000000CF
:1001300000000000000000000000000000000000BF
:1001400000000000000000000000000000000000AF
:10015000000000000000000000000000000000009F
:10016000000000000000000000000000000000008F
:10017000000000000000000000000000000000007F
:10018000000000000000000000000000000000006F
:10019000000000000000000000000000000000005F
:1001A000000000000000000000000000000000004F
:1001B000000000000000000000000000000000003F
:1001C000000000000000000000000000000000002F
:1001D000000000000000000000000000000000001F
:1001E000000000000000000000000000000000000F
:1001F00000000000000000000000000000000000FF
:1002000010B5054C237833B9044B13B10448AFF350
:1002100000800123237010BD580200200000000060
:10022000C855000008B5034B1BB103490348AFF3A1
:10023000008008BD000000005C020020C8550000DE
:10024000154B002B08BF134B9D46A3F5803A0021A8
:100250008B460F461348144A121A04F00CFE0F4B3B
:10026000002B00D098470E4B002B00D09847002061
:10027000002104000D000D48002802D00C48AFF307
:10028000008004F0A9FD2000290004F071FB04F0B7
:100290008FFD00BF000008000000012000000000EA
:1002A0000000000058020020580C00200000000050
:1002B000000000000649074A074B9B1A03DD043B78
:1002C000C858D050FBDC04F093FBFFF7B9FF0000E7
:1002D000385600000000002058020020FEE7FEE72C
:1002E000FEE7FEE7FEE7FEE7FEE7FEE7FEE7FEE7E6
:1002F000F0B595B0002415460F4608461E4601F09D
:10030000A5FE384623460895082205A91A9D099698
:100310000D950A948DF82C400C9401F0F1FE9DF897
:1003200014308DF81140DDE9061003F00302012AB4
:10033000CDE9020127D0022A04D0384601F08AFE16
:1003400015B0F0BDBDF81650C3F3C2038DF81030E0
:10035000AD090826082D2C4628BF0824334622461E
:100360000EA9384601F0CCFE2D1B214608AB02AA8F
:100370000EA8264400F01CFC002DEBD1384601F0FD
:1003800069FE15B0F0BDBDF81460059DC6F3831677
:10039000C3F3C204B2000EA9384608238DF81040FA
:1003A000C5F3952501F0ACFE08AB324628460EA9F0
:1003B000009302AB00F056FB384601F04BFE15B03F
:1003C000F0BD00BF014B01221A707047B802002037
:1003D000704700BF00B583B0044B0093044A40232C
:1003E000FFF786FF03B05DF804FB00BFF5030000D4
:1003F0007802002038B50E480E4D03780E4CEB5CA9
:100400000025D2B2257053B90C3003F0D3F958B996
:100410000A4B1B7813B12378002BFCD038BD043075
:1004200003F00CFC0028F3D000F064FEF0E700BFFE
:1004300000000020540C0020B802002074020020AC
:1004400070B51348134A0378D35C88B0DBB90C301D
:1004500003F04AF9104D0FCD6C460FC495E80F001C
:1004600008AD062645F8206D84E80F0029460022D5
:10047000074801F025FF08B100F03CFE074B0022C1
:100480001A7008B070BD043003F070FBE2E700BFE3
:1004900000000020540C0020CC5100007402002009
:1004A00070B50D4D0FCD88B06C460FC495E80F00A8
:1004B00008AD062645F8206D84E80F002946074A56
:1004C000074801F0FDFE08B100F014FE054B0122C3
:1004D0001A7008B070BD00BFCC510000C503000009
:1004E000000000207402002008B5FFF7D9FF0421A6
:1004F000034800F083FA034B01225A7108BD00BF84
:100500000C56000014000020F0B5324C85B004F504
:10051000836001F067F904F2144001F063F9D4E953
:10052000013703EA0702D01C04EB800114F8200015
:1005300010F0040044D003F1020C0E7806F003061C
:10054000012E654635D0022E02F1030621D004EBC0
:1005500086010028F1D104EB82020133D2680192B6
:100560003B4004EB830302F00302012ADE6829D03A
:10057000022A23D1BDF806309B090333360C05EB64
:100580009305154801F03AF900B16560304605B0B1
:10059000F0BD4B880CEB931307EA0302D11C03F167
:1005A000020C14F82100654604EB810100F0040000
:1005B000CFE70B88C3F383136344EDE70026E0E73E
:1005C0009D1CC8E7BDF80430C3F38313360C1D44EB
:1005D000D7E700BF8C030020A00700200B4B0C487E
:1005E00010B50022FF21C3F818249960C3E9002246
:1005F000C3F8142483F8202401F0E4FC044610B965
:10060000044801F0B1FD204610BD00BF8C0300205E
:100610001C5600000C52000021B9124B03EBC00025
:1006200000687047104A0F49521AD20815D030B4EA
:100630000E4D2B88834212D0002303E035F823406F
:10064000844205D001339A42F8D1002030BC704773
:1006500001EBC300006830BC704710467047084685
:10066000F8E700BFCC5500000C56000058020020EF
:10067000094B013903EBC00003290BD8DFE801F077
:1006800002080604022070474079704700797047DD
:100690000420704700207047CC5500002DE9F84336
:1006A000DFF8D890074600208846D9F8084001F0C6
:1006B00065F8D9E90132D9F80060134401339B1B76
:1006C000012B56D809F21C450121284601F072F889
:1006D000FFF71AFF0146284601F06CF8D9E901320C
:1006E000D9F80010134401335B1A012BECD90A40EE
:1006F000033205230231002049F82230C9F80010E6
:1007000001F044F800211C4801F04AF880F3100081
:10071000731C234009EB830300043440033440EA94
:100720001740D86019F8243067F3C50309F824305E
:1007300039F824306FF3891329F8243059F824202C
:1007400068F39F221346012161F301036FF38203D3
:1007500049F8242009F8243099F820341BB906E020
:1007600000F00EF818B1D9E900329A42F8D1BDE88C
:10077000F8833146BBE700BFA80700208C030020A8
:100780002DE9F047914C002384B0C4F81834BFF32E
:100790004F8FD4E9015605EA0602D31C04EB83010E
:1007A00014F82330580719D527680B7803F0030392
:1007B000012B43D0022B03D14B88023505EB931557
:1007C00006EA0502D4F81804D31C04EB830128B907
:1007D000AF4239D914F823305B07E6D404EB820228
:1007E0006B1CD2680192334004EB830302F00302D6
:1007F000DB680293022A05F1020700F08980012AD2
:1008000026D0D4F810543DB12B6828469B689847F1
:10081000EB681D68002DF7D16D486E4B6E49C01A0C
:10082000C008000440F00200FFF738FFD4E90030B0
:10083000C01A18BF012004B0BDE8F0870B8802354C
:10084000C3F383131D44BBE7676004B0BDE8F087C2
:10085000BDF804206148C2F38313062B28BF06238A
:1008600063F3891202339900ADF8042001F0ACFB68
:1008700080460028C5D001F0E9FB0023082201A929
:10088000404601F009FCBDF8043013F4707F00F01D
:100890009B806FF0010AAAEB050A082506EA07010A
:1008A00003312B46042204EB8101404601F0F4FBA6
:1008B000BDF8043007F101090AEB0902C3F3831301
:1008C00093424F4605F10405E8D8D4F81834002BBC
:1008D00064D1D4F8105465B1EB685A792846414682
:1008E000002A57D02B681B689847EB681D68002DBD
:1008F000F2D1404601F0AEFB002000F03FFFD4F8FB
:1009000018340BB9C4F80490002000F03FFF8DE7C5
:10091000BDF8063031484FEA93194D46502D28BF97
:10092000502565F38F1305F10801ADF8063001F08D
:100930004BFB804600283FF464AF26EA070A0AF121
:10094000010A01F083FB4FEA8A0A0023082201A969
:10095000404601F0A1FB55452BD9EBB2BAF1000F8F
:1009600020D006EA0701A3EB0A03033104EB81015F
:10097000DDB252460823404601F08EFB2A460AF1BA
:1009800008031749404601F087FB09F1030907EB0B
:1009900099099AE71D68002D9ED1AAE7404601F00B
:1009A00059FB43E72A4608230D49404601F074FBF2
:1009B000EBE706EA0701033104EB81012A4608232D
:1009C000404601F069FBE0E7B9467EE78C03002072
:1009D000FC550000CC550000185200001C560000C9
:1009E00098030020044BD3E900239A4201D0FFF77B
:1009F000C7BE0020704700BF8C03002030B4184DE4
:100A0000D5F8104400215CB1E3681A798A4204D118
:100A100016E0DB681A798A4212D01B68002BF8D1E5
:100A2000C3681971D5F8103493B1DA68C3681268D5
:100A30001A60D5F81034DB68186030BC084670477F
:100A400001310A29DFD14FF0FF31084630BC704731
:100A5000C5F81004C2681360084630BC704700BF78
:100A60008C0300202DE9F04784B01D460C9C002328
:100A700094F80C802373EB8881460E461746002BB2
:100A800040D1297A05290ED06B7AA88873BB404BD8
:100A900053F821A00021FFF7BFFD524603463D4910
:100AA000204600F017FF062F09D8DFE807F0046A98
:100AB0004249525D33004946204600F00BFF2B7A35
:100AC000052B05D06B7A5BB93349204600F002FF55
:100AD000204600F0F3FE84F80C8004B0BDE8F087F7
:100AE0002E4A2F49204600F0F5FEEDE7FFF7C0FD46
:100AF0002C4B2B4953F82020204600F0EBFE297A9E
:100B0000A888C4E7254A00922749284A204600F0D1
:100B1000E1FEB6E7D6E90410D6E900230390D6E952
:100B200002070291CDE900074946204600F0D2FEB7
:100B3000C5E74946D6E90023204600F0CBFEBEE7D4
:100B4000B168D6E9002320460091494600F0C2FE74
:100B5000B5E7D6E90201D6E90023019100904946A4
:100B6000204600F0B7FEAAE7D6E90371B068D6E9DF
:100B700000230291CDE900074946204600F0AAFE75
:100B80009DE732684946204600F0A4FE97E700BF83
:100B9000A452000094520000A052000088520000AD
:100BA0009052000030520000705200006852000065
:100BB000082900D970472DE9F04F1D4690460023C3
:100BC0002A7B2B7385B0B8F80630039207460E4691
:100BD000002B77D198F80810052911D098F8093022
:100BE000B8F80400002B5FD13A4B53F821400021A4
:100BF000FFF712FD224603463749284600F06AFEF9
:100C0000DFF8F4B0DFF8F490002405E03A5D013439
:100C100000F060FE082C09D0A64249462846F5D8C7
:100C20005946013400F056FE082CF5D12B49DFF867
:100C3000D090DFF8D0B0284600F04CFE002411E040
:100C400017F804A004F0ECF850445946437813F028
:100C5000970F14BF52462E222846013400F03AFE68
:100C6000082C08D0A64249462846E9D8013400F0AD
:100C700031FE082CF6D198F80830052B02D098F8F0
:100C800009305BB91649284600F024FE284600F0DA
:100C900015FE039B2B7305B0BDE8F08F114A124976
:100CA000284600F017FEEDE7FFF7E2FC0F4B0E4978
:100CB00053F82020284600F00DFE98F80810B8F8E8
:100CC000040091E7074A009209490A4A284600F0C1
:100CD00001FE7FE7A4520000945200006052000021
:100CE000A0520000885200009052000030520000D4
:100CF00070520000685200005C5200005452000024
:100D00009C52000064520000054A4FF0A043105C62
:100D1000D3F8043523FA00F0C04300F00100704717
:100D200010530000044B195C4FF0A04201238B408C
:100D3000C2F80C35704700BF10530000044B195C1B
:100D40004FF0A04201238B40C2F80835704700BF26
:100D5000105300004FF0A04310B44FF480204FF424
:100D600000344FF400214FF48012C3F80845C3F853
:100D70000805C3F80815C3F808255DF8044B70474B
:100D80004FF0A04310B44FF480204FF400344FF4E0
:100D900000214FF48012C3F80C45C3F80C05C3F8CA
:100DA0000C15C3F80C255DF8044B7047074B4FF04A
:100DB000A041185CD1F804350122824022EA0300E8
:100DC0001340C1F80805C1F80C35704710530000F6
:100DD0000D2809D00E2809D00F2809D010280CBFE3
:100DE00003204FF0FF30704700207047012070470C
:100DF00002207047C20730B41AD54FF0A043032237
:100E0000C3F844274FF40035C3F848274FF4802433
:100E1000C3F84C274FF40021C3F850274FF4801239
:100E2000C3F80855C3F80845C3F80815C3F80825E2
:100E300083070AD54FF0A0430C22C3F83427C3F828
:100E40003827C3F83C27C3F8402730BC704700BFA1
:100E5000434B1978002900F081802DE9F04F0024E0
:100E600087B001258E4603E00134E4B2744560D2B8
:100E70003C4B27B21E6816F837C0ACF1200205FAC9
:100E800002F9394ACCF12003D2E9000125FA03F333
:100E900049EA030905FA0CF800EA080201EA090325
:100EA000134306EBC70BDFD021EA09032E4920EAE2
:100EB00008026046C1E9002301F056FC16F837C06D
:100EC000ACF1200205FA02F201920199CCF1200363
:100ED000C6B225FA03F3ACF12002194306FA02F375
:100EE0000393224B0191D3E90023CDE9042305FAB2
:100EF0000CF30093CCF12001039B26FA01F10B4384
:100F0000039306FA0CF30293DDE90467DDE900239D
:100F100016401F4032463B46DDE90267BB4208BF30
:100F2000B24209D00E4B013493F800E0E4B27445AC
:100F30009ED307B0BDE8F08F9BF80110DBF80430BA
:100F4000A1F10101B1FA81F14909091AB1FA81F15E
:100F50004909002BE6D060469847E3E7704700BF99
:100F60004808002080080020780800207008002031
:100F70002DE9F84F0646244800F0CCFBD8B9234FA2
:100F80000123A6F1200103FA01FBC6F12002D7E9F3
:100F9000000123FA02F24BEA020B03FA06FA00EA16
:100FA0000A0201EA0B03134307D020EA0A0421EAEC
:100FB0000B05C7E90045BDE8F88F304601F0D4FBCA
:100FC000134ED6E90089C8B148EA0A0349EA0B047E
:100FD0009846A146D7E900234BEA03050D4B0A4882
:100FE00019684AEA02044B464246C6E90023C7E9AB
:100FF00000450022BDE8F84F00F03EBB28EA0A0891
:1010000029EA0B09E6E700BF500800207808002015
:10101000700800204C080020042A36D92DE9F04140
:1010200082B00E460546144601F054FA002836D028
:101030001D491E4A1E4B0D601E481F491C6016703C
:1010400000230022741EC0E90023C1E90023E4B29A
:10105000EEB105EBC404194F083D4FF0000803261C
:1010600001E0AC4213D0A37820788DF806803A4690
:1010700001A98DF804608DF8053001F035FA083CBF
:101080000028EED002B0BDE8F081072070470C4A7E
:101090000C48002100F0DEFA02B0BDE8F08101F05A
:1010A000D3F90028C4D0EDE78008002048080020CC
:1010B0004C0800207008002078080020710F000004
:1010C000510E00001453000070B5084D2B785BB131
:1010D000074E00243368012113F8340001F0E2FACE
:1010E0002B780134A342F5D8002070BD48080020B9
:1010F0008008002000B585B000230390194601AA9E
:1011000044F20100CDE9013303F024FC05B05DF8A1
:1011100004FB00BF30B482B001248DF80740154BAA
:101120009DF80750186044F20104A04259609A608B
:1011300014D044F20201884208D072B69DF80730FC
:10114000002BFBD162B602B030BC7047DA60DA68BF
:1011500012889A61DA685268DA61EEE71A611A69F0
:1011600092685A611A6912689A611A695268DA615A
:10117000E3E700BF84080020F8B5204A204B002494
:10118000C2F84041C2F84441C2F84841C2F84C415B
:10119000C2F80041C2F804411B6833B31949D2F8C0
:1011A00004550A68AD1A1A6825F07F45AA422746F9
:1011B0000DD8197CDE69AD1A144419B11F74D3E936
:1011C000052090471EB133461A68AA42F1D90E494C
:1011D0000E4A0B7812789A4208D00D490D4A41F810
:1011E00023404FF48013C2F80031F8BD531CDBB22A
:1011F000022B08BF00230B70EFE700BF0010014077
:10120000C4090020C0090020BD090020BC0900203D
:10121000B409002000E100E02DE9F04F8C4A8D492F
:1012200013780978DFF85082994285B0D8F800A089
:1012300000F07B810133DBB2022B08BF002386481C
:101240001370864A076852F823107B1823F07F43F7
:1012500000240360534626462046A446ABB11A68D4
:101260008A4200F26581DC68C3F800C0891A104424
:10127000DA6934B13D1825F07F45C3E90154DE61D8
:101280001E4613460124002BE9D1002C40F07C813E
:1012900001230093724B734FDFF8E09143F0010399
:1012A000019355464FF0000B46B3D6E901C13446D1
:1012B000F669694B6C481A68ACEB020323F07F4374
:1012C000834248D80B44236000220121C4E9012253
:1012D000E2612174002D5DD02A689A424DD22846E1
:1012E00003E00A689A424FD20846C1699B1A002956
:1012F000F7D12360E161C461002ED6D178783978C6
:10130000884264D00B4603EB43034C1CBA7807EBCE
:10131000C303E1B28A421A79397004BF00213970DF
:10132000022A9C6844D0032A38D0012AE8D1227CC2
:10133000002AE5D1D3F80CC0C4F804C01969A16033
:101340005869E06099F800009B69A3610028B0D05B
:1013500062609446ADE7A2EB0C0222F07F428A4223
:1013600002D28B1A2360AFE700230122C4E90033C5
:10137000A360E36122746DB12A68C8F80040D31AF3
:101380002B60E56125468FE7D21A0A602360E16190
:10139000C461B1E7C8F80040254685E7002DAFD00D
:1013A00000232B74ED69002DFBD1C8F80050A5E790
:1013B0004DB1AC422B4603D1E4E094422FD013460A
:1013C000DA69002AF9D10023237488429AD1BBF14B
:1013D000000F01D1554553D0002D56D1234E244A3C
:1013E0001F4C4FF480334FF400310127C2F88010B6
:1013F0003C43C6F848334FF43C60C6F80833776086
:10140000A047154BB7604FF43C601D60A047194BD7
:101410001D70002389F8003005B0BDE8F08FA342AD
:1014200000F09180E0692168D861002800F0868092
:101430002A4603680B440360AA424FF00003397840
:10144000787823741CBF15464FF0010BBDE700BF31
:10145000BC090020BD090020C0090020B4090020FB
:1014600020530000A4080020FEFF7F000010014070
:1014700000E100E0B1090020C4090020B00900200B
:10148000009B002BC5D0002DA8D0434B434A1C68BD
:10149000D2F80465424FD5F800A03978331B23F009
:1014A0007F43DD1CB9B93F493F4B4FF48030C2F850
:1014B00044034FF00108C2F804034FF40030C1F8B0
:1014C000800143F001030860C2F800804FF43C60E3
:1014D000984787F80080AA452CBF04EB0A036319DC
:1014E0002E4923F07F43C1F84035D1F80425921BE3
:1014F0009B1B22F07F4223F07F4303329A4288D91C
:10150000294BD1F80425C1F8402543F001034FF4DD
:101510003C609847234B4FF40032C3F8002100236E
:1015200089F8003005B0BDE8F08F00260096B1E6DE
:1015300074BB521A1A6001230093ABE6002339787A
:101540007878237441E71946EA69C8F8002092B90F
:10155000CDE90231114BDFF840C001209860019BBA
:1015600089F80000CCF800204FF43C609847DDE992
:101570000231D8F80020C8690968D86100287FF4D2
:1015800058AF59E72946DFE7C8F800309A467FE6AA
:10159000C8F800309A46CCE7C0090020001001408E
:1015A000B109002000E100E0205300002DE9F843DC
:1015B0001F4D204E204FDFF898804FF480334FF4BA
:1015C00000324FF001090024C6F8802047EA0907DD
:1015D000C5F848334FF43C60C5F80833C5F80490AB
:1015E000B847C5F808904FF43C60C8F80040B847C9
:1015F000124A134B13491C601470134B134A0C709E
:101600000B2114701C8099704FF48012C023C6F80F
:10161000802186F814333260C5F8084586F8113306
:10162000D5F80435C8F800302046BDE8F88300BF7F
:101630000010014000E100E020530000B10900204B
:10164000C4090020BC090020A4080020BD09002016
:10165000C0090020074B9B784BB132B128B1036819
:10166000187C20B959745A617047072070470820C8
:10167000704700BFA40800202DE9F843224CA3784E
:10168000002B35D0002833D0042934D943697BB3EB
:10169000437C0646012B4FF000000CBF8846804675
:1016A0001746894600F06AF86378A17822785D1CB5
:1016B000EDB2A94208BF0025AA421FD003EB4303A5
:1016C00004EBC3030121114A9E601971D2F804256D
:1016D000DA600020C3E904989F61657000F056F855
:1016E0000B4B4FF48012C3F800210020BDE8F883B3
:1016F0000820BDE8F8830720BDE8F883002000F04B
:1017000045F80420F2E700BFA408002000100140C3
:1017100000E100E070B5174DAB7823B318B343690F
:101720000BB3002404740646204600F027F86A78BC
:10173000A8782978531CDBB2984208BF2346994207
:1017400013D002EB420205EBC20202219660204652
:1017500011716B7000F01AF8074B4FF48012C3F848
:101760000021204670BD082070BD204600F00EF814
:10177000042070BDA408002000E100E072B6024A17
:101780001368013313607047C8090020034A1368C7
:10179000013B136003B962B6704700BFC80900205F
:1017A00050E8002F0B4640E8003C9CF0000FF7D1BA
:1017B0001046704750E8003F03EB010240E8002C60
:1017C0009CF0000FF6D11046704700BF50E8003F74
:1017D000A3EB010240E8002C9CF0000FF6D110466C
:1017E000704700BF012350E8002F42EA030C40E895
:1017F00000C191F0000FF6D160467047002350E819
:1018000000CF0CEA030240E8002191F0000FF6D16E
:1018100060467047B8B130B4D0E90112521A04687A
:10182000D2B2531E2160DBB242B101680A685C1E6D
:10183000551C0D601370E3B2FF2BF6D10368002036
:10184000187130BC70470E20704700BF38B5044691
:101850000020FFF793FFD4E900311A688A4215D9B6
:10186000511E19602168A3680868258A12F8012CA6
:10187000E4681B1A0879DBB2984205FB024400D2E7
:101880000B710020FFF782FF204638BD0024F8E7E7
:1018900038B5054600200C46FFF770FF2A6813682C
:1018A000591C1160E9682A8A641AB4FBF2F41C70AE
:1018B0000020BDE83840FFF769BF00BF826842B131
:1018C00010B5044643690168006998470023A36086
:1018D00010BD70470EB400B582B0039929B102AAB9
:1018E00004AB42F8043D00F08BF802B05DF804EB65
:1018F00003B070472DE9F84F8846904517460546D6
:101900001E46DDE90AB175D343464FF00109B3FB2A
:10191000F7F39F4209F10109F9D9B14538BFB14642
:1019200011F0010AAA6802D1BBF1000F43D10124D2
:1019300002E0013E07FB04F4012EFAD8B8FBF4F1F3
:101940008F42F7D92D4E05E0B4FBF7F4A4B1B8FBF4
:10195000F4F1AA68705C531CAB602B689854D5E90D
:1019600001329A4204FB1188EED32846FFF7A6FF06
:10197000B4FBF7F4002CEAD1BAF1000F15D0BBF19B
:10198000000F12D0CB4510D92024AB682A68591C0F
:10199000A960D454D5E901329A420BF1FF3B06D23B
:1019A000BBF1000F01D0CB45EFD1BDE8F88F284641
:1019B000FFF784FFF4E78B0717D42024CB45B6D973
:1019C0002B68511CA9609C54D5E901329A420BF155
:1019D000FF3B05D2BBF1000FA9D0CB45F0D1A6E764
:1019E0002846FFF76BFFAA68F4E7002E0CBF3024EF
:1019F0002024E3E74FF001098FE700BF28530000E0
:101A0000002900F0F4812DE9F04F054685B092469B
:101A10000C460B78DFF8A8B501E0237893B10134C8
:101A200083B1252B15D0AA682968501CA8608B5457
:101A3000D5E901329A42F0D32846FFF73FFF2378D9
:101A4000002BECD12B7B002B40F0148105B0BDE8BE
:101A5000F08F2146002711F8012B2D2A00F0E1809C
:101A6000302A00F0E2802B2A00F0D2802A2A00F0EF
:101A7000E080A2F13006F3B2092B03D9B8E1A3F15B
:101A800030060146084606EB860310F8012BA2F14A
:101A90003004092C02EB4303F1D92E2A00F0D58043
:101AA0000023013101E011F8012B02F0FB0068284E
:101AB0000C46F8D0253A532AAFD801A151F822F0AC
:101AC000811C00001B1A00001B1A00001B1A0000DA
:101AD0001B1A00001B1A00001B1A00001B1A000032
:101AE0001B1A00001B1A00001B1A00001B1A000022
:101AF0001B1A00001B1A00001B1A00001B1A000012
:101B00001B1A00001B1A00001B1A00001B1A000001
:101B10001B1A00001B1A00001B1A00001B1A0000F1
:101B20001B1A00001B1A00001B1A00001B1A0000E1
:101B30001B1A00001B1A00001B1A00001B1A0000D1
:101B40001B1A00001B1A00001B1A00001B1A0000C1
:101B50001B1A00001B1A00001B1A00001B1A0000B1
:101B60001B1A00001B1A00001B1A00001B1A0000A1
:101B70001B1A00001B1A00001B1A00001B1A000091
:101B80001B1A00001B1A00001B1A00009B1C0000FF
:101B90001B1A00001B1A00001B1A00001B1A000071
:101BA0001B1A00001B1A00001B1A00001B1A000061
:101BB0001B1A00001B1A0000B51C0000D71C0000F7
:101BC0001B1A00001B1A00001B1A00001B1A000041
:101BD000D71C00001B1A00001B1A00001B1A000073
:101BE0001B1A00001B1A00001B1A0000271D000012
:101BF0001B1A00001B1A00009B1D00001B1A00008E
:101C0000D51D00001B1A00001B1A00009B1C0000C1
:101C100047F004070C46214611F8012B2D2A7FF4CA
:101C20001FAF47F001070C46F5E747F002070C46E7
:101C3000F1E7DAF800301A1DCAF8002062781E6851
:101C40002E2A04F102007FF42BAF4A78A2F1300370
:101C5000092B00F25081002303EB830302EB4303C3
:101C600010F8012FA2F130010929A3F13003F3D9B3
:101C7000014616E7284605B0BDE8F04FFFF71EBE47
:101C8000AB682A68591CA9604FF02501D154D5E9E9
:101C900001329A42FFF4C1AECEE6DAF80020111DFF
:101CA000CAF8001011682846CDE900671022FFF736
:101CB00021FEB2E6DAF80020131DCAF80030AB6846
:101CC00029681278581CA860CA54D5E901329A4292
:101CD000FFF4A3AEB0E6DAF80020111DCAF8001038
:101CE000D2F8008088EAE872A2EBE872092A4FF085
:101CF000010107DDB148A0FB0202D208092A01F167
:101D00000101F7DC994238BF1946894607F0020203
:101D1000002E71D12AB1002B00F04B81FA0700F19F
:101D20008D8000268AE0DAF80020131DCAF8003002
:101D3000AB6829681768581C3022A860CA54D5E9D6
:101D40000123934280F02C812A68581C7821A860D6
:101D5000D154D5E90123934280F01D810F2F03D97F
:101D60003A4612090F2AFCD84FF0805603E0360994
:101D70003FF453AEAB682968B7FBF6F2581CA86075
:101D80001BF80200C854D5E90131994206FB1277CD
:101D9000EDD32846FFF792FDE9E7DAF800301A1D87
:101DA000CAF80020D3F80080FB077ED54746A7EB92
:101DB000080917F8013B002B5DD0AA682968501C60
:101DC000A8608B54D5E901329A42F0D32846FFF738
:101DD00075FDECE7DAF80020111DCAF80010116853
:101DE0002846CDE900670A22FFF784FD15E6704713
:101DF00008460026214650E6B8F1000F01DB7807BF
:101E000000D5013E02B1CBB1F90717D4002E88D01E
:101E1000B14513D220220393A9682B68481CA860FF
:101E20005A54D5E90131994206F1FF365DD2002EB0
:101E300000F0C180B145EFD1039B4E46B8F1000FD1
:101E4000C0F296807A070AD5A9684A1CAA602A6857
:101E50002B205054D5E90121914280F0968007F063
:101E60000302022A5FD0CDE9006741460A222846D4
:101E7000FFF740FDD1E54E457FF6CFAD202705E0C9
:101E80004E453FF4CAAD002E3FF4C7ADAB682A689B
:101E9000591CA960D754D5E901329A4206F1FF36A0
:101EA000EED32846FFF70AFDEAE7B8F1000F24D089
:101EB000404602F0E8FF0746BE4220D9FEB14FF08F
:101EC000200902E0BE421AD0CEB1AB682A68591C84
:101ED000A96002F80390D5E901329A4206F1FF3673
:101EE000F0D32846FFF7EAFCECE728460292FFF71A
:101EF000E5FC029A9BE70146D2E54746DCE708F19C
:101F0000FF3818F8013F002B3FF487ADAA68296815
:101F1000501CA8608B54D5E901329A42F1D328466F
:101F2000FFF7CCFCEDE7002B9DD1002E3FD0B14553
:101F300099D2029323464C46B1461E46AA682B68A6
:101F4000501C4FF03001A8609954D5E901329A42F3
:101F500009F1FF3908D2B9F1000F26D04C45EDD177
:101F60003446029B4E467EE72846FFF7A7FCF2E781
:101F7000A9684A1CAA602A682D205054D5E901217D
:101F80009142C8F10008FFF46AAF28460293FFF7B8
:101F900095FC029B63E72846FFF790FCAB68DDE603
:101FA0002846FFF78BFCAB68CEE6029B3446002642
:101FB00059E71E4642E7039BB3E600BFCDCCCCCC2D
:101FC00028530000FFF726BC2DE9F041058ACE1CFE
:101FD000043D2E440746B6FBF5F6FFF737FC78B311
:101FE000F6B24FF48073013E0446C58007608380DB
:101FF00027D08046002509E06379AE4203F1010352
:102000006371C8F80000076080461AD03846FFF7B1
:102010001DFC01350028EFD16679721E14D02346CD
:10202000013082421B68FBD11F684EB10025236836
:102030002146013538461C46FFF72AFCAE42F6D150
:1020400000242046BDE8F0812768EFE70430012135
:10205000FFF7B0BBF8B5012104460430FFF7B6FB2B
:10206000C0B200B1F8BD6679721E12D023460130AD
:1020700082421B68FBD11F68002EF3D00025236825
:102080002146013538461C46FFF702FCAE42F6D128
:10209000F8BD2768F2E700BF2DE9F843C788467905
:1020A00007FB06F6043E02EB030C0446664503F10B
:1020B000040015468846B0FBF7F238BFF51A07FB57
:1020C000120012B1013A2468FCD13E1AAE4228BF78
:1020D0002E469DB14FF000090430AD1B204432461E
:1020E00008EB090102F0BCFEAF42B14424683E4651
:1020F0004FF0000028BF2E46002DEDD1BDE8F8833B
:102100002DE9F843C7884679154607FB06F6043ED5
:1021100005EB030C1A1D664504468846B2FBF7F032
:1021200038BFF51A07FB102110B101382468FCD123
:102130007E1AAE4228BF2E469DB14FF000090431F1
:102140002144AD1B324608EB090002F089FEAF4284
:10215000B14424683E464FF0000128BF2E46002DB2
:10216000EDD1BDE8F88300BF8268002393608268E8
:102170001361826853618268D360826853608268A9
:102180001360704710B570B101280BD10D4C236955
:10219000A0703BB1D3E90023012022619847236955
:1021A000002BF7D110BD074CA36801226270002BF1
:1021B000F8D0D3E900230020A2609847A368002B41
:1021C000F7D1EFE7CC09002038B50A4C23786BB97A
:1021D00009486360A3602361E36000F0B1F805463D
:1021E00000F0BCF801232370284638BD8525284619
:1021F00038BD00BFCC0900208521000038B5154C42
:10220000A378054673B110B14368012098470020B8
:10221000FFF7B4FAE3680133E3600020BDE838401B
:10222000FFF7B4BA03F0FF00FFF7A8FA65B122691F
:1022300042B1954208D0134601E09D4204D01B688C
:10224000002BFAD12A602561E368002BE2D100F06F
:1022500099F8DFE7CC09002030B585B00478094A49
:10226000094B45688DF80040047AC068039053F824
:10227000213001958DF8084052F8211068469847A2
:1022800005B030BDE0090020E409002030B585B07C
:10229000047845688DF80040D0E90240064A074BB3
:1022A000039053F8213001958DF8084052F8211021
:1022B0006846984705B030BDE0090020E4090020D9
:1022C000F0B51A4B06781A4D0C6991F81DE045F8E7
:1022D00026400746174803F806E040F826200C463B
:1022E00094460FCC89B06D460FC594E80F0085E881
:1022F0000F000496BEF1000F0BD0BCF1000F0E4A88
:10230000694607F1040008BF002201F04DFB09B047
:10231000F0BDBCF1000F094A694607F10C0008BF87
:10232000002201F00FF909B0F0BD00BF540C0020ED
:10233000E0090020E4090020592200008D2200005D
:10234000054A13792BB90121106053711846117198
:1023500070478520704700BFE8090020084B1A68C5
:10236000D20706D40122C02183F80013C3F88021CC
:102370001A604FF080430122C3F81825704700BF50
:1023800000E100E010B41349134B144A0020086028
:1023900083B0096801914FF080410220019CC1F88F
:1023A0000403D86840F08071D960146844F00103D8
:1023B0001360516853685B1AB3F50A5FFAD3064994
:1023C000074B14600122C8601A6003B05DF8044B2B
:1023D000704700BF04010040F0ED00E0001000E095
:1023E0000800004010B5154B1A6882B07AB1002180
:1023F000134A19601B68507900934FF08041012304
:10240000009CC1F8083310B91168537188470D4B0F
:102410001A6882B100221A601B6801934FF0804253
:102420000221074B0198C2F808131B68012002B073
:10243000BDE81040184702B010BD00BF00010040C9
:10244000E80900200401004070B51E4C94F8585073
:1024500082B0A5BB4FF0FF332946042204F154009B
:10246000C4E90033C4E90233C4E90433C4E90633E0
:10247000C4E90833C4E90A33C4E90C33C4E90E33B0
:10248000C4E91033C4E91233236502F0F4FC0E4BA7
:102490000E4A0F4E1560C02183F806134021C3F881
:1024A000801119601368019301994FF000430122D4
:1024B000284684F85820C6F8043302B070BD0820BE
:1024C00002B070BDF009002000E100E07C61004036
:1024D00000600040034B93F85800003018BF012003
:1024E000704700BFF0090020F0B56C4B1C1894F940
:1024F0003050002D68DA8E78C6F340069646002EDE
:102500005CD11D6A013500F0B58009240C2553F813
:10251000247001375BD004F1010C53F82C700137A3
:1025200000F0B380A71CAF4246D253F827200132F7
:1025300000F0AD8004F1030CAC453DD253F82C7093
:10254000013700F0A28004F1040CAC4534D253F8FA
:102550002C70013700F0998004F1050CAC452BD2AA
:1025600053F82C70013700F0908004F1060CAC4554
:1025700022D253F82C70013700F0878004F1070C49
:10258000AC4519D253F82C7001377ED004F1080CF9
:10259000AC4511D253F82C70013776D004F1090CF8
:1025A000AC4509D253F82C7001376ED00A34AC42D6
:1025B00002D2DC6A013409D00420F0BD1D68013567
:1025C00067D001240825A2E70820F0BD0B241F18BE
:1025D00065B243F824E087F83050002E51D08A7855
:1025E000540714D4D6073BD44C784FF0A04600F5DE
:1025F000E072A40046F82240294EC40800F0070CFF
:10260000375D012202FA0CF23A4332558A780C788F
:1026100012F0020209D1083D2B44104693F85020D5
:1026200042EA841483F85040F0BDAB0003F18043CC
:1026300003F5C0430202D3F8101521F4473121F409
:102640004071C3F810152404D3F8101504F4403475
:1026500002F4F85222430A43C3F810250020F0BDCB
:10266000820002F1A042D2F8004724F00204C2F82E
:102670000047C1E7082684F83060C3F820E03546FB
:1026800034461C4484F84800A9E764469FE73C466A
:102690009DE700251A6084F83050A0E7F00900207B
:1026A000440A002070B42E4D2E1883B096F93030B5
:1026B000072B1CDD2B4493F848309B09032B41D09A
:1026C000012B14BF4FF440314FF40031800000F172
:1026D000A040D0F8002722F44032C0F80027D0F8FC
:1026E00000370B43C0F8003703B070BC7047DAB254
:1026F000072AF9D8980000F1804000F5C04003F1A6
:102700004002D0F81045920092B244F0010402F168
:102710008042C0F8104502F5C04200200190019CA3
:1027200010600029E0D096F9302055F82220002AC8
:10273000DAD001220B4902FA03F3C1F8043303B0E3
:1027400070BC70474FF0A043D3F81035C34013F06E
:10275000010F0CBF4FF400314FF44031B6E700BF1A
:10276000F0090020006000404FF0A043D3F810357E
:1027700023FA00F000F00100704700BF2DE9F0419E
:1027800086B00023A14A01931668012E00F05481FF
:102790001E469F4B1A68012A00F05D819D4B1A6806
:1027A000012A00F06A819C4B1A68012A00F07781A7
:1027B0009A4B1A68012A00F08481994B1A68012A01
:1027C00000F09181974B1A68012A00F09E81964B88
:1027D0001A68012A0CD0954B1B68012B00F0A581CB
:1027E00016F0FF0F15D1002E30DB06B0BDE8F081EA
:1027F0008F4AD2F804231706EDD500221A601A6812
:1028000004926033049A1B68012B46F0800600F0A6
:102810008C81884F00240125A30003F180433542B9
:1028200003F5C0434FEA45050BD0D3F8100557F820
:102830002420D3F81015C0F30420C1F3014102B1E4
:1028400090470134082CE7D1002ECEDA00224FF059
:10285000FF33CDE90223774C012602AF94F95030C3
:102860005D1C2CD0DBB223F0C00006AA4FEAD00CCE
:1028700002EB0C0E03F007021EF80C1C06FA02F223
:1028800011421CD02518990995F9303054F823309D
:10289000002B00F09881032900F098814FEA800C0A
:1028A0000CF1A04C1EF8145CDCF800E71540CEF3E8
:1028B000014E40F05C81BEF1030F00F0DE81002587
:1028C00094F95130581C2DD0DBB223F0C00006AA79
:1028D0004FEAD00802EB080E03F007011EF80C2C9B
:1028E00006FA01FC12EA0C0F1CD02218990992F981
:1028F000303054F82330002B00F05B81032900F0C6
:102900005B81820002F1A0421EF8148CD2F800E72D
:1029100018EA0C0FCEF3014E40F03681BEF1030FE2
:1029200000F0A68194F95230591C2DD0DBB223F06F
:10293000C00006AA4FEAD00802EB080E03F0070118
:102940001EF80C2C06FA01FC12EA0C0F1CD02218FF
:10295000990992F9303054F82330002B00F03C8173
:10296000032900F03C81820002F1A0421EF8148C81
:10297000D2F800E718EA0C0FCEF3014E40F0E380E6
:10298000BEF1030F00F06E8194F953305A1C2DD024
:10299000DBB223F0C00006AA4FEAD00802EB080E13
:1029A00003F007011EF80C2C06FA01FC12EA0C0FCA
:1029B0001CD02218990992F9303054F82330002B9A
:1029C00000F0ED80032900F0ED80820002F1A042CA
:1029D0001EF8148CD2F800E718EA0C0FCEF3014E63
:1029E00040F0BC80BEF1030F00F00081002D3FF4E9
:1029F000FCAE4FF0A043019AD3F8103593423FF458
:102A0000F4AE029A0193039228E700BF00610040F0
:102A100004610040086100400C610040106100400A
:102A200014610040186100401C6100407C6100405E
:102A300000600040F00900209A49D1F8041311F019
:102A4000010170D0136013680493049B964B1A68BD
:102A5000012A7FF4A3AE934AD2F8042397077FF5A7
:102A60009DAE00221A601B680493049B8F4B1A686A
:102A7000012A46F002067FF496AE8A4AD2F8042371
:102A800055077FF590AE00221A601B680493049BE3
:102A9000874B1A68012A46F004067FF489AE814A02
:102AA000D2F8042314077FF583AE00221A601B6856
:102AB0000493049B7F4B1A68012A46F008067FF4B2
:102AC0007CAE784AD2F80423D0067FF576AE002299
:102AD0001A601B680493049B774B1A68012A46F01E
:102AE00010067FF46FAE6F4AD2F8042391067FF58B
:102AF00069AE00221A601B680493049B6F4B1A682E
:102B0000012A46F020067FF462AE664AD2F804231A
:102B100052067FF55CAE00221A601B680493049B8A
:102B200046F0400653E60E4633E6654B00221A6037
:102B30001B6805934FF0A043059AD3F81035019315
:102B400046F000464CE6BEF1020F7FF41DAF0329AC
:102B500063D0002B3FF418AF984715E7BEF1020F82
:102B60007FF444AF032969D0002B54D13EE7BEF176
:102B7000020F7FF4A4AE032900F091800025002B02
:102B80003FF49EAE98479BE6BEF1020F7FF4CAAEBB
:102B9000032956D0002B3FF4C5AE9847C2E603295F
:102BA0007FF424AF17F8082042EA0C0207F8082047
:102BB0000BE703297FF4B6AE17F8082042EA0C02AF
:102BC00007F808209DE603297FF479AE17F80C502A
:102BD000154307F80C5061E603297FF4D5AE17F8CA
:102BE000082042EA0C0207F80820BCE60329BBD102
:102BF0004FF4003ED2F800C72CF4403CC2F800C7A6
:102C0000D2F800C701354CEA0E0CEDB2C2F800C78D
:102C1000002B3FF4EEAE9847E8E64FF4403ED2F882
:102C200000C72CF4403CC2F800C7D2F800C70135F9
:102C30004CEA0E0CEDB2C2F800C78AE74FF4403EF2
:102C4000D8E74FF4403ED2F800C72CF4403CC2F81D
:102C500000C7D2F800C701354CEA0E0CEDB2C2F83D
:102C600000C797E703297FF474AF4FF4003ED6E71F
:102C700003298FD14FF4003EE5E703297FF47FAFAE
:102C80004FF40035DCF8002722F44032CCF800275E
:102C9000DCF800272A43CCF8002701256FE74FF422
:102CA0004035EFE7006000400461004008610040EB
:102CB0000C61004010610040146100401861004048
:102CC0007C610040014B1B68184700BF4C0A002084
:102CD00038B50C4B984201D0002038BD00200D467D
:102CE000FEF74CFD084B1C7924B10020FEF74EFD89
:102CF000112038BD012220461D601A71FEF746FDE5
:102D0000204638BD002000404C0A0020034B98426A
:102D100003D1034B00221A601A7170470020004053
:102D20004C0A0020F0B490F804C0874B4FEACC0462
:102D30001D1988B02D79002D40F0D38043F83C2038
:102D40000D78FF2D00F0D18025F0800201262D06A0
:102D5000049206FA02F600F1F1804FF0A045C5F8A2
:102D60000C654FF0A04502F5E072032645F822609D
:102D70004D78FF2D00F0C08025F0800201262F063F
:102D8000059206FA02F600F1D4804FF0A045C5F88E
:102D90000C654FF0A04502F5E072032645F822606D
:102DA0008D78FF2D00F0AF8025F0800201262D06E2
:102DB000069206FA02F600F1B7804FF0A045C5F87A
:102DC0000C654FF0A04502F5E072032645F822603D
:102DD000CD78FF2D00F09E8025F0800215F0800F49
:102DE0004FF001064FF0A04506FA02F6079214BF15
:102DF000C5F80865C5F80C6502F5E0724FF0A0450E
:102E0000032645F82260DDE904760268069DC2F8D3
:102E10006075C2F86465C2F86855079DC2F86C55C4
:102E200002680125C2F8005502688E790D894F7934
:102E3000C2F80C75C2F80465C2F8085502684D89DD
:102E4000C2F8105505680022C5F800220568C5F8CB
:102E500000230568C5F81C21D5F81C610568049697
:102E6000049EC5F81021D5F8106105680396039EED
:102E7000C5F81421D5F8146105680296029EC5F8BC
:102E80000421D5F8045153F83C200195019D0AB363
:102E900005680A792D0B69B252010029D2B23DDBD7
:102EA00001F1604101F5614181F800230168090BDE
:102EB00041F3C40222F0604222F0030202F16042B8
:102EC00002F5614201F01F01012000FA01F1C2F890
:102ED000801111602344012200201A7108B0F0BC57
:102EE0007047082008B0F0BC70474D784FF0FF32B3
:102EF000FF2D04927FF440AF8D784FF0FF32FF2D0D
:102F000005927FF451AFCD784FF0FF32FF2D06923E
:102F10007FF462AF4FF0FF32079274E70B4905F080
:102F20000F0529440A76C1E74FF0A045C5F80865AA
:102F300047E74FF0A045C5F808652AE74FF0A045E0
:102F4000C5F808650DE700BF540A0020FCEC00E05E
:102F500003681B0B5AB2520930B40121094D0479A0
:102F6000203203F01F0301FA03F345F82230064B29
:102F7000016803EBC4030022C1F800251A7130BCBC
:102F8000704700BF00E100E0540A0020F0B404687C
:102F90000E680579C4F820658E88C4F824658E68AB
:102FA000C4F82865CE68C4F82C6504680E68C4F8B7
:102FB00040658E88C4F844658E68C4F84865C96861
:102FC000C4F84C15016802F0010404EB5202C1F888
:102FD0001425DA0782B0D9B206683DD413F0020294
:102FE0003CD1002CC6F800220CBF08260C26234C2E
:102FF00004EBC50254F83540517102251571D4B166
:1030000001F00402002A01F0080C0FBF2A46122228
:10301000B225922411BF3227A22582242227BCF197
:10302000000F1CBF3A462C46056811F0100F08BF70
:103030002246C5F8002301680022C1F80421D1F816
:10304000041101911B0601990ED403680121104659
:10305000995102B0F0BC70471022C2E74CB108226F
:10306000C6F800220C26C2E70068304402B0F0BC6B
:1030700070470422C6F800220826B8E7540A002048
:10308000F0B404680E680579C4F820658E88C4F829
:1030900024658E68C4F82865C968C4F82C150168D1
:1030A0001468C1F840459488C1F844459468C1F853
:1030B0004845D268C1F84C2582B00168069AC1F82B
:1030C0001435D1073CD412F0020F0CBF00260426A1
:1030D0001F4B016853F83540C1F8006203EBC5038C
:1030E000D1B202251D715971CCB101F00403002B3E
:1030F00001F008070FBF2B461223B225922411BFFF
:103100003226A22582242226002F1CBF33462C46BD
:10311000056811F0100F08BF2346C5F80033016899
:103120000023C1F80431D1F804110191120601996C
:1031300008D4026801211846916002B0F0BC7047C3
:103140001026C5E70068083002B0F0BC704700BF29
:10315000540A002000B52C4BD3F8102185B072B171
:1031600000212A4AC3F81011D3F8101153790391A2
:103170000399590703D513680BB101209847224BD7
:10318000D3F8142172B10021204AC3F81411D3F8E6
:103190001411537902911B07029903D513680BB1DF
:1031A00002209847184BD3F81C215AB10021174A26
:1031B000C3F81C115079D3F81C31019310F01000A2
:1031C000019B14D0104BD3F80421CAB100210F4A3F
:1031D000C3F80411D3F80411136800910121009879
:1031E00011716BB1032005B05DF804EB184713684B
:1031F000002BE7D09847044BD3F80421002AE5D1EF
:1032000005B05DF804FB00BF00C00140540A002077
:1032100000B52C4BD3F8102185B072B100212A4A99
:10322000C3F81011D3F81011537B03910399590778
:1032300003D593680BB101209847224BD3F8142192
:1032400072B10021204AC3F81411D3F81411537B32
:1032500002911B07029903D593680BB1022098478E
:10326000184BD3F81C215AB10021174AC3F81C117E
:10327000507BD3F81C31019310F01000019B14D047
:10328000104BD3F80421CAB100210F4AC3F804112E
:10329000D3F80411936800910121009811736BB168
:1032A000032005B05DF804EB18479368002BE7D0C6
:1032B0009847044BD3F80421002AE5D105B05DF806
:1032C00004FB00BF00100240540A002000B52C4B44
:1032D000D3F8102185B072B100212A4AC3F8101129
:1032E000D3F81011537D03910399590703D513693E
:1032F0000BB101209847224BD3F8142172B1002161
:10330000204AC3F81411D3F81411537D02911B07FE
:10331000029903D513690BB102209847184BD3F8D3
:103320001C215AB10021174AC3F81C11507DD3F853
:103330001C31019310F01000019B14D0104BD3F8F6
:103340000421CAB100210F4AC3F80411D3F80411B3
:10335000136900910121009811756BB1032005B02C
:103360005DF804EB18471369002BE7D09847044B2E
:10337000D3F80421002AE5D105B05DF804FB00BFB5
:1033800000200240540A002030B56C4AD2F80433C1
:1033900099058BB066D5D2F82431002B62D000237A
:1033A000C2F82431D2F8243103934FF40171644BF5
:1033B0000398C2F8081393F8291009B90121516044
:1033C0005E4902228DF81820D1F88024C1F88024AB
:1033D0009869D96809920022CDE90710C3E906224D
:1033E000D3E9001406A8A047544AD2F81C31BBB157
:1033F000534B186A5969884269D350480022C0F873
:103400001C21D0F81C010190019849B198688DF8F1
:10341000182008915A610790D3E9001206A8904736
:10342000464AD2F84431DBB10021454BC2F8441181
:10343000D2F8440193F829100090009809B10121B5
:1034400011609A6962B10022586AD9689A610122B2
:10345000CDE907108DF8182006A8D3E9001290478F
:103460000BB030BD354AD2F804335B07BCD5D2F877
:103470000831002BB8D0324B996900293CD000218B
:10348000C2F80811D2F8081104910499D868596A51
:10349000D2F8182542545A6A996901325A625A6A16
:1034A0008A42A1D1DA691968002A2ED0D8685D6AEB
:1034B0001C699A61079000220120DC60DA615A627F
:1034C0008DF8180008955B6806A898478CE793F874
:1034D000280000F0FF0400288FD1C2F81C41D2F868
:1034E0001C11029102999C68186A196A205C0131CA
:1034F0001962C2F81C0593E7C2F80811D2F8080156
:1035000005900598D2F81825C9E793F8292012B933
:103510000A4A01205060094A4FF40170C2F80803BA
:10352000586ADA6808900024012007928DF8180084
:103530005A689C6106A8904756E700BF00200040EB
:103540006C0A00202DE9F041DFF8988107792C26DC
:1035500006FB078682B096F82A30002B40F08F8059
:103560000D4604465C4900681646FFF7B1FB00288B
:1035700040F081802B68591C0CD001224FF0A041F3
:1035800002FA03F3C1F808352B6803F5E073032250
:1035900041F823206B685A1C06D003F5E0734FF006
:1035A000A042002142F823102368AA69C3F8242509
:1035B000297D6B7D22680B43C2F86C35D5E900127A
:1035C0002368C3F81425C3F80C152B7D012B5AD0A2
:1035D0002C2303FB07F308EB030256602A6948F823
:1035E0000320002E34D022682B7F3C4D0021C2F8EE
:1035F0001C11D2F81C2100922268009EC2F84411CE
:10360000D2F84411226801910199C2F8045321684B
:10361000090B4AB25B01002ADBB256DB02F16042C1
:1036200002F5614282F800332268120B42F3C403B0
:1036300023F0604323F0030303F1604303F5614388
:1036400002F01F02012101FA02F2C3F880211A6080
:103650002C23246803FB0783002204250121C4F8DE
:10366000005583F82A10C3E9062283F829205A61FD
:1036700002B0BDE8F081112002B0BDE8F081082061
:1036800002B0BDE8F081AB68591C06D003F5E073C9
:103690004FF0A042002142F82310EB685A1C0DD0D5
:1036A00001224FF0A04102FA03F3C1F80835EB689C
:1036B00003F5E073032241F82320EB682268A96830
:1036C000C2F80835C2F8101582E7054A01F00F016B
:1036D0000A441376A8E700BF893300008000020087
:1036E000FCEC00E06C0A0020F8B52F4D047902686C
:1036F0002C2303FB045300215B68C2F8001583B13F
:1037000003682A4AC3F808230368294E1B0B5AB2E0
:103710005209203203F01F03012101FA03F346F896
:10372000223003684FF0FF32D3F80CC5D3F814757C
:10373000D3F80815D3F81065C3F81425C3F80C2581
:1037400003689445C3F80825C3F8102506D00CF586
:10375000E07C4FF0A043022243F82C207B1C06D0D3
:1037600007F5E0774FF0A043022243F82720721CB0
:1037700006D006F5E0764FF0A043022243F826205B
:103780004B1C06D001F5E0714FF0A043022243F834
:1037900021200068FFF7BAFA2C2303FB045400230E
:1037A00084F82A306360F8BD6C0A002084020200AD
:1037B00000E100E0F0B5314E05792C2303FB0563F1
:1037C00085B05C69002C53D11C62996083F8284055
:1037D0005A610268C2F81C41D2F81C1102680291B9
:1037E0000121029F91600268D3F808C0C2F81C4111
:1037F000D2F81C1101910199D3F820E0196A5F6891
:103800001CF80EE001311962C2F81CE517B1204620
:1038100005B0F0BD1A6A5C690168944203D819E0EA
:1038200093F828203ABBD1F81C21002AF8D0C1F81F
:103830001C71D1F81C210392039AD3F820E01A6A74
:103840001CF80EE001321A62C1F81CE51A6AA242A5
:10385000E9D30168D1F81C31002BFBD00123CB60E8
:1038600000202C2303FB056500236B6105B0F0BD30
:10387000112005B0F0BD0F20F3E700BF6C0A002057
:10388000F0B5474BD3F8242189B0002A54D0002149
:10389000C3F82411D3F82421029202228DF81020BB
:1038A000029AD3F880043F4AC3F880040790D3F803
:1038B0003C05D3688DF81800C2E90611059311681C
:1038C000536804A89847364BD3F84421BAB1002076
:1038D000344AC3F84401D3F8444191690194019CEE
:1038E00069B1D3F83C458DF81840D3689061012444
:1038F0000593116853688DF8104004A89847284B29
:10390000D3F82021B2B10021264AC3F82011D3F800
:10391000204150690094009C60B1D3F84C05936835
:103920008DF818008DF810105161059304A8D2E9A4
:103930000013984709B0F0BDD3F810110029C2D088
:10394000C3F81021D3F81011164803910399816927
:10395000D3F83C458C42B6D1C569C768D0E900169A
:10396000E4B295B1D3F800C285612CF02005C261A4
:10397000C3F800520369C36001228DF8184005970F
:103980008DF8102004A8B0479DE7012385618DF8CC
:10399000184005978DF8103004A8B04793E700BF92
:1039A00000200040980A00202DE9F04307796B4E73
:1039B0004FEAC70808EB070306EB830385B093F8CB
:1039C0002030002B40F09E800D460446644900687C
:1039D0009146FFF77DF9002840F090802B68591C34
:1039E0000CD001224FF0A04102FA03F3C1F80835D0
:1039F0002B6803F5E073032241F823206B685A1CFF
:103A000006D003F5E0734FF0A042002142F82310E6
:103A10002368AA69C3F82425297D6A7D23680A439F
:103A2000C3F86C25D5E900312268C2F80C35C2F81C
:103A300014152B7D012B69D008EB07029200B318F7
:103A4000C3F804902B69B350B9F1000F45D0216839
:103A50002B7F444D0022C1F81021D1F810110091A4
:103A60002168DDF800C0C1F82021D1F820110191B2
:103A70002168DDF804C0C1F82421D1F82411029195
:103A80002168DDF808C0C1F84421D1F8441122684A
:103A900003910399C2F804532168090B4AB25B01F0
:103AA000002ADBB254DB02F1604202F5614282F887
:103AB00000332268120B42F3C40323F0604323F067
:103AC000030303F1604303F5614302F01F02012188
:103AD00001FA02F2C3F880211A604744226806EB1B
:103AE000870600230124082186F82040C2F800152B
:103AF000C6E90633736105B0BDE8F083112005B057
:103B0000BDE8F083082005B0BDE8F083AB68591C20
:103B100006D003F5E0734FF0A042002142F82310D5
:103B2000EB685A1C0DD001224FF0A04102FA03F3BA
:103B3000C1F80835EB6803F5E073032241F8232050
:103B4000EB682268A968C2F80835C2F8101573E757
:103B5000054A01F00F010A441376AAE7980A0020EB
:103B60008138000010030200FCEC00E0F8B5067993
:103B70002F4C0268F500AB1904EB830300215B684E
:103B8000C2F8001583B103682A4AC3F80823036802
:103B9000294F1B0B5AB25209203203F01F03012197
:103BA00001FA03F347F8223003684FF0FF32D3F8ED
:103BB0000CE5D3F814C5D3F80815D3F81075C3F87D
:103BC0000C25C3F8142503689645C3F80825C3F8E7
:103BD000102506D00EF5E07E4FF0A043022243F8F8
:103BE0002E20BCF1FF3F06D00CF5E07C4FF0A04347
:103BF000022243F82C207A1C06D007F5E0774FF01C
:103C0000A043022243F827204B1C06D001F5E071A7
:103C10004FF0A043022243F82120354404EB8504F1
:103C20000068FFF773F8002384F820306360F8BD64
:103C3000980A00201003020000E100E001F0604358
:103C4000B3F1005F2CD1F0B50679234F4FEAC60CD3
:103C50000CEB060407EB840483B0636913BBA1601B
:103C600062610568C5F82031D5F820E10568CDF816
:103C700004E0DDF804E0C5F85831D5F858E10568EE
:103C8000CDF800E0DDF800E0C5F84415C5F848259A
:103C900002680121916062683AB1184603B0F0BD34
:103CA00010207047112003B0F0BD036800E08AB90E
:103CB000D3F82011D3F858210029F8D0002A14BFD6
:103CC0000F2000200CEB060307EB830300225A6150
:103CD00003B0F0BD0F20F5E7980A00200220FDF7A1
:103CE00065B800BF2DE9F0470D460646FDF770F8B0
:103CF00003281ED8012D04461DD00ED3022D18D145
:103D00001B4B00EB40041C44657895B1194B1B68B4
:103D10007BB12846BDE8F04718471748FDF7FAFC85
:103D2000134B164A04EB44010B44125D9D78AA42E2
:103D3000EBD0BDE8F0870E4F4FEA400808EB0003D8
:103D4000FA18FD5C53782BB9A04447440B4BBA7862
:103D50001A55DAE7DFF8289007484A464FF4004141
:103D6000FDF78AFC0028EFD189F80060ECE700BF7E
:103D7000200B0020340B0020E00A00203C0B002028
:103D8000BC0A002010B50078FDF722F803280BD8F4
:103D9000064B00EB40001844407828B1044B1B68E8
:103DA00013B1BDE81040184710BD00BF200B002024
:103DB000340B0020B44B1B68DB0700D4704770B590
:103DC000B24DB34E2B7834786BB1B24B1B780020D8
:103DD0002870002B4BD0FCF7B1FF0120FCF7AEFFA1
:103DE0000320FCF7ABFF172C40D8DFE814F0B60037
:103DF000F400F400DC000801CA001301EE005000DA
:103E0000430050004300610018001800180018001B
:103E10001800660077008B009F005D005D009E48E3
:103E2000FDF778FCD4F11104054600F0008100286C
:103E300040F0FD80012C13D0C82303FB04F44FF4A1
:103E4000FA704FF400430021C3FB04014FF47A726F
:103E5000002301F02FF82A4601468F48FDF70CFC9D
:103E60000220FCF75FFF8B4B01221A7070BDFCF73C
:103E700071FFB8E7012318462B70FCF797FF00226B
:103E80004FF480418548BDE87040FDF7F5BB012344
:103E900018462B70FCF78AFF002240F6CD417F4880
:103EA000BDE87040FDF7E8BBFCF76AFF347070BDF9
:103EB000FCF766FF0C23337070BD764B1B78002B2C
:103EC00000F0BF800020FCF739FF0120FCF736FF2F
:103ED0000320FCF733FF1223337070BD6D4B1B784A
:103EE000002B00F0B1800020FCF728FF0120FCF738
:103EF00025FF0320FCF722FF0020FCF713FF13230C
:103F0000337070BD634B1B78002B00F0AD80002038
:103F1000FCF714FF0120FCF711FF0320FCF70EFF54
:103F20000120FCF7FFFE1423337070BD594B1B7842
:103F3000002B00F083800020FCF700FF0120FCF73D
:103F4000FDFE0320FCF7FAFE0020FCF7EBFE01204B
:103F5000FCF7E8FE1523337070BD4E4B1B78002B29
:103F600000F08A800020FCF7E9FE0120FCF7E6FE65
:103F70000320FCF7E3FE4948FDF7CCFB0023337038
:103F800070BD0020FCF7C0FE002860D00020FCF7C8
:103F9000D5FE05233370002241F69A113F48BDE853
:103FA0007040FDF769BB0020FCF7AEFE00285ED034
:103FB0000020FCF7C3FE46F2666103233370002243
:103FC0003648BDE87040FDF757BB0020FCF7AAFE5D
:103FD0000723337070BD0020FCF796FED0B300209D
:103FE000FCF7ACFE022C4EF2666118BF4FF40031B4
:103FF000347000222948BDE87040FDF73DBB002029
:10400000FCF782FED8B30020FCF798FE4FF4003195
:104010000423D3E70020FCF7C9FE062333700022F7
:1040200040F6CD411D48BDE87040FDF725BB02209C
:10403000FCF784FE174B00221A7070BDFCF78AFE55
:1040400082E7FCF787FE46E7FCF784FE54E7FCF7BF
:1040500069FE9EE7FCF766FE43F2333141F69A13A0
:10406000022C08BF1946C3E7FCF774FE58E7FCF7BB
:1040700059FE41F69A11A0E7FCF76CFE7BE7FCF7CE
:1040800051FE43F23331C3E72C0B0020300B0020EC
:10409000380B0020BD0A0020C00A0020000B0020C1
:1040A00038B5244B244A19608307106000F00105DD
:1040B00003D4CDB92C46204638BD204B20480E24D1
:1040C0000F2210211C701124DA7099715C7240F279
:1040D00066620421FCF7A0FF0446B8B115B10120C7
:1040E000FCF788FE204638BD0120FCF783FE154A08
:1040F00015480021FDF7AEFA04460028F2D1134A14
:1041000013480121BDE83840FDF7A4BAFCF7DCFFF5
:1041100004460028E2D101460E4A0F48FDF79AFAFC
:104120000446002DDED00120FCF764FE002CD9D11E
:10413000DDE700BF340B00202C0B0020200B0020FB
:1041400068530000B53D000090530000DD3C0000C6
:1041500088530000853D00008C530000FCF7B4BF7D
:1041600070B5214D06460FCD86B001AC0FC40E2EA2
:104170002B68236021D00F2E1DD11C4C2378032BDC
:1041800094BF013300232370194D2B78D9071DD418
:104190009A0721D45B0702D51648FEF7D9FE23788B
:1041A00006AA02EB8303002253F8143C2A7006B0DF
:1041B000BDE87040184706B070BD0C4C237883B141
:1041C0000B4D013B23702B78D907E1D50A48FEF748
:1041D000BFFE2B789A07DDD50848FEF7B9FE2B788D
:1041E000D8E704232370CFE794530000400B00204E
:1041F000180C00202C0000201C00002024000020AF
:1042000030B5154B15481649C01AC008000489B0CE
:1042100040F00300FCF742FA124B93E8070001ABB1
:1042200083E80700194600220F48FEF77BFD08B11E
:10423000FCF760FF0D4B0E4D0FCB04AC84E80F0074
:104240002B7809482146012243F0010402232C70F7
:10425000FEF79CFE09B030BDCC550000FC550000B7
:1042600088540000A85300001C000020B453000034
:10427000180C002030B5154B15481649C01AC00857
:10428000000489B040F00300FCF708FA124B93E8F1
:10429000070001AB83E80700194600220F48FEF72C
:1042A00041FD08B1FCF726FF0D4B0E4D0FCB04ACC2
:1042B00084E80F002B7809482146032243F00104CB
:1042C00001232C70FEF762FE09B030BDCC55000012
:1042D000FC55000078540000C45300001C0000206E
:1042E000D0530000180C002030B5164B1648174963
:1042F000C01AC008000485B040F00300FCF7CEF9F6
:10430000134B93E8070001AB83E807001946114AF5
:104310001148FEF707FD08B1FCF7ECFE0F4C104A00
:104320002378104D10490C4843F0010323700024FA
:10433000C2E90044022301222C70FEF727FE05B0DB
:1043400030BD00BFCC550000FC5500006854000093
:10435000E0530000094900001C000020180C002058
:10436000100C00200C0C0020905400002DE9F043AC
:10437000A24BA348A349A44DC01AC00800049BB097
:1043800040F00300FCF78AF900230720ADF816304F
:10439000CDF812301A4647F612248DF810008DF829
:1043A0001100012303A999480395ADF814408DF835
:1043B0001630FEF7B7FC002840F01081944B954D65
:1043C000954C2E780FCB46F001062E7006AE86E88F
:1043D0000F0004F164012143042041F288320023DC
:1043E00011F007018DF81100ADF814208DF816308A
:1043F00040F0F78089488A4B2060636089488A4B87
:104400006066A36689488A4BA060E36089488A4B4E
:10441000E066236789488A4B2061636189488A4B3B
:104420006067A36789488A4BA0618A48E361E067B7
:1044300003F1E1638848206203F5FA638748C4F812
:104440008030874BC4F88400A0F17A706362A0F5D5
:10445000966003F17A7303F59663A0628148C4F80D
:104460008830814BC4F88C00A0F54800E362A0F5C9
:10447000C87003F5480303F5C8732063A0F548002E
:10448000C4F89030C4F8940003F5480300F11670A6
:10449000636300F5C870A3F11673A3F5C873A06336
:1044A0007248C4F89830724BE363C4F89C00714BB7
:1044B000C4F8A03000F1AF6000F596606E4B206448
:1044C0006E48A4F8622063646D4A6E4BA4F8C6106F
:1044D000C4F8A4006C496D48A264E36402F1C87298
:1044E00003F1C873C4F8AC00C4F8B0106848694957
:1044F000C4F8B40002F5C87203F5C8736648C4F87E
:10450000B81066492265636502F1C87203F1C87389
:1045100002F5C87203F5C873C4E92F01604FA265A4
:10452000E36541F224326423C4F8A870A4F8602043
:10453000A4F8C4306FF4D803002203A959480393A8
:10454000FEF7F0FB002846D1574C2F7894E80F0077
:104550000DF12808103488E80F0094E80F000DF1E1
:10456000380989E80F0047F002076FF0D64303A926
:1045700000224E482F700393FEF7D4FB08B1FCF7DE
:10458000B9FD4B4C95F800C094E80F0012AF103401
:1045900087E80F0094E80F0016AC84E80F004CF099
:1045A000040C022385F800C031461D46012217483D
:1045B000FEF7ECFC4A464146009501233948FEF7D8
:1045C0005FFD00952246394601233848FEF758FD25
:1045D0001BB0BDE8F083FCF78DFDB5E7FCF78AFD65
:1045E000ECE6A11E623464339BB2D01A934221F8E8
:1045F000023F24F8020FF6D19CE700BFCC55000023
:10460000FC5500008054000091FF92FF1C00002028
:10461000EC530000180C0020440B00206400C8007C
:104620002C0190012413C0125C12F811F4015802FD
:10463000BC02200394113011CC1068108403E803ED
:104640004C04B0040410A00F3C0FD80E14057805DC
:10465000DC054006740E100EA4060807E40C800C5E
:104660006C07D007540BF00AFC0860093408D00727
:104670001C0C800C6C070807AC0D100EA40640063D
:10468000740ED80E3C0FA00F4C04E8031405B004C0
:1046900084032003BC025802F40190012C01C800DD
:1046A000DC05780524000020FC5300002C000020CD
:1046B0001C5400002DE9F0478B4B8C488C49C01AE4
:1046C000C00800048EB040F00300FBF7E7FF894B01
:1046D00093E8070003AB83E80700194600228648E9
:1046E000FEF720FB002840F0F1808449844D0B78D0
:1046F0006A08524243F0010312F003020B7000F00B
:10470000EB804FF4C873012A2B8000F0E2804FF455
:104710004873032A6B8040F0E3804FF49663AB80CC
:10472000162611460020804603F5966767F30F08AA
:1047300003F5C86767F31F4803F5C87704460FFA07
:1047400082F9844667F30F0003F5487767F31F404B
:1047500045F8190005EB49002746C0F8048003F529
:10476000FA68A24668F30F0403F5166868F31F445D
:10477000846003F52F6464F30F0A03F5486464F35F
:104780001F4A03F56164E04603F5895E64F30F0C8C
:1047900003F57A6464F31F4C0EF1100E6EF30F08EC
:1047A00003F5A25903F5BB5EC0F810C003F5965C93
:1047B0000EF1100E6CF31F4809F11009BC463C467F
:1047C0006EF30F0C69F30F0703F5AF5E6EF31F472F
:1047D000C0F80CA003F5ED5E03F5D45A876103F52C
:1047E000C8570EF1100E67F31F4C0AF1100A274646
:1047F0006EF30F07C2F1190203F5E15E6AF30F04CD
:104800006EF31F44D2B203F5FA5E6EF31F474FEA10
:10481000920EBEF1060FC0F81480C0E907C44762CB
:1048200019D103F5035C00240CF1100C03F50F5EA5
:1048300027460EF1300E6CF30F0403F5095C6EF39E
:104840000F070CF1200C03F5165E6EF31F476CF397
:104850001F44C0E90A4702F0FC0000EB800404EBAF
:10486000840403EB04130144361A8242C9B2F4B241
:104870009BB214D003F5C8704A1C012C25F8110016
:10488000D2B20CD00231022CC9B203F5487018BF65
:1048900003F5966325F8120018BF25F81130194C5E
:1048A00094E80F0006AD103485E80F0094E80F007F
:1048B00002260AAC84E80F0000962246294601230E
:1048C0000D48FEF7DDFB0EB0BDE8F087FCF712FCEB
:1048D0000BE71826114625E719261146134621E74E
:1048E000172602211EE700BFCC550000FC55000032
:1048F000705400003C5400001C000020180C0020E4
:104900001C0C002048540000F8B930B40F4C10497A
:1049100022785008D50731F810300DD5C83B9BB22E
:1049200021F8103033B90132D2B2072A8ABF0023EE
:104930002270237030BC7047C8339BB242F20F75AF
:10494000AB4221F81030F5D9EDE770470C0C002090
:10495000100C002070B504460D461646FCF710FA00
:10496000324629462046BDE87040FCF7D3BB00BF65
:1049700008B54FF400410020FBF730FE08B1FCF70A
:10498000B9FBFBF7B1FDFDF71FFC08B1FCF7B2FB6B
:104990000020FDF733FCFCF709FE08B1FCF7AAFB89
:1049A0000F490220FFF77CFB08B1FCF7A3FBFFF7E0
:1049B000D5FB08B1FCF79EFB0A4B0B480B49C01A0C
:1049C000C008000440F00300FBF768FEFFF78CFC12
:1049D00020BF40BF20BFFCF705F80028FBD1F7E758
:1049E00061410000CC550000FC550000A0540000BF
:1049F00030B4904B1B78062B20D08F4B1B68062BB6
:104A000000F085808D4AD2F8883043F47003C2F8F4
:104A10008830BFF34F8FBFF36F8F4FF01023D3F861
:104A20000022002AC0F28681D3F80432002BC0F2A3
:104A30008181834B834A1A6030BC7047824B1B686C
:104A40001D07DAD1814B1B6803F0F002302A00F019
:104A50009E8003F0E003402B00F099807B4B1B68A5
:104A600003F0F003302B00F0B980784B1B6803F0A3
:104A7000F002302A56D003F0E003402B52D0734BA3
:104A80001B6803F0F003302B00F0B6806F4B1B68FF
:104A900003F0F002302A66D003F0E003402B62D02E
:104AA0006A4B1B6803F0F003302B00F0B580674BB6
:104AB0001B6803F0F003302B79D0644B1B6803F0C4
:104AC000F003502B00F0E480604B1B6803F0F00211
:104AD000302A37D003F0E003402B33D05B4B1B6808
:104AE00003F0F002302A03D003F0E003402B84D11E
:104AF0004FF08043D3F80024D20744BF6FF0010287
:104B0000C3F800244C4B1B68062B7FF47BAF504B43
:104B10001B68062B7FF476AF4E4A136843F480631C
:104B200013606FE74C4B434A1B6812784B49C3F341
:104B30004233062A0B6048D1434B1B6819077FF4A8
:104B40005CAF9CE7464A3B4B12681B78454902F034
:104B50004F02062B0A607FF450AF3B4B1B681907CE
:104B60007FF44BAFBAE74FF080430022C3F80C212B
:104B7000C3F81021C3F838252E4B1B78062B7FF481
:104B80003CAF314B1B681B077FF437AF88E7364BD0
:104B9000284A1B6812783549C3F30423062A0B60A0
:104BA000EAD1294B1B681C077FF427AF56E7304C2E
:104BB000204A304912783048304B052525600125C0
:104BC0000D6000243F2104601960062A7FF415AFB0
:104BD0001D4B1B681C077FF410AF6EE7154B284A6E
:104BE0001B7828491160062B7FF407AF164B1B6812
:104BF00018077FF402AF38E723490E4BCA681B78C9
:104C000022F08072062BCA607FF4F7AE0E4B1B6851
:104C10001A077FF4F2AE39E7064B1C4A1B780321D2
:104C2000062B11607FF4E9AE074B1B681D077FF46C
:104C3000E4AE3CE7E00F00F03001001000ED00E0D2
:104C40007C0000200090D003E40F00F0E80F00F09B
:104C5000340100103C170040440200103C050040A5
:104C600058020010E40E00402403001040350140BB
:104C70001056004088560040185600401456004018
:104C800074C007400DF0ADBAF0ED00E0A0050040A3
:104C90004FF08053404AD3F80414C2F82015D3F8DB
:104CA0000814C2F82415D3F80C14C2F82815D3F848
:104CB0001014C2F82C15D3F81414C2F83015D3F818
:104CC0001814C2F83415D3F81C14C2F84015D3F8E0
:104CD0002014C2F84415D3F82414C2F84815D3F8A8
:104CE0002814C2F84C15D3F82C14C2F85015D3F878
:104CF0003014C2F85415D3F83414C2F86015D3F840
:104D00003814C2F86415D3F83C14C2F86815D3F807
:104D100040142248C2F86C15D3F844140378C2F842
:104D20007015062B7FF469AE1D4B1B6818077FF4C6
:104D300064AEC9E61B4B0122C3F80425D3F8002456
:104D4000002AFBD04FF0102315221649C3F8002289
:104D5000D1F80034002BFBD04FF010221521114B5D
:104D6000C2F80412D3F80024002AFBD000220D4917
:104D7000C3F80425D1F80034002BFBD0BFF34F8FCC
:104D800009490A4BCA6802F4E0621343CB60BFF3DF
:104D90004F8F00BFFDE700BF00C00040E00F00F0F4
:104DA000E40F00F000E0014000ED00E00400FA052F
:104DB00008B5074B044613B10021AFF30080054B43
:104DC0001868836A03B19847204600F071F800BF65
:104DD00000000000B854000070B50D4E0D4CA41B2F
:104DE000A4100025A54209D10B4E0C4C00F0E2F9AD
:104DF000A41BA4100025A54205D170BD56F825308E
:104E000098470135EEE756F8253098470135F2E727
:104E100050020020500200205002002054020020C6
:104E2000044B054A1B681B6A002B08BF1346D3F8C6
:104E3000EC00704780000020E400002082B001B93F
:104E400001A942B14BB113780B601278101C18BF46
:104E5000012002B070471046FBE76FF00100F8E751
:104E600010B5431E0A44914200D110BD11F8014B08
:104E700003F8014FF7E702440346934200D170471D
:104E800003F8011BF9E7034613F8012B002AFBD1B5
:104E9000181A0138704749B1FF2A85BF8A23036079
:104EA0000A704FF0FF3098BF0120704708467047E6
:104EB000FEE700BF53B94AB9002908BF00281CBF4C
:104EC0004FF0FF314FF0FF3000F072B9ADF1080C38
:104ED0006DE904CE00F006F8DDF804E0DDE9022318
:104EE00004B070472DE9F047089E04468846002B21
:104EF0004BD18A42154667D9B2FA82F24AB1C2F161
:104F0000200701FA02F320FA07F7954047EA030861
:104F100094404FEA154E230CB8FBFEF71FFA85FCB0
:104F20000EFB178843EA084307FB0CF1994209D9A5
:104F3000EB1807F1FF3080F01B81994240F2188195
:104F4000023F2B445B1AA4B2B3FBFEF00EFB1033FE
:104F500044EA034400FB0CFCA44509D92C1900F1D8
:104F6000FF3380F00781A44540F2048102382C44CD
:104F700040EA0740A4EB0C0400271EB1D4400023F4
:104F8000C6E900433946BDE8F0878B4209D9002EB7
:104F900000F0EB800027C6E9000138463946BDE83D
:104FA000F087B3FA83F7002F47D18B4202D38242B6
:104FB00000F2FA80841A61EB030301209846002E68
:104FC000E0D0C6E90048DDE702B9FFDEB2FA82F2BE
:104FD000002A40F08F80491B4FEA154E1FFA85F8D2
:104FE0000127B1FBFEFC230C0EFB1C1143EA01431D
:104FF00008FB0CF1994207D9EB180CF1FF3002D2F3
:10500000994200F2CD808446591AA3B2B1FBFEF05A
:105010000EFB101443EA044408FB00F8A04507D92E
:105020002C1900F1FF3302D2A04500F2B6801846D9
:10503000A4EB080440EA0C409FE7C7F1200CBB40FA
:1050400022FA0CFE4EEA030E01FA07F420FA0CF5E0
:1050500021FA0CF34FEA1E482543B3FBF8F92C0C58
:1050600008FB19331FFA8EFA44EA034309FB0AF4DA
:105070009C4202FA07F200FA07F10BD91EEB030378
:1050800009F1FF3080F087809C4240F28480A9F1D2
:10509000020973441B1BADB2B3FBF8F008FB1033DD
:1050A00045EA034400FB0AFAA24508D91EEB0404B2
:1050B00000F1FF336BD2A24569D90238744440EA4B
:1050C0000940A0FB0289A4EB0A044C45C2464B46AA
:1050D00054D351D0002E69D0B1EB0A0564EB030420
:1050E00004FA0CFCFD40FC404CEA0505C6E90054FE
:1050F000002747E7C2F1200320FA03F7954001FAA1
:1051000002F021FA03F34FEA154E3843010CB3FBCA
:10511000FEF71FFA85F80EFB173341EA034107FB40
:1051200008F38B4204FA02F407D9691807F1FF3C2F
:105130002FD28B422DD9023F2944CB1A81B2B3FB27
:10514000FEF00EFB103341EA034100FB08F38B42F3
:1051500007D9691800F1FF3C17D28B4215D90238E4
:105160002944C91A40EA07473BE73746304609E772
:105170000746E7E61846FBE64145ABD2B8EB020A24
:1051800069EB0E0201381346A4E76046E9E71846CA
:1051900095E76746D1E781467CE702382C4447E72C
:1051A000ACF1020C2B442FE7384608E73746E9E616
:1051B000704700BFF8B500BFF8BC08BC9E467047FA
:1051C000F8B500BFF8BC08BC9E467047FFFFFFFF64
:1051D000FFFFFFFFFFFFFFFFFFFFFFFF00000000DB
:1051E000000000000000D60106010000D503000009
:1051F00041040000D1030000756172745F6C6F6739
:105200005F6261636B656E6400000000B0070020A0
:105210007F000000300800204261636B656E64739C
:1052200020666C7573686564000000006170700032
:1052300088520000B852000068520000C0520000BE
:10524000C8520000D0520000D8520000E0520000C6
:10525000E852000020253032780000002020200095
:105260007C000000256300001B5B313B33316D0087
:1052700025734C6F67732064726F707065642028AB
:1052800025642925730D0A001B5B306D00000000AA
:10529000257300003C25733E2025733A2000000052
:1052A0000D0A000000000000F0520000F85200005B
:1052B00000530000085300001B5B313B33306D008E
:1052C0001B5B313B33326D001B5B313B33336D0075
:1052D0001B5B313B33346D001B5B313B33356D0061
:1052E0001B5B313B33366D001B5B313B33376D004D
:1052F0006572726F720000007761726E696E67008E
:10530000696E666F000000006465627567000000EA
:1053100011121314500800200000000000000000CB
:105320000338FDD87047000030313233343536371A
:105330003839414243444546636C6F636B0000005B
:10534000434C4F434B0000004750494F5445000029
:105350005052530050574D00554152540000000028
:1053600055415254450000000D000300E53C00008B
:105370000E000300E53C00000F000300E53C0000C8
:1053800010000300E53C0000C00A0020E00A0020F5
:10539000000B0020E9420000B54600007542000005
:1053A0006D430000014200009193949207070000B2
:1053B000093D02005C000020100000000000000019
:1053C0000000000091FFFFFF07070000A861000038
:1053D0005000002006000000000000000400000053
:1053E00091929493070400001027020034000020DB
:1053F000080000000100000000000000440B002035
:10540000640000000000000000000000500C0020BC
:10541000020000009500000000000000500C002079
:10542000020000003100000000000000440B0020DA
:1054300064000000020000000000000091929394BC
:1054400007050000102700001C0C002019000000B8
:1054500001000000000000004400002006000000E1
:10546000040000000000000044656D6F2031000062
:1054700044656D6F2032000044656D6F203300007D
:1054800044656D6F2034000044656D6F2035000069
:10549000100C0020040000000000000000000000CC
:1054A00050574D206578616D706C65207374617222
:1054B0007465642E00000000840000204300504FFB
:1054C000534958002E00002020202020202020209A
:1054D00028282828282020202020202020202020A4
:1054E00020202020202020881010101010101010D4
:1054F0001010101010101004040404040404040418
:10550000041010101010101041414141414101019F
:10551000010101010101010101010101010101017B
:105520000101101010101010424242424242020289
:10553000020202020202020202020202020202024B
:1055400002021010101020000000000000000000F7
:10555000000000000000000000000000000000004B
:10556000000000000000000000000000000000003B
:10557000000000000000000000000000000000002B
:10558000000000000000000000000000000000001B
:10559000000000000000000000000000000000000B
:1055A00000000000000000000000000000000000FB
:1055B00000000000000000000000000000000000EB
:0C55C000000000000000000000000000DF
:1055CC0040530000000000004853000000000000A1
:1055DC005053000000000000545300000000000075
:1055EC005853000000000000605300000000000051
:1055FC002C52000000000303385300000000000090
:10560C00EC51000000000000F851000014000020D4
:10561C00BC020020840300208C030020C402002064
:04562C001800000062
:0856300010ACFF7F0100000037
:1056380000000000002000400000000000200040A2
:105648000000000000000000FF00000000C0014052
:10565800000000000010024001000000002002408D
:105668000200000000000000008000000000008030
:105678000080008000000080000000800000000022
:105688000080000000800000008000000080000012
:105698000000000000000080000000000000000082
:1056A8000080000000000000000000800090D0038F
:1056B800840000200000000000000000000000003E
:1056C80000000000000000000000000000000000D2
:1056D80000000000000000000000000000000000C2
:1056E80000000000000000000000000000000000B2
:1056F80000000000000000000000000000000000A2
:105708000000000000000000000000000000000091
:10571800000000004300000000000000000000003E
:105728000000000000000000000000000000000071
:10573800000000004300000000000000000000001E
:105748000000000000000000000000000000000051
:1057580000000000430000000000000000000000FE
:105768000000000000000000000000000000000031
:1057780000000000430000000000000000000000DE
:105788000000000000000000000000000000000011
:1057980000000000430000000000000000000000BE
:1057A80000000000000000000000000000000000F1
:1057B800000000004300000000000000000000009E
:1057C80000000000000000000000000000000000D1
:1057D800000000004300000000000000000000007E
:1057E80000000000000000000000000000000000B1
:1057F80000000000974E00003D4E00000000000031
:10580800C6540000C4540000C5540000C55400002C
:10581800C5540000C5540000C5540000C55400001C
:10582800C5540000C5540000C5540000FFFFFFFF29
:10583800FFFFFFFFFFFFFFFFFFFF000001004153D5
:10584800434949000000000000000000000000007B
:1058580000000000000000000000000000004153AC
:10586800434949000000000000000000000000005B
:105878000000000000000000000000000000000020
:085888002502000001020000EE
:04000003000002B542
:00000001FF
