:10000000000001203921000061210000632100006F
:100010006521000067210000692100000000000048
:100020000000000000000000000000006B21000044
:100030006D210000000000006F2100007121000010
:100040007321000073210000753A00007321000045
:10005000732100007321000073210000D5460000C9
:100060007321000073210000732100007321000040
:100070007321000073210000732100007321000030
:100080007321000073210000732100007321000020
:100090007321000073210000732100007321000010
:1000A0007321000073210000732100007321000000
:1000B000DD5200007321000000000000000000007D
:1000C0007321000099530000555400007321000073
:1000D0007321000073210000732100000000000064
:1000E0000000000000000000000000000000000010
:1000F0000000000000000000000000000000000000
:1001000000000000000000000000000000000000EF
:1001100000000000000000000000000000000000DF
:1001200000000000000000000000000000000000CF
:1001300000000000000000000000000000000000BF
:1001400000000000000000000000000000000000AF
:10015000000000000000000000000000000000009F
:10016000000000000000000000000000000000008F
:10017000000000000000000000000000000000007F
:10018000000000000000000000000000000000006F
:10019000000000000000000000000000000000005F
:1001A000000000000000000000000000000000004F
:1001B000000000000000000000000000000000003F
:1001C000000000000000000000000000000000002F
:1001D000000000000000000000000000000000001F
:1001E000000000000000000000000000000000000F
:1001F00000000000000000000000000000000000FF
:1002000010B5054C237833B9044B13B10448AFF350
:1002100000800123237010BD480200200000000070
:10022000E077000008B5034B1BB103490348AFF367
:10023000008008BD000000004C020020E0770000B4
:10024000154B002B08BF134B9D46A3F5803A0021A8
:100250008B460F461348144A121A00F063F80F4BEE
:10026000002B00D098470E4B002B00D09847002061
:10027000002104000D000D48002802D00C48AFF307
:10028000008000F02BF82000290004F04FFC00F063
:1002900011F800BF0000080000000120000000006D
:1002A0000000000048020020000C002000000000B8
:1002B0000000000008B5074B044613B10021AFF35E
:1002C0000080054B1868836A03B19847204601F007
:1002D00031FF00BF000000003C72000070B50D4E01
:1002E0000D4CA41BA4100025A54209D10B4E0C4CAB
:1002F00006F098FFA41BA4100025A54205D170BDEF
:1003000056F8253098470135EEE756F825309847DE
:100310000135F2E73C0200203C0200203C020020B4
:100320004002002002440346934200D1704703F884
:10033000011BF9E72DE9FF4755EC104B0D9FDDF848
:1003400030A0002D0E4691461946B8BF22462B46D6
:1003500027F02007BBBF05F100431D4600232D23D6
:10036000B8BF1446462F0B7004D0452F00D101367C
:10037000022100E0032103AB019302AB009332465C
:10038000534645EC104B00F0C7FC472F804602D186
:1003900019F0010F26D0462F08EB060911D198F865
:1003A0000030302B0AD1002200232046294606F0D7
:1003B000C9FE18B9C6F10106CAF80060DAF80030C3
:1003C0009944002200232046294606F0BBFE38B996
:1003D0003022039B4B4505D2591C03911A70F8E754
:1003E000CDF80C90039B0E9AA3EB080340461360D4
:1003F00004B0BDE8F087F7B500290446BABF49420A
:100400002D232B23092904F8022B437020DD0DF145
:1004100007031F460A2691FBF6F506FB151130313E
:10042000092D03F8011C03F1FF32294609DC3031A4
:10043000023B02F8011CBB42224604D3101A03B04F
:10044000F0BD1346E7E713F8012B04F8012BF2E7A0
:10045000302319448370021DC170EFE72DE9F04F7E
:100460008DB00C46DDF8588016461F46054601F053
:100470000BFA03680493184600F0B8FB00230A93B4
:10048000D8F800300590073323F0070303F1080282
:1004900094F818A0D4F800B0C8F80020D3E90023DD
:1004A000C4E91223D4E9128929F000430793CDF857
:1004B00018804FF0FF32A74BDDE9060106F074FE0D
:1004C00070BB4FF0FF32A34BDDE9060106F04EFE94
:1004D00030BB002200234046494606F03DFE10B1E5
:1004E0002D2384F843309C4A9C4BBAF1470F8CBFB4
:1004F0009046984603232BF00402236122604FF0BC
:100500000009009733460BAA2146284600F0E6F979
:10051000013040F08D804FF0FF300DB0BDE8F08F1E
:1005200042464B464046494606F03EFE10B18C4AD4
:100530008C4BDAE761684B1C4BF480620AA83ED111
:10054000062363600023CDE9020309AB009349EC65
:10055000108B0DF123032260CDF804A061682846BA
:10056000FFF7E8FE0AF0DF03472B804609D1099B1D
:10057000D81C02DB6268934247DDAAF1020A5FFAE7
:100580008AFABAF1650F099924D80139524604F163
:1005900050000991FFF72FFF0A9A1318012A81468C
:1005A000236102DC2268D10701D5013323619DF864
:1005B0002330002BA5D02D2384F84330A1E7BAF1D6
:1005C000670F00F07781BAF1470FBBD10029B9D18D
:1005D0000123B6E7BAF1660F19D1002963680CDD73
:1005E000216113B92268D20702D501330B4423617C
:1005F000099BA3654FF00009D9E713B92268D0071A
:1006000001D50233F3E70123F1E74FF0670ADDE993
:100610000932934205DB22682361D107E8D5013313
:10062000E5E7002BD4BFC3F1020301231344DEE747
:1006300023685A0507D42369424631462846B847FD
:1006400001302BD167E7BAF1650F40F2DC80002260
:100650000023D4E9120106F075FD002833D00123F0
:10066000414A31462846B84701303FF454AFDDE9EE
:1006700009239A4202DB2368D8070FD5DDE904235A
:1006800031462846B84701303FF445AF4FF00008E7
:1006900004F11A090A9B013B434509DC23689B07C7
:1006A00000F10381E0680B9B9842B8BF184634E71D
:1006B00001234A4631462846B84701303FF42BAF64
:1006C00008F10108E6E7099B002B2BDC0123264AF1
:1006D00031462846B84701303FF41DAF099B23B986
:1006E0000A9B13B92368D907D8D5DDE9042331461D
:1006F0002846B84701303FF40EAF4FF0000904F12F
:100700001A0A099B5B424B4501DC0A9B94E70123D3
:10071000524631462846B84701303FF4FCAE09F155
:100720000109EEE70A9AA36D9A42A8BF1A46002A69
:10073000914607DD1346314642462846B847013008
:100740003FF4E9AE04F11A034FF0000B29EAE9790E
:10075000069315E0FFFFEF7F447200004072000037
:100760004C72000048720000507200000123069A8B
:1007700031462846B84701303FF4CDAE0BF1010BAE
:10078000D4F858A0AAEB09035B45EFDCDDE90923A7
:100790009A42D04415DB2368DA0712D40A9B0999E0
:1007A000A3EB0A02A3EB010A9245A8BF9246BAF155
:1007B000000F0EDC4FF000082AEAEA7A04F11A0969
:1007C00019E0DDE9042331462846B8470130E5D178
:1007D000A1E65346424631462846B8470130E9D1A2
:1007E00099E601234A4631462846B84701303FF48E
:1007F00092AE08F10108DDE909239B1AA3EB0A0375
:100800004345EEDC4AE70A9A012A01DCDB073AD5C8
:100810000123424631462846B84701303FF47BAEBB
:10082000DDE9042331462846B847013008F10108C4
:100830003FF471AE0A9B002203F1FF3AD4E91201A2
:10084000002306F07FFCC8B953464246314628468D
:10085000B84701300ED15EE60123524631462846A4
:10086000B84701303FF457AE08F101080A9B013B3D
:100870004345F1DC4B4604F15002DEE64FF0000840
:1008800004F11A0AF2E70123DFE701234A46314661
:100890002846B84701303FF43EAE08F10108E3684E
:1008A0000B9A9B1A4345F0DCFCE64FF0000804F17C
:1008B0001909F4E700293FF48BAE0023CDE90203C8
:1008C00009AB009349EC108B2260CDF804A00DF128
:1008D00023032846FFF72EFD804648E62DE9F04722
:1008E00091461F468A680B69DDF820809342B8BFA5
:1008F0001346C9F8003091F8432006460C4612B161
:100900000133C9F800302368990642BFD9F8003096
:100910000233C9F80030256815F0060507D104F147
:10092000190AE368D9F800209B1AAB4228DC94F836
:1009300043302268003318BF012392062DD404F1FE
:10094000430239463046C047013020D02368E5686D
:10095000D9F8002003F00603042B08BFAD1AA368E2
:1009600022690CBF25EAE57500259342C4BF9B1A96
:10097000ED184FF000091A344D451AD1002008E057
:100980000123524639463046C047013003D14FF06B
:10099000FF30BDE8F0870135C3E7E1185A1C30206D
:1009A00081F84300224494F8451082F84310023342
:1009B000C5E70123224639463046C0470130E6D01C
:1009C00009F10109D8E700002DE9F04301F1430CDA
:1009D0000C46097E85B06E291746064698460C9A45
:1009E00000F0B38022D8632936D00AD8002900F05D
:1009F000B980582900F0838004F1420584F8421040
:100A000032E0642901D06929F6D12068136805060F
:100A100003F104012AD51B681160002B03DA2D2293
:100A20005B4284F843206F480A2239E0732900F0C2
:100A30009D8008D86F2920D07029DDD1236843F02C
:100A40002003236003E0752917D07829D4D17823B7
:100A500084F84530644855E01368191D1B6811601F
:100A600004F1420584F8423001238CE01B681160D8
:100A700010F0400F18BF1BB2CFE713682568181D90
:100A80001060280601D51B6802E06806FBD51B88AC
:100A900054486F2914BF0A220822002184F8431009
:100AA0006568A560002DC0F29580216821F00401E1
:100AB0002160002B3DD1002D40F08E806546082A34
:100AC0000BD12368DB0708D5236962689A42DEBF31
:100AD000302305F8013C05F1FF35ACEB050323613C
:100AE000CDF800803B4603AA21463046FFF7F6FECC
:100AF00001304DD14FF0FF3005B0BDE8F0833948EB
:100B000084F84510136821681D1D1B6815600A06CE
:100B10000BD5CA0744BF41F0200121601BB92268F0
:100B200022F0200222601022B7E74D0648BF9BB298
:100B3000EFE76546B3FBF2F102FB1133C35C05F846
:100B4000013D0B460029F5D1B9E7136825686169B5
:100B5000181D106028061B6801D5196002E06A069E
:100B6000FBD51980002323616546B9E71368191D79
:100B700011601D6862680021284600F0A1FE08B1DE
:100B8000401B606063682361002384F84330A7E75B
:100B900023692A4639463046C0470130AAD0236827
:100BA0009B0713D4E068039B9842B8BF1846A3E79D
:100BB00001234A4639463046C04701309AD00135B4
:100BC000E368039A9B1AAB42F2DCEBE7002504F1E1
:100BD0001909F5E7002BACD1037884F8423004F111
:100BE00042056CE75272000063720000034613F87E
:100BF000012B002AFBD1181A013870472DE9F74F55
:100C000003690C69A3428046C0F28280013C01F175
:100C100014074FEA840C00F1140657F8245056F8D4
:100C2000240006EB0C03013507EB0C090193B0FB24
:100C3000F5F595B34FF0000A3846B646D34650F85E
:100C4000042B93B205FB03A34FEA134A9BB2ABEB11
:100C50000303120CDEF800B005FB02A213FA8BF3BB
:100C60004FEA124A1FFA82FBDEF80020CBEB124259
:100C700002EB23429BB243EA024381454FEA224BF7
:100C80004EF8043BDBD256F80C3033B9019B043BE1
:100C90009E421A4630D3C8F81040404601F080F812
:100CA000002825DB013530464FF0000C57F8042BA7
:100CB000D0F800E093B2ACEB0303120C13FA8EF3FE
:100CC000C2EB1E4202EB23429BB243EA0243B94508
:100CD0004FEA224C40F8043BE8D256F8242006EBB9
:100CE00084032AB9043B9E421A460BD3C8F810402D
:100CF000284603B0BDE8F08F1268043B002ACAD131
:100D0000013CC5E71268043B002AEFD1013CEAE749
:100D10000020EEE7000000002DE9F04F57EC106BCB
:100D200097B0456A069104460B921293DDF88080D5
:100D3000CDE900673DB9102000F0B4FD6062C0E964
:100D400001550560C560636A196851B15A684A6007
:100D5000012393408B60204600F041FE636A00222D
:100D60001A603B1EBBBF23F0004301930023012206
:100D7000ACBFC8F80030C8F80020AF4BDDF80480E5
:100D800033EA080314D1129A42F20F731360009BE6
:100D900023B9C8F31300002800F04285219BDFF837
:100DA000ACB2002B00F044850BF1030300F03EBD14
:100DB000DDE90067002200233046394606F0C2F91B
:100DC000814668B1129A01231360219B002B00F029
:100DD00024859A4B219A03F1FF3B136000F028BD54
:100DE00014AA15A947EC106B204601F050F8C8F37F
:100DF0000A550490002D7CD0C7F3130343F07F5BAA
:100E0000B2464BF4401BA5F2FF35CDF84C900022C2
:100E10008B4B5046594605F075FD81A3D3E900235D
:100E200005F028FF80A3D3E9002305F06DFD0646F9
:100E300028460F4605F0B4FE7DA3D3E9002305F054
:100E400019FF02460B463046394605F05DFD064661
:100E50000F4606F0BFF9002282460023304639468D
:100E600006F07AF948B1504605F09AFE32463B4604
:100E700006F068F908B90AF1FF3ABAF1160F59D825
:100E8000704901EBCA01DDE90023D1E9000106F058
:100E900081F9002850D00AF1FF3A00230F93149BE8
:100EA0005D1BB5F1010849BFC5F10103002305939E
:100EB0004FF0000858BF0593BAF1000F3EDB002346
:100EC000D044CDF838A00793069B092B00F2908000
:100ED000052BC4BF043B0693069BA3F10203CCBFC2
:100EE00000250125032B00F28F80DFE803F07D7FD2
:100EF0003171DDE914531D4405F23240202813DD21
:100F0000C0F14000009B08FA00F805F2124023FAF5
:100F100000F048EA000005F033FE01238246A1F10B
:100F2000F87B013D139372E7009BC0F1200003FAA8
:100F300000F0F0E70123B1E70F90B0E7059BA3EBCA
:100F40000A030593CAF10003079300230E93BBE73E
:100F500001230A930B9B002B59DD02939946666A85
:100F600000227260042202F114009842716853D981
:100F7000204600F000FD636A3060B9F10E0FD3F82F
:100F800000B000F2E680002D00F0E3809DED007BD4
:100F9000BAF1000F8DED107B74DD2A4A0AF00F03C1
:100FA00002EBC30393ED007B4FEA2A16F0068DEDAA
:100FB000087B65D5244BDDE91001D3E9082305F052
:100FC00083FFCDE9000106F00F0603251E4F4CE01C
:100FD00001230A930B9B534403F1010902934B46EF
:100FE000012BB8BF0123BAE70023B2E70023F0E7E3
:100FF0000125002306930A954FF0FF33029399468B
:10100000002212230B92AAE701230A93F4E701239B
:10101000029399461A46F5E7013171605200A2E742
:1010200061436F63A787D23FB3C8608B288AC63FEE
:10103000FB799F501344D33F0000F07F51720000B2
:101040000000F83FB0720000887200007D7200005E
:10105000F10708D5DDE90801D7E9002305F00AFE0C
:10106000CDE90801013576100837002EF0D1DDE911
:101070000823DDE9000105F027FFCDE900011AE0B2
:101080000225A3E700F0A080CAF100069F4BA04F05
:1010900006F00F0203EBC203D3E90023DDE91001E0
:1010A00005F0E8FDCDE90001361100230225002EF0
:1010B0007FD1002BE1D10F9B002B00F08780DDE971
:1010C00000670022934B3046394606F045F8002869
:1010D0007CD0B9F1000F79D0029B002B35DD0AF1ED
:1010E000FF330893394600228B4B304605F0C2FD92
:1010F000CDE90001029F0135284605F051FDDDE9EB
:10110000002305F0B7FD0022844B05F0FDFB0546EA
:10111000A1F15076002F5DD10022814BDDE9000165
:1011200005F0F0FB2A463346CDE9000106F032F81F
:10113000002840F088822A4606F10043DDE90001DC
:1011400006F00AF8002840F07C82DDE91023CDE9A2
:101150000023159B002BC0F25081BAF10E0F00F353
:101160004C816A4B03EBCA0393ED007B0B9B002B76
:101170008DED027B80F2D880B9F1000F00F3D480AE
:1011800040F05E820022664B51EC170B05F072FDB9
:10119000DDE9002305F0F4FF4F464E46002840F0FD
:1011A000348231230BF101058BF800300AF1010A7A
:1011B0002FE2F20705D5D7E9002305F05BFD0135E5
:1011C00001237610083772E7022574E7CDF820A0D6
:1011D0004F4691E74D4B03EBC70353E902010A9BCE
:1011E000002B47D002460B4600204E4905F06CFE0E
:1011F0002A46334605F086FBCDE90C015D46DDE964
:10120000000105F0E7FF064605F0CAFC02460B4662
:10121000DDE9000105F076FB303605F8016BDDE90C
:101220000C23CDE9000105F097FF002863D1DDE92B
:1012300000230020374905F065FBDDE90C2305F0AC
:101240008BFF002840F0B780A5EB0B039F427FF790
:101250007CAF0022304BDDE90C0105F00BFD0022D4
:10126000CDE90C012C4BDDE9000105F003FDCDE9D2
:101270000001C4E72A46334605F0FCFCCDE90C0129
:101280000BEB07055E46DDE9000105F0A3FF07460D
:1012900005F086FC303702460B46DDE9000105F01B
:1012A00031FB06F8017BAE42CDE900014FF00002B0
:1012B00026D11C4BDDE90C0105F026FB02460B464E
:1012C000DDE9000105F066FF002874D1DDE90C239B
:1012D0000020144905F016FB02460B46DDE900012B
:1012E00005F03AFF00283FF430AF15F8013C302BF1
:1012F00005F1FF3202D0DDF820A04AE01546F4E700
:10130000054B05F0B7FCCDE90001BCE7B072000069
:10131000887200000000F03F0000244000001C40E4
:10132000000014400000E03FDDE900675D46DDE9B4
:1013300002233046394605F0C7FD05F04BFF8046D5
:1013400005F02EFCDDE9022305F094FC02460B4675
:101350003046394608F1300605F0D4FA05F8016B3D
:10136000A5EB0B06B14502460B4639D105F0CCFA88
:10137000DDE9022306460F4605F00CFFC8B9DDE99A
:1013800002233046394605F0DDFE10B118F0010F9A
:101390000FD10499204600F022FB0023129A2B70F3
:1013A0000AF101031360219B002B00F041821D60B4
:1013B0003EE2CDF820A015F8012C392A05F1FF33C3
:1013C00008D19B450AD1089B0133089330238BF841
:1013D00000305B461A7801321A708CE71D46EAE746
:1013E00000229B4B05F046FC0022002306460F46D8
:1013F00005F0A8FE00289AD0CBE70A9A002A00F050
:101400008B80069A012A6EDC139A002A67D003F2B9
:101410003343079F059D059A01211A4420460592F2
:10142000984400F07CFB0646002D0CDDB8F1000F5F
:1014300009DD4545059A2B46A8BF4346D21A0592B9
:10144000ED1AA8EB0308079BEBB10A9B002B67D0B2
:101450008FB131463A46204600F000FC049A01461E
:101460000646204600F064FB04990890204600F0F0
:10147000B6FA089B0493079BDA1B04D00499204614
:1014800000F0ECFB04900121204600F048FB0E9B8D
:101490000746002B00F0D0811A460146204600F096
:1014A000DDFB069B012B074640DC009B002B39D15E
:1014B000019BC3F31303002B36D1019B23F00043A0
:1014C0001B0D1B052BB1059B0133059308F101088A
:1014D000012307930E9B002B2AD1012030E0149B9F
:1014E000C3F1360395E7079B09F1FF37BB42BFBF46
:1014F000079B0797FA1A0E9BBBBF9B180E93DF1B27
:101500000027B9F1000FB5BF059B059DA3EB0905A9
:101510004B46B8BF00237EE7079F059D0A9E83E7E1
:10152000079AABE70023D4E7009BD2E70023079399
:101530003B6907EB8303186900F0A3FAC0F12000B0
:10154000404410F01F0047D0C0F12003042B3BDDC6
:10155000059BC0F11C000344059305448044059B92
:10156000002B05DD1A460499204600F0C5FB0490C7
:10157000B8F1000F05DD39464246204600F0BCFBBD
:1015800007460F9B53B33946049800F009FC002826
:1015900024DA00230A220499204600F037FA0A9B35
:1015A00004900AF1FF3A002B00F04D8100233146F0
:1015B0000A22204600F02AFA029B002B06464FDC46
:1015C000069B022B4CDD11E0C9D0059A1C331A444E
:1015D00005921D449844C2E70346F6E7B9F1000FAF
:1015E00038DC069B022B35DDCDF80890029B63B9F1
:1015F00039460522204600F009FA014607460498BC
:1016000000F0CEFB00283FF7CCAD0B9B5D466FEAA8
:10161000030A4FF000093946204600F0E0F9002E99
:101620003FF4B7AEB9F1000F05D0B14503D049463C
:10163000204600F0D4F93146204600F0D0F9A8E663
:1016400000273E46E1E7DDF820A03E46A9E500BFC1
:10165000000024400A9BCDF80890002B00F0FA808F
:10166000002D05DD31462A46204600F045FB0646A2
:10167000079B002B4CD07168204600F07CF9326942
:1016800002320546920006F10C010C3000F068F9B8
:1016900001222946204600F02FFB009BCDF814B014
:1016A00003F00103B1460793064639460498FFF755
:1016B000A5FA4946054600F13008049800F070FB91
:1016C000324600903946204600F084FBC36802464B
:1016D00003BB01460890049800F062FB089A034699
:1016E00011462046089300F07AF9089BA3B9069AA0
:1016F00092B9079A82B9B8F1390F29D0009B002B13
:1017000001DD05F13108059B5D1C83F8008082E74F
:101710003046C2E70123E3E7009A002A04DB25D123
:10172000069A1ABB079A0ABB002BECDD012204992A
:10173000204600F0E1FA3946049000F031FB002821
:1017400003DCE0D118F0010FDDD0B8F1390FD8D1AA
:10175000059B059A5D1C3923137015F8013C392B44
:1017600005F1FF324FD00133137054E7059A002B77
:1017700002F1010506DDB8F1390FE9D008F10108E1
:10178000059BC2E7029A05F8018CA5EB0B03934277
:1017900021D000230A220499204600F037F9B145F0
:1017A00004904FF000034FF00A024946204605D14D
:1017B00000F02CF981460646059576E700F026F9FB
:1017C0003146814600230A22204600F01FF90646D2
:1017D000F2E74FF0000901220499204600F08CFA4C
:1017E0003946049000F0DCFA0028B6DC02D118F08B
:1017F000010FB2D115F8013C302B05F1FF327FF417
:101800000AAF1546F6E7934505D131230AF1010ADF
:101810008BF80030FFE615469FE7DFF864B007E07D
:10182000219BDFF860B01BB10BF10803219A136014
:10183000584617B0BDE8F08F069B012B7FF735AEF9
:101840000E9B079349E6029B002B03DC069B022BB1
:101850003FF7CCAE5D4639460498FFF7CFF900F16B
:10186000300805F8018B029AA5EB0B039A42B0DD14
:1018700000230A220499204600F0C8F80490EAE701
:101880005072000074720000044B1B68186A044B0D
:10189000002808BF1846F030704700BF0000002045
:1018A00064000020024B0146186800F09BBB00BF9B
:1018B0000000002000000000000000000000000008
:1018C00001F0FF01102A2BDB10F0070F08D010F8F1
:1018D000013B013A8B422DD010F0070F42B3F6D1F5
:1018E000F0B441EA012141EA014122F007047FF00E
:1018F00000070023F0E80256083C85EA010586EA65
:10190000010685FA47F5A3FA87F586FA47F6A5FAA0
:1019100087F68EB9EED1F0BC01F0FF0102F00702AC
:1019200032B110F8013B013A83EA010313B1F8D157
:101930000020704701387047002D06BF3546033838
:10194000073815F0010F07D1013015F4807F02BF71
:10195000013015F4C03F0130F0BC0138704700BFC2
:1019600010B5431E0A44914200D110BD11F8014B3D
:1019700003F8014FF7E770B5456A04460E463DB9D6
:101980001020FFF78FFF6062C0E901550560C56058
:10199000656AEB6883B1636ADB6853F82600B8B9FF
:1019A000012101FA06F56A1D9200204600F0BEFAF8
:1019B00060B1C0E901650EE021220421204600F05B
:1019C000B5FA636AE860DB68002BE4D1002070BDE3
:1019D000026843F826200023C0E90333F7E770B517
:1019E000446A06460D463CB91020FFF75BFF706263
:1019F000C0E901440460C4603DB1736A6A68DB6891
:101A000053F82210296043F8225070BD2DE9F041AF
:101A10000D691F4606460C4601F1140C0023DCF844
:101A2000000081B202FB01710F0C000C02FB007080
:101A300089B2013301EB00419D424FEA10474CF857
:101A4000041BECDCD7B1A368AB4212DC6168304602
:101A50000131FFF790FF2269023204F10C01804648
:101A600092000C30FFF77CFF21463046FFF7B7FFAE
:101A7000444604EB850301355F6125612046BDE8DE
:101A8000F081020C12040346B2B90304102013F0D3
:101A90007F4F04BF1B02083013F0704F04BF1B01BF
:101AA000043013F0404F04BF9B000230002B06DBD4
:101AB0005B0003D5013070470020E8E72020704725
:101AC000036813F0070201460BD0DA0723D4980706
:101AD00049BF5B089B0801200B605CBF0B600220C4
:101AE000704798B2A8B91B0C102013F0FF0F04BF69
:101AF0001B0A08301A0704BF1B0904309A0704BFE9
:101B00009B080230DA0702D45B0806D001300B6074
:101B100070471046E9E7002070472020704710B555
:101B20000C460121FFF727FF01224461026110BD2D
:101B30002DE9F74F14460A6923699A42B8BF0B464C
:101B40008846BCBFA0461C46D8F81070D4F8109048
:101B5000D8F80830D8F8041007EB0906B342B8BF2C
:101B60000131FFF708FF00F1140505EB860E2B4647
:101B70000022734516D304F1140208F1140102EB9C
:101B8000890301EB87070093009B019293420CD8D5
:101B9000002E03DD5EF8043D002B5DD0066103B02E
:101BA000BDE8F08F43F8042BE3E7B2F800B0BBF1D7
:101BB000000F23D08946AC464FF0000859F8044B7B
:101BC000DCF800A0A3B21FFA8AFA0BFB03A34FEACA
:101BD000144ADCF8004043444FEA14480BFB0A84E3
:101BE00004EB1344E2469BB243EA04434F454FEAF9
:101BF00014484AF8043B2BD8CCF80480019BB3F876
:101C000002A00432BAF1000F20D02B688946A84602
:101C10004FF0000BB9F800C0B8F802400AFB0C44C2
:101C20005C44C4469BB243EA04434CF8043B59F875
:101C3000043BB8F804B01B0C0AFB03B303EB1443DA
:101C40004F454FEA134B05D8C8F8043004359BE7DD
:101C5000D446B3E7E046DDE7013E99E72DE9F843D6
:101C6000154612F0030206460F4607D0013A214CF2
:101C7000002354F82220FFF7C9FE0746AD1035D0E7
:101C8000746A3CB91020FFF70DFE7062C0E9014490
:101C90000460C460D6F82480D8F808404CB940F2FB
:101CA00071213046FFF73BFF0023C8F808000446C7
:101CB00003604FF00008EB070AD53946224630464C
:101CC000FFF736FF394681463046FFF788FE4F461C
:101CD0006D100BD0206838B9224621463046FFF7F8
:101CE00027FF2060C0F800800446E4E73846BDE8DE
:101CF000F88300BF787300002DE9F0470C464FEAE7
:101D0000621A236949680AEB0309A3680746164665
:101D100009F10105AB4232DB3846FFF72CFE002308
:101D2000804600F114011A4653452BDB20692AEA4C
:101D3000EA7A04F1140316F01F0201EB8A0103EBA7
:101D4000800C25D0C2F1200E00201E688A469640E5
:101D500030434AF8040B53F8040B9C4520FA0EF06C
:101D600014D8486008B109F10205013D3846C8F8A9
:101D700010502146FFF733FE4046BDE8F0870131A1
:101D80005B00C7E741F823200133CDE75146DCE78C
:101D9000043953F8042B41F8042F9C45F9D8E4E7A3
:101DA00003690A699B1A30B50CD1920014301431C2
:101DB0008418114454F8045D51F8042D954203D061
:101DC00005D30123184630BDA042F3D3FAE74FF004
:101DD000FF33F7E72DE9F0470D4607461146284641
:101DE0001446FFF7DDFF061E08D131463846FFF7DF
:101DF000C2FD0123C0E90436BDE8F087A4BF234635
:101E00002C4638466168A6BF1D4600260126FFF70E
:101E1000B2FD2B69C660266905F1140904F11402AC
:101E200002EB860709EB830800F114054FF0000E62
:101E300052F804AB59F8044B1EFA8AF1A3B2C91A3E
:101E4000230CC3EB1A4303EB214389B24FEA234E21
:101E5000C84541EA0343944645F8043BE8D8BC45ED
:101E600004D355F8043D83B10661C5E75CF8041B53
:101E70001EFA81F31A1402EB11429BB243EA0243A9
:101E80004FEA224E45F8043BE9E7013EE9E72DE938
:101E9000F7430E46012159EC108B1546FFF76BFDF9
:101EA000C9F30A540746C9F3130334BB0193B8F1CD
:101EB000000327D002A840F8083DFFF701FE009973
:101EC000F0B1019AC0F1200302FA03F30B43C240C0
:101ED0007B610192019BBB61002B14BF0221012198
:101EE0003961C4B1A4F2334404443460C0F1350014
:101EF0002860384603B0BDE8F08343F48013D5E78B
:101F00007961E7E701A8FFF7DBFD019B7B61012118
:101F100039612030E5E707EB8103A0F23240306001
:101F20001869FFF7AEFDC0EB4110E1E738B502FBE1
:101F300001F4214600F056F8054618B1224600216A
:101F4000FEF7F0F9284638BD38B50546002945D0DA
:101F500051F8043C0C1F002BB8BFE41800F0CCF87B
:101F60001F4A1368104633B9636014602846BDE801
:101F7000384000F0C2B8A3420CD9216862189342DD
:101F800004BF1A685B68636004BF52182260046073
:101F9000ECE713465A680AB1A242FAD919685818F0
:101FA000A0420BD120680144581882421960DDD14B
:101FB000106852685A6001441960D7E702D90C23AF
:101FC0002B60D3E7206821188A4204BF1168526849
:101FD000626004BF091821605C60C7E738BD00BFBC
:101FE0006402002070B5CD1C25F0030508350C2DCA
:101FF00038BF0C25002D064601DBA94203D90C236E
:102000003360002070BD00F077F8214A1468214643
:1020100091B9204C23681BB9304600F03DF8206090
:102020002946304600F038F8431C24D10C23336095
:10203000304600F062F8E4E70B685B1B18D40B2B0A
:102040000FD90B60CD50CC18304600F056F804F193
:102050000B00231D20F00700C31AD3D05A42E250D0
:10206000D0E78C424B6816BF636013600C46EBE709
:102070000C464968CCE7C41C24F00304A04205D0F8
:10208000211A304600F008F80130CFD02560DBE798
:10209000640200206802002038B5064C0023054683
:1020A0000846236000F038F8431C02D1236803B1CE
:1020B0002B6038BD800B0020044B054A1B681B6A4F
:1020C000002B08BF1346D3F8EC0070470000002037
:1020D0006400002082B001B901A942B14BB113786C
:1020E0000B601278101C18BF012002B07047104618
:1020F000FBE76FF00100F8E77047704749B1FF2A2E
:1021000085BF8A2303600A704FF0FF3098BF01201B
:102110007047084670470000044A05491368002BC1
:1021200008BF0B4618441060184670476C02002028
:10213000000C0020FEE700BF0649074A074B9B1A28
:1021400003DD043BC858D050FBDC02F057FDFEF71E
:1021500077F80000587800000000002048020020B6
:10216000FEE7FEE7FEE7FEE7FEE7FEE7FEE7FEE747
:10217000FEE7FEE7704700BF00B583B0044B009355
:10218000044A402300F036F803B05DF804FB00BFBA
:10219000992100007402002002B32DE9F843114B8D
:1021A000114E8846144643F00109032700252246B4
:1021B00008EB0501002003F055FB03461D444FF4D6
:1021C0007A40E41A23B9337833B1C847013F06D0C7
:1021D00001233370002CEAD1BDE8F88370473770D3
:1021E000BDE8F8839074000070020020704700BFC3
:1021F00003F0ECBBF0B595B0002415460F46084639
:102200001E4601F00FFB384623460895082205A913
:102210001A9D09960D950A948DF82C400C9401F0A6
:102220005BFB9DF814308DF81140DDE9061003F0DA
:102230000302012ACDE9020127D0022A04D0384640
:1022400001F0F4FA15B0F0BDBDF81650C3F3C203A7
:102250008DF81030AD090826082D2C4628BF08241B
:10226000334622460EA9384601F036FB2D1B214687
:1022700008AB02AA0EA8264400F0E2FC002DEBD128
:10228000384601F0D3FA15B0F0BDBDF81460059DD5
:10229000C6F38316C3F3C204B2000EA9384608235E
:1022A0008DF81040C5F3952501F016FB08AB3246BA
:1022B00028460EA9009302AB00F01CFC384601F042
:1022C000B5FA15B0F0BD00BF014B01221A7070477E
:1022D000F8020020704700BF00B583B0044B0093A4
:1022E000044A4023FFF786FF03B05DF804FB00BFFC
:1022F000F9220000B802002038B50E480E4D0378D0
:102300000E4CEB5C0025D2B2257053B90C3001F0B5
:10231000F7FD58B90A4B1B7813B12378002BFCD07A
:1023200038BD043002F0E2F80028F3D000F034FDAC
:10233000F0E700BFD0010020840B0020F80200204D
:10234000B402002070B51348134A0378D35C88B0F8
:10235000DBB90C3001F06EFD104D0FCD6C460FC493
:1023600095E80F0008AD062645F8206D84E80F00BB
:1023700029460022074801F03DFB08B100F00CFDA2
:10238000074B00221A7008B070BD043002F046F806
:10239000E2E700BFD0010020840B0020A4740000FD
:1023A000B402002070B50D4D0FCD88B06C460FC43F
:1023B00095E80F0008AD062645F8206D84E80F006B
:1023C0002946074A074801F015FB08B100F0E4FC74
:1023D000054B01221A7008B070BD00BFA474000044
:1023E000C9220000D0010020B402002038B50A4DF7
:1023F000FFF7FEFE0421284600F032FB074B0124C4
:102400005C71FFF7CFFF05F11000042100F028FBFD
:10241000034B5C7138BD00BF1C780000E401002054
:10242000EC010020F0B5324C85B004F5836000F07B
:10243000C5FD04F2144000F0C1FDD4E9013703EA00
:102440000702D01C04EB800114F8200010F00400F7
:1024500044D003F1020C0E7806F00306012E654607
:1024600035D0022E02F1030621D004EB86010028AC
:10247000F1D104EB82020133D26801923B4004EBBC
:10248000830302F00302012ADE6829D0022A23D145
:10249000BDF806309B090333360C05EB9305154850
:1024A00000F098FD00B16560304605B0F0BD4B8886
:1024B0000CEB931307EA0302D11C03F1020C14F88E
:1024C0002100654604EB810100F00400CFE70B8892
:1024D000C3F383136344EDE70026E0E79D1CC8E7E0
:1024E000BDF80430C3F38313360C1D44D7E700BF97
:1024F000CC030020E00700200B4B0C4810B5002255
:10250000FF21C3F818249960C3E90022C3F81424FA
:1025100083F8202401F042F9044610B9044801F080
:102520000FFA204610BD00BFCC0300203C7800000D
:10253000F474000021B9124B03EBC000006870472F
:10254000104A0F49521AD20815D030B40E4D2B88BC
:10255000834212D0002303E035F82340844205D0A3
:1025600001339A42F8D1002030BC704701EBC30020
:10257000006830BC7047104670470846F8E700BF57
:10258000E47700001C78000044020020094B013968
:1025900003EBC00003290BD8DFE801F002080604B2
:1025A00002207047407970470079704704207047D7
:1025B00000207047E47700002DE9F843DFF8D89059
:1025C000074600208846D9F8084000F0C3FCD9E946
:1025D0000132D9F80060134401339B1B012B56D8FC
:1025E00009F21C450121284600F0D0FCFFF71AFF34
:1025F0000146284600F0CAFCD9E90132D9F800109A
:10260000134401335B1A012BECD90A400332052332
:102610000231002049F82230C9F8001000F0A2FC75
:1026200000211C4800F0A8FC80F31000731C23401C
:1026300009EB830300043440033440EA1740D860B8
:1026400019F8243067F3C50309F8243039F8243029
:102650006FF3891329F8243059F8242068F39F2256
:102660001346012161F301036FF3820349F824202B
:1026700009F8243099F820341BB906E000F00EF870
:1026800018B1D9E900329A42F8D1BDE8F883314651
:10269000BBE700BFE8070020CC0300202DE9F0478E
:1026A000914C002384B0C4F81834BFF34F8FD4E9A1
:1026B000015605EA0602D31C04EB830114F823300B
:1026C000580719D527680B7803F00303012B43D073
:1026D000022B03D14B88023505EB931506EA050260
:1026E000D4F81804D31C04EB830128B9AF4239D9BC
:1026F00014F823305B07E6D404EB82026B1CD2682B
:102700000192334004EB830302F00302DB6802937F
:10271000022A05F1020700F08980012A26D0D4F8A8
:1027200010543DB12B6828469B689847EB681D689C
:10273000002DF7D16D486E4B6E49C01AC0080004D9
:1027400040F00200FFF738FFD4E90030C01A18BF8C
:10275000012004B0BDE8F0870B880235C3F3831372
:102760001D44BBE7676004B0BDE8F087BDF80420F6
:102770006148C2F38313062B28BF062363F3891233
:1027800002339900ADF8042001F00AF880460028D1
:10279000C5D001F047F80023082201A9404601F006
:1027A00067F8BDF8043013F4707F00F09B806FF081
:1027B000010AAAEB050A082506EA070103312B46A0
:1027C000042204EB8101404601F052F8BDF80430C8
:1027D00007F101090AEB0902C3F3831393424F4641
:1027E00005F10405E8D8D4F81834002B64D1D4F8E6
:1027F000105465B1EB685A7928464146002A57D0F3
:102800002B681B689847EB681D68002DF2D1404685
:1028100001F00CF8002000F09DFBD4F818340BB93F
:10282000C4F80490002000F09DFB8DE7BDF8063051
:1028300031484FEA93194D46502D28BF502565F376
:102840008F1305F10801ADF8063000F0A9FF8046AE
:1028500000283FF464AF26EA070A0AF1010A00F0F3
:10286000E1FF4FEA8A0A0023082201A9404600F04E
:10287000FFFF55452BD9EBB2BAF1000F20D006EA85
:102880000701A3EB0A03033104EB8101DDB25246D9
:102890000823404600F0ECFF2A460AF108031749D6
:1028A000404600F0E5FF09F1030907EB99099AE7B3
:1028B0001D68002D9ED1AAE7404600F0B7FF43E710
:1028C0002A4608230D49404600F0D2FFEBE706EA0E
:1028D0000701033104EB81012A460823404600F03A
:1028E000C7FFE0E7B9467EE7CC0300200C78000084
:1028F000E4770000007500003C780000D803002059
:102900002DE9F04F87B0CDE900239946119B4C4C3F
:102910000393129B109E04938046139B0593002003
:102920009246A56802968B4600F014FBD4E901326A
:10293000276813440133DB1B072B7FD804F21C46A6
:102940000121304600F022FBFFF76CFD01463046C6
:1029500000F01CFBD4E901322168134401335B1AF7
:10296000072BEDD90A400332083140F285130020CD
:1029700044F82230216000F0F5FABB1C2B4004EB38
:102980008303F91C07F1040CC3F80CA029400CEADE
:10299000050C7E1DFB1D2B402E4004EB810104EB3A
:1029A0008C0CBA1D04EB830E2A40109BC1F80C90CE
:1029B00004EB8606CCF80C3004EB8202119BF3602A
:1029C000129BD3600021139B1E48CEF80C3000F000
:1029D000D3FA80F310007B1C2B4004EB830300042C
:1029E0003D40033540EA1840D86014F8253068F3BC
:1029F000C50304F8253034F82530062262F3891324
:102A000024F8253054F825206BF39F22134601212A
:102A100061F301036FF3820344F8252004F82530A5
:102A200094F820341BB906E0FFF738FE18B1D4E95A
:102A300000329A42F8D107B0BDE8F08F394691E7ED
:102A4000CC030020E8070020044BD3E900239A427E
:102A500001D0FFF723BE0020704700BFCC03002049
:102A600030B4184DD5F8104400215CB1E3681A79F0
:102A70008A4204D116E0DB681A798A4212D01B68B8
:102A8000002BF8D1C3681971D5F8103493B1DA6806
:102A9000C36812681A60D5F81034DB68186030BC5F
:102AA0000846704701310A29DFD14FF0FF3108464F
:102AB00030BC7047C5F81004C2681360084630BCCB
:102AC000704700BFCC03002038B5094BD3F8104441
:102AD000012583F820544CB1E3685D7123682046DA
:102AE0005B689847E3681C68002CF5D138BD00BFCF
:102AF000CC0300202DE9F04784B01D460C9C002338
:102B000094F80C802373EB8881460E461746002B01
:102B100040D1297A05290ED06B7AA88873BB404B27
:102B200053F821A00021FFF705FD524603463D4919
:102B3000204600F0BBFA062F09D8DFE807F0046A48
:102B40004249525D33004946204600F0AFFA2B7AE5
:102B5000052B05D06B7A5BB93349204600F0A6FA05
:102B6000204600F097FA84F80C8004B0BDE8F087A6
:102B70002E4A2F49204600F099FAEDE7FFF706FDAF
:102B80002C4B2B4953F82020204600F08FFA297A4D
:102B9000A888C4E7254A00922749284A204600F021
:102BA00085FAB6E7D6E90410D6E900230390D6E902
:102BB00002070291CDE900074946204600F076FA67
:102BC000C5E74946D6E90023204600F06FFABEE784
:102BD000B168D6E9002320460091494600F066FA24
:102BE000B5E7D6E90201D6E90023019100904946F4
:102BF000204600F05BFAAAE7D6E90371B068D6E98F
:102C000000230291CDE900074946204600F04EFA24
:102C10009DE732684946204600F048FA97E700BF32
:102C20008C7500007C7500008875000070750000D0
:102C30007875000018750000587500005075000088
:102C4000082900D970472DE9F04F1D469046002312
:102C50002A7B2B7385B0B8F80630039207460E46E0
:102C6000002B77D198F80810052911D098F8093071
:102C7000B8F80400002B5FD13A4B53F821400021F3
:102C8000FFF758FC224603463749284600F00EFA63
:102C9000DFF8F4B0DFF8F490002405E03A5D013489
:102CA00000F004FA082C09D0A64249462846F5D877
:102CB0005946013400F0FAF9082CF5D12B49DFF818
:102CC000D090DFF8D0B0284600F0F0F9002411E0F1
:102CD00017F804A0FFF7F0F950445946437813F071
:102CE000970F14BF52462E222846013400F0DEF919
:102CF000082C08D0A64249462846E9D8013400F0FD
:102D0000D5F9082CF6D198F80830052B02D098F8A0
:102D100009305BB91649284600F0C8F9284600F08A
:102D2000B9F9039B2B7305B0BDE8F08F114A124926
:102D3000284600F0BBF9EDE7FFF728FC0F4B0E49E2
:102D400053F82020284600F0B1F998F80810B8F898
:102D5000040091E7074A009209490A4A284600F010
:102D6000A5F97FE78C7500007C75000048750000B0
:102D700088750000707500007875000018750000F7
:102D80005875000050750000447500003C75000047
:102D9000847500004C75000000B585B000230390D9
:102DA000194601AA44F20100CDE9013300F004F80C
:102DB00005B05DF804FB00BF10B572B6FFF784FEE6
:102DC000FFF742FE0028FBD1104B114C1149E41AC9
:102DD000E408240444F00100FFF7EEFB0E4B1B68EF
:102DE000DB0700D500BE44F002000C49FFF7E4FB0E
:102DF000BFF34F8F0A490B4BCA6802F4E0621343DA
:102E0000CB60BFF34F8F00BFFDE700BFE47700004A
:102E10000C780000F8750000F0ED00E0047600008A
:102E200000ED00E00400FA0510B403468468C068B1
:102E30009A88001B82420AD3D8681C68024000208E
:102E4000A154DA680132DA605DF8044B704704205F
:102E50005DF8044B704700BF03468068DA68904213
:102E60000DD010B498689A881C6802400020A25CBB
:102E70000A709A6801329A605DF8044B7047052029
:102E8000704700BF70B5114C014611482678FFF716
:102E9000E3FF05460EB9284670BD0E480E4A03787A
:102EA000D35C0022227053B90C3001220B4901F08F
:102EB00099F80028EFD0FFF76FFF284670BD012278
:102EC0000649043001F070FBF3E700BF98080020CA
:102ED00088080020F4010020840B0020AC080020AA
:102EE00070B501461548FFF79FFF044608B120461C
:102EF00070BD134D134E2B78F35CABB905F10C008C
:102F000001F064F80028F2D10F490C48FFF7A4FF44
:102F10000028ECD12B780C49F35C012243B90B4813
:102F2000BDE8704000F0ECBF281D01F02FFBE9E781
:102F30000748BDE8704001F0D9BA00BF9C080020E6
:102F4000F4010020840B0020B008002000020020C3
:102F5000F801002072B6024A13680133136070470B
:102F6000B4080020034A1368013B136003B962B63A
:102F7000704700BFB408002050E8002F0B4640E81F
:102F8000003C9CF0000FF7D11046704750E8003F1E
:102F900003EB010240E8002C9CF0000FF6D1104634
:102FA000704700BF50E8003FA3EB010240E8002C4F
:102FB0009CF0000FF6D11046704700BF012350E887
:102FC000002F42EA030C40E800C191F0000FF6D157
:102FD00060467047002350E800CF0CEA030240E847
:102FE000002191F0000FF6D160467047B8B130B4BF
:102FF000D0E90112521A0468D2B2531E2160DBB22A
:1030000042B101680A685C1E551C0D601370E3B282
:10301000FF2BF6D103680020187130BC70470E20DA
:10302000704700BF38B504460020FFF793FFD4E98E
:1030300000311A688A4215D9511E19602168A368A7
:103040000868258A12F8012CE4681B1A0879DBB29B
:10305000984205FB024400D20B710020FFF782FF6B
:10306000204638BD0024F8E738B5054600200C4658
:10307000FFF770FF2A681368591C1160E9682A8AF3
:10308000641AB4FBF2F41C700020BDE83840FFF76E
:1030900069BF00BF826842B110B504464369016848
:1030A000006998470023A36010BD70470EB400B5B7
:1030B00082B0039929B102AA04AB42F8043D00F0A2
:1030C0008BF802B05DF804EB03B070472DE9F84FC0
:1030D00088469045174605461E46DDE90AB175D378
:1030E00043464FF00109B3FBF7F39F4209F1010991
:1030F000F9D9B14538BFB14611F0010AAA6802D129
:10310000BBF1000F43D1012402E0013E07FB04F4B0
:10311000012EFAD8B8FBF4F18F42F7D92D4E05E015
:10312000B4FBF7F4A4B1B8FBF4F1AA68705C531CCB
:10313000AB602B689854D5E901329A4204FB1188A0
:10314000EED32846FFF7A6FFB4FBF7F4002CEAD134
:10315000BAF1000F15D0BBF1000F12D0CB4510D93A
:103160002024AB682A68591CA960D454D5E90132DF
:103170009A420BF1FF3B06D2BBF1000F01D0CB45C9
:10318000EFD1BDE8F88F2846FFF784FFF4E78B07FF
:1031900017D42024CB45B6D92B68511CA9609C5468
:1031A000D5E901329A420BF1FF3B05D2BBF1000F8A
:1031B000A9D0CB45F0D1A6E72846FFF76BFFAA6858
:1031C000F4E7002E0CBF30242024E3E74FF0010980
:1031D0008FE700BF14760000002900F0F4812DE98C
:1031E000F04F054685B092460C460B78DFF8A8B53F
:1031F00001E0237893B1013483B1252B15D0AA685F
:103200002968501CA8608B54D5E901329A42F0D34A
:103210002846FFF73FFF2378002BECD12B7B002BB8
:1032200040F0148105B0BDE8F08F2146002711F869
:10323000012B2D2A00F0E180302A00F0E2802B2AB9
:1032400000F0D2802A2A00F0E080A2F13006F3B22A
:10325000092B03D9B8E1A3F130060146084606EB75
:10326000860310F8012BA2F13004092C02EB430372
:10327000F1D92E2A00F0D5800023013101E011F8A8
:10328000012B02F0FB0068280C46F8D0253A532A9F
:10329000AFD801A151F822F059340000F3310000F9
:1032A000F3310000F3310000F3310000F33100008E
:1032B000F3310000F3310000F3310000F33100007E
:1032C000F3310000F3310000F3310000F33100006E
:1032D000F3310000F3310000F3310000F33100005E
:1032E000F3310000F3310000F3310000F33100004E
:1032F000F3310000F3310000F3310000F33100003E
:10330000F3310000F3310000F3310000F33100002D
:10331000F3310000F3310000F3310000F33100001D
:10332000F3310000F3310000F3310000F33100000D
:10333000F3310000F3310000F3310000F3310000FD
:10334000F3310000F3310000F3310000F3310000ED
:10335000F3310000F3310000F3310000F3310000DD
:10336000F331000073340000F3310000F33100004A
:10337000F3310000F3310000F3310000F3310000BD
:10338000F3310000F3310000F3310000F3310000AD
:103390008D340000AF340000F3310000F331000041
:1033A000F3310000F3310000AF340000F3310000CE
:1033B000F3310000F3310000F3310000F33100007D
:1033C000F3310000FF340000F3310000F33100005E
:1033D00073350000F3310000AD350000F33100001B
:1033E000F33100007334000047F004070C46214617
:1033F00011F8012B2D2A7FF41FAF47F001070C466F
:10340000F5E747F002070C46F1E7DAF800301A1D3D
:10341000CAF8002062781E682E2A04F102007FF4A8
:103420002BAF4A78A2F13003092B00F25081002320
:1034300003EB830302EB430310F8012FA2F13001E9
:103440000929A3F13003F3D9014616E7284605B050
:10345000BDE8F04FFFF71EBEAB682A68591CA96093
:103460004FF02501D154D5E901329A42FFF4C1AEA3
:10347000CEE6DAF80020111DCAF8001011682846BF
:10348000CDE900671022FFF721FEB2E6DAF800204E
:10349000131DCAF80030AB6829681278581CA86060
:1034A000CA54D5E901329A42FFF4A3AEB0E6DAF885
:1034B0000020111DCAF80010D2F8008088EAE872D6
:1034C000A2EBE872092A4FF0010107DDB148A0FB29
:1034D0000202D208092A01F10101F7DC994238BF42
:1034E0001946894607F00202002E71D12AB1002B3D
:1034F00000F04B81FA0700F18D8000268AE0DAF8AF
:103500000020131DCAF80030AB6829681768581CE2
:103510003022A860CA54D5E90123934280F02C815F
:103520002A68581C7821A860D154D5E90123934218
:1035300080F01D810F2F03D93A4612090F2AFCD8BB
:103540004FF0805603E036093FF453AEAB6829686C
:10355000B7FBF6F2581CA8601BF80200C854D5E966
:103560000131994206FB1277EDD32846FFF792FD11
:10357000E9E7DAF800301A1DCAF80020D3F8008015
:10358000FB077ED54746A7EB080917F8013B002B40
:103590005DD0AA682968501CA8608B54D5E9013217
:1035A0009A42F0D32846FFF775FDECE7DAF80020E1
:1035B000111DCAF8001011682846CDE900670A22DB
:1035C000FFF784FD15E6704708460026214650E6C1
:1035D000B8F1000F01DB780700D5013E02B1CBB195
:1035E000F90717D4002E88D0B14513D220220393B7
:1035F000A9682B68481CA8605A54D5E90131994242
:1036000006F1FF365DD2002E00F0C180B145EFD14A
:10361000039B4E46B8F1000FC0F296807A070AD598
:10362000A9684A1CAA602A682B205054D5E90121B8
:10363000914280F0968007F00302022A5FD0CDE924
:10364000006741460A222846FFF740FDD1E54E4576
:103650007FF6CFAD202705E04E453FF4CAAD002EE2
:103660003FF4C7ADAB682A68591CA960D754D5E9A7
:1036700001329A4206F1FF36EED32846FFF70AFDE3
:10368000EAE7B8F1000F24D04046FDF7AFFA07464D
:10369000BE4220D9FEB14FF0200902E0BE421AD04E
:1036A000CEB1AB682A68591CA96002F80390D5E92D
:1036B00001329A4206F1FF36F0D32846FFF7EAFCC2
:1036C000ECE728460292FFF7E5FC029A9BE70146E9
:1036D000D2E54746DCE708F1FF3818F8013F002B38
:1036E0003FF487ADAA682968501CA8608B54D5E9BF
:1036F00001329A42F1D32846FFF7CCFCEDE7002BCC
:103700009DD1002E3FD0B14599D2029323464C461D
:10371000B1461E46AA682B68501C4FF03001A860C5
:103720009954D5E901329A4209F1FF3908D2B9F129
:10373000000F26D04C45EDD13446029B4E467EE725
:103740002846FFF7A7FCF2E7A9684A1CAA602A6886
:103750002D205054D5E901219142C8F10008FFF411
:103760006AAF28460293FFF795FC029B63E7284661
:10377000FFF790FCAB68DDE62846FFF78BFCAB68F3
:10378000CEE6029B3446002659E71E4642E7039BDD
:10379000B3E600BFCDCCCCCC14760000FFF726BC3E
:1037A0002DE9F041058ACE1C043D2E440746B6FBA8
:1037B000F5F6FFF737FC78B3F6B24FF48073013EAD
:1037C0000446C5800760838027D08046002509E035
:1037D0006379AE4203F101036371C8F8000007602A
:1037E00080461AD03846FFF71DFC01350028EFD17E
:1037F0006679721E14D02346013082421B68FBD1C9
:103800001F684EB1002523682146013538461C4605
:10381000FFF72AFCAE42F6D100242046BDE8F08135
:103820002768EFE704300121FFF7B0BBF8B50121AD
:1038300004460430FFF7B6FBC0B200B1F8BD6679AC
:10384000721E12D02346013082421B68FBD11F68D2
:10385000002EF3D0002523682146013538461C464A
:10386000FFF702FCAE42F6D1F8BD2768F2E700BFD1
:103870002DE9F843C788467907FB06F6043E02EBBC
:10388000030C0446664503F1040015468846B0FB68
:10389000F7F238BFF51A07FB120012B1013A24689B
:1038A000FCD13E1AAE4228BF2E469DB14FF0000912
:1038B0000430AD1B2044324608EB0901FEF750F8F6
:1038C000AF42B14424683E464FF0000028BF2E4668
:1038D000002DEDD1BDE8F8832DE9F843C78846797E
:1038E000154607FB06F6043E05EB030C1A1D66455C
:1038F00004468846B2FBF7F038BFF51A07FB1021E3
:1039000010B101382468FCD17E1AAE4228BF2E4681
:103910009DB14FF0000904312144AD1B324608EB44
:103920000900FEF71DF8AF42B14424683E464FF04F
:10393000000128BF2E46002DEDD1BDE8F88300BF61
:103940008268002393608268136182685361826891
:10395000D3608268536082681360704770B5161E2A
:1039600007DD0C468D1914F8010BFFF7B9FAA542D3
:10397000F9D1304670BD00BF10B50C462046FFF7A8
:1039800081FA0528FAD0012010BD00BF30B585B0FE
:103990000478094A094B45688DF80040047AC068EC
:1039A000039053F8213001958DF8084052F821100A
:1039B0006846984705B030BDB8080020BC08002014
:1039C00030B585B0047845688DF80040D0E90240F4
:1039D000064A074B039053F8213001958DF80840B3
:1039E00052F821106846984705B030BDB80800204D
:1039F000BC080020F0B51A4B06781A4D0C6991F8F6
:103A00001DE045F826400746174803F806E040F851
:103A100026200C4694460FCC89B06D460FC594E81D
:103A20000F0085E80F000496BEF1000F0BD0BCF12B
:103A3000000F0E4A694607F1040008BF002200F09B
:103A40000BFC09B0F0BDBCF1000F094A694607F153
:103A50000C0008BF002200F01BF909B0F0BD00BF48
:103A6000840B0020B8080020BC0800208D3900001D
:103A7000C1390000014B1B68184700BFC008002077
:103A800038B50C4B984201D0002038BD00200D46BF
:103A9000FFF760FA084B1C7924B10020FFF762FAA7
:103AA000112038BD012220461D601A71FFF75AFA15
:103AB000204638BD00200040C0080020034B98423B
:103AC00003D1034B00221A601A7170470020004096
:103AD000C008002030B56C4AD2F8043399058BB089
:103AE00066D5D2F82431002B62D00023C2F82431ED
:103AF000D2F8243103934FF40171644B0398C2F858
:103B0000081393F8291009B9012151605E49022276
:103B10008DF81820D1F88024C1F880249869D968DC
:103B200009920022CDE90710C3E90622D3E9001467
:103B300006A8A047544AD2F81C31BBB1534B186AAF
:103B40005969884269D350480022C0F81C21D0F836
:103B50001C010190019849B198688DF818200891CE
:103B60005A610790D3E9001206A89047464AD2F856
:103B70004431DBB10021454BC2F84411D2F8440175
:103B800093F829100090009809B1012111609A69F9
:103B900062B10022586AD9689A610122CDE9071002
:103BA0008DF8182006A8D3E9001290470BB030BD5D
:103BB000354AD2F804335B07BCD5D2F80831002B64
:103BC000B8D0324B996900293CD00021C2F80811C5
:103BD000D2F8081104910499D868596AD2F81825C6
:103BE00042545A6A996901325A625A6A8A42A1D188
:103BF000DA691968002A2ED0D8685D6A1C699A6152
:103C0000079000220120DC60DA615A628DF818000A
:103C100008955B6806A898478CE793F8280000F0A1
:103C2000FF0400288FD1C2F81C41D2F81C11029168
:103C300002999C68186A196A205C01311962C2F8FD
:103C40001C0593E7C2F80811D2F808010590059801
:103C5000D2F81825C9E793F8292012B90A4A012099
:103C60005060094A4FF40170C2F80803586ADA68D4
:103C700008900024012007928DF818005A689C6172
:103C800006A8904756E700BF00200040C808002063
:103C90002DE9F041DFF8988107792C2606FB07868D
:103CA00082B096F82A30002B40F08F800D460446F3
:103CB0005C4900681646FFF7E3FE002840F081806B
:103CC0002B68591C0CD001224FF0A04102FA03F3DB
:103CD000C1F808352B6803F5E073032241F823206F
:103CE0006B685A1C06D003F5E0734FF0A042002128
:103CF00042F823102368AA69C3F82425297D6B7D27
:103D000022680B43C2F86C35D5E900122368C3F86A
:103D10001425C3F80C152B7D012B5AD02C2303FB43
:103D200007F308EB030256602A6948F80320002EC7
:103D300034D022682B7F3C4D0021C2F81C11D2F8F0
:103D40001C2100922268009EC2F84411D2F844114E
:103D5000226801910199C2F804532168090B4AB203
:103D60005B01002ADBB256DB02F1604202F56142E0
:103D700082F800332268120B42F3C40323F060433D
:103D800023F0030303F1604303F5614302F01F02D4
:103D9000012101FA02F2C3F880211A602C23246861
:103DA00003FB0783002204250121C4F8005583F892
:103DB0002A10C3E9062283F829205A6102B0BDE81F
:103DC000F081112002B0BDE8F081082002B0BDE80A
:103DD000F081AB68591C06D003F5E0734FF0A042A8
:103DE000002142F82310EB685A1C0DD001224FF03D
:103DF000A04102FA03F3C1F80835EB6803F5E0735C
:103E0000032241F82320EB682268A968C2F808352C
:103E1000C2F8101582E7054A01F00F010A44137633
:103E2000A8E700BFD53A000080000200FCEC00E0EB
:103E3000C8080020F8B52F4D047902682C2303FB35
:103E4000045300215B68C2F8001583B103682A4A55
:103E5000C3F808230368294E1B0B5AB252092032BB
:103E600003F01F03012101FA03F346F8223003682F
:103E70004FF0FF32D3F80CC5D3F81475D3F80815FA
:103E8000D3F81065C3F81425C3F80C2503689445CE
:103E9000C3F80825C3F8102506D00CF5E07C4FF0D8
:103EA000A043022243F82C207B1C06D007F5E077C4
:103EB0004FF0A043022243F82720721C06D006F5DB
:103EC000E0764FF0A043022243F826204B1C06D098
:103ED00001F5E0714FF0A043022243F82120006871
:103EE000FFF7ECFD2C2303FB0454002384F82A3055
:103EF0006360F8BDC80800208402020000E100E011
:103F0000F0B5314E05792C2303FB056385B05C6960
:103F1000002C53D11C62996083F828405A610268D2
:103F2000C2F81C41D2F81C11026802910121029FC3
:103F300091600268D3F808C0C2F81C41D2F81C1185
:103F400001910199D3F820E0196A5F681CF80EE02E
:103F500001311962C2F81CE517B1204605B0F0BD69
:103F60001A6A5C690168944203D819E093F8282022
:103F70003ABBD1F81C21002AF8D0C1F81C71D1F845
:103F80001C210392039AD3F820E01A6A1CF80EE071
:103F900001321A62C1F81CE51A6AA242E9D301682B
:103FA000D1F81C31002BFBD00123CB6000202C2347
:103FB00003FB056500236B6105B0F0BD112005B062
:103FC000F0BD0F20F3E700BFC80800200379044AC2
:103FD0002C2101FB03235869003018BF01207047D2
:103FE000C8080020F0B4514D04792C2303FB04537E
:103FF00086B05F6827B103684FF40176C3F80863A1
:104000002C2303FB04539E696EB1DE690EB3002FAF
:1040100000F0848003684FF401721120C3F8042378
:1040200006B0F0BC704793F829709A61D9605E625F
:10403000DE61002F60D02C2202FB0452016853681D
:1040400053B14FF40173C1F80433002006B0F0BC43
:1040500070471961DA61EEE7C1F84431D1F84431B3
:104060000393039B0368D3F82461D3F80871D3F852
:10407000441157B9002936D1002EF4D02C2303FB6C
:1040800004540023A3610320E0E7002EF6D161BBB6
:10409000966996B1C3F80811D3F8081104910499F0
:1040A000D668516AD3F818357354536A916901334D
:1040B0005362536A9942D5D808E0C3F80861D3F82F
:1040C000081105910599D3F81835536A2C2303FB81
:1040D0000454002294F82930A2610BB30368012133
:1040E00010461960B2E7002EC8D12C2303FB0454FC
:1040F0000023A3610F20A9E70368C3F82471D3F854
:10410000242103680192019AC3F80871D3F80821A9
:1041100003680292012202991A608CE7112095E748
:10412000026801211846516090E700BFC8080020CE
:10413000F0B5474BD3F8242189B0002A54D0002190
:10414000C3F82411D3F82421029202228DF8102002
:10415000029AD3F880043F4AC3F880040790D3F84A
:104160003C05D3688DF81800C2E906110593116863
:10417000536804A89847364BD3F84421BAB10020BD
:10418000344AC3F84401D3F8444191690194019C35
:1041900069B1D3F83C458DF81840D368906101248B
:1041A0000593116853688DF8104004A89847284B70
:1041B000D3F82021B2B10021264AC3F82011D3F848
:1041C000204150690094009C60B1D3F84C0593687D
:1041D0008DF818008DF810105161059304A8D2E9EC
:1041E0000013984709B0F0BDD3F810110029C2D0D0
:1041F000C3F81021D3F8101116480391039981696F
:10420000D3F83C458C42B6D1C569C768D0E90016E1
:10421000E4B295B1D3F800C285612CF02005C261EB
:10422000C3F800520369C36001228DF81840059756
:104230008DF8102004A8B0479DE7012385618DF813
:10424000184005978DF8103004A8B04793E700BFD9
:1042500000200040F40800202DE9F04307796B4E60
:104260004FEAC70808EB070306EB830385B093F812
:104270002030002B40F09E800D46044664490068C3
:104280009146FFF7FDFB002840F090802B68591CF9
:104290000CD001224FF0A04102FA03F3C1F8083517
:1042A0002B6803F5E073032241F823206B685A1C46
:1042B00006D003F5E0734FF0A042002142F823102E
:1042C0002368AA69C3F82425297D6A7D23680A43E7
:1042D000C3F86C25D5E900312268C2F80C35C2F864
:1042E00014152B7D012B69D008EB07029200B3183F
:1042F000C3F804902B69B350B9F1000F45D0216881
:104300002B7F444D0022C1F81021D1F810110091EB
:104310002168DDF800C0C1F82021D1F820110191F9
:104320002168DDF804C0C1F82421D1F824110291DC
:104330002168DDF808C0C1F84421D1F84411226891
:1043400003910399C2F804532168090B4AB25B0137
:10435000002ADBB254DB02F1604202F5614282F8CE
:1043600000332268120B42F3C40323F0604323F0AE
:10437000030303F1604303F5614302F01F020121CF
:1043800001FA02F2C3F880211A604744226806EB62
:10439000870600230124082186F82040C2F8001572
:1043A000C6E90633736105B0BDE8F083112005B09E
:1043B000BDE8F083082005B0BDE8F083AB68591C68
:1043C00006D003F5E0734FF0A042002142F823101D
:1043D000EB685A1C0DD001224FF0A04102FA03F302
:1043E000C1F80835EB6803F5E073032241F8232098
:1043F000EB682268A968C2F80835C2F8101573E79F
:10440000054A01F00F010A441376AAE7F4080020D8
:104410003141000010030200FCEC00E0F8B5067921
:104420002F4C0268F500AB1904EB830300215B6895
:10443000C2F8001583B103682A4AC3F80823036849
:10444000294F1B0B5AB25209203203F01F030121DE
:1044500001FA03F347F8223003684FF0FF32D3F834
:104460000CE5D3F814C5D3F80815D3F81075C3F8C4
:104470000C25C3F8142503689645C3F80825C3F82E
:10448000102506D00EF5E07E4FF0A043022243F83F
:104490002E20BCF1FF3F06D00CF5E07C4FF0A0438E
:1044A000022243F82C207A1C06D007F5E0774FF063
:1044B000A043022243F827204B1C06D001F5E071EF
:1044C0004FF0A043022243F82120354404EB850439
:1044D0000068FFF7F3FA002384F820306360F8BD2A
:1044E000F40800201003020000E100E001F0604346
:1044F000B3F1005F2CD1F0B50679234F4FEAC60C1B
:104500000CEB060407EB840483B0636913BBA16062
:1045100062610568C5F82031D5F820E10568CDF85D
:1045200004E0DDF804E0C5F85831D5F858E1056835
:10453000CDF800E0DDF800E0C5F84415C5F84825E1
:1045400002680121916062683AB1184603B0F0BD7B
:1045500010207047112003B0F0BD036800E08AB955
:10456000D3F82011D3F858210029F8D0002A14BF1D
:104570000F2000200CEB060307EB830300225A6197
:1045800003B0F0BD0F20F5E7F40800200379054AD9
:1045900003EBC30302EB83035869003018BF01200B
:1045A000704700BFF408002001F06043B3F1005FE2
:1045B0007ED1F0B40579464CEB005E1904EB86061B
:1045C00082B0766826B107684FF4047CC7F808C348
:1045D0002B4404EB83039D69002D42D19A61DD6178
:1045E000D9600368C3F81051D3F8106103680196CD
:1045F000019EC3F84451D3F8445103680095009DCF
:10460000C3F83415C3F83825036801221A60057908
:104610000368EE00721904EB820252685AB14FF43B
:104620000472C3F80423002002B0F0BC70470029D4
:1046300042D1002846D1D3F81021D3F84411D3F841
:104640002401002AF3D0354400284FF0000304EB86
:10465000850414BF032018469942A36118BF0F2098
:10466000E2E7DD693DB12EB303684FF40472C3F88D
:1046700004231120D8E71961DA610368C3F81051E7
:10468000D3F8106103680196019EC3F84451D3F832
:10469000445103680095009DC3F83415C3F83825CC
:1046A0000268D2F8003243F02003C2F80032AEE7CD
:1046B000102070471120B7E7354404EB85040F2024
:1046C000A261B1E7354404EB85040320A161ABE7A7
:1046D000F40800202DE9F041734B1A6888B0002AD5
:1046E0004CD1DFF8DC8198F82E30002B54D16F4B81
:1046F0001A686AB100221A6008A81B680393022195
:1047000000F80C1DD8F80030039988F8102098475D
:10471000674B1C68002C7CD1D8F814705FB34FF045
:1047200000450126B7FA87F101F146039B0003F12A
:10473000804202F5E042A3F58C73D2F800E083F0EA
:10474000040025FA01F1C0F3800CDB0805A827EA74
:104750000107BEF1000F0CD01460126804928DF8AE
:1047600018308DF814608DF819C0D8F80030049A0C
:104770009847002FD6D108B0BDE8F0810022DFF8BD
:1047800040811A60196898F82E3000910099F3B1B1
:1047900098F82F30002B46D1464B1A68002AA6D035
:1047A0000020186098F82D201968B8F81A30019187
:1047B00091B28B42019C4DD861D03B4B3E4A0021C7
:1047C00019601B6802930123029913608FE7D8F8E0
:1047D0000C20D8F80400B8F808108DF814300690B2
:1047E000ADF81C10002A46D03448B8F81810C8F8A4
:1047F00004200122C8F80C30A8F81A10A8F80810F4
:104800000260D8F8003005A89847002388F82F30B8
:1048100069E700221A601B680593059B88F8102041
:1048200008B0BDE8F081D8F80C30D8F80400B8F82A
:1048300008108DF814200690ADF81C10DBB1B8F804
:104840001810C8F80430C8F80C20A8F81A10A8F8F6
:104850000810D6E7B8F80800184C5B1A9BB2D8F8D5
:104860000410A8F81A30C01A01EB4001C4F82C1645
:10487000C4F83026A1E7002388F81030C1E7D8F843
:104880000C3053B10D49A8F81A00012088F82F0008
:10489000C1F82C36C1F830268FE70122A8F81A306B
:1048A00088F82F2089E700BF047100401071004094
:1048B000147100400071004004700040007000401E
:1048C00018090020214B93F82C20002A3CD170B409
:1048D0001F4C05781960C4F8F05545781D49C4F897
:1048E000F4556FF000451A74C678C4F8085383B0C5
:1048F0000A600968184D019101992A60817883F84E
:104900002E602D6815480095490183F82D205A61C5
:1049100083F82F20C9B28022F5B2009E80F80713D9
:10492000C0F88021022102600122C4F8041383F838
:104930002C200DB1C4F80423054B01220020C3F83C
:10494000002503B070BC704708207047180900208C
:1049500000700040047100400071004000E100E080
:10496000334A137C002B60D1F0B40C79012C4ED962
:1049700000F10C0502EB45031B7923B992F82D30A9
:10498000013382F82D304B788E7891F800C04F7942
:104990001B01360206F4E06603F030033343CE78A1
:1049A0000CF0030C360306F4805643EA0C03334341
:1049B0008E793F0507F48017360602EB450206F0B4
:1049C000807624043B431B4D04F4E024334323430B
:1049D00005EB0016CC79147100010C7A547100F1CA
:1049E0008040C6F8183500F5E040CB790A7AC0F867
:1049F0001425C0F810350B79012B02D90020F0BC2A
:104A000070470123C5F800350020F0BC704703F063
:104A1000FF05084BC3F8005500F10C0502EB4503F8
:104A20000C791B79002BAED1A8E71120704700BF8D
:104A30001809002000700040F0B42D4A2D4B1224BC
:104A4000C2F808431D7C022D82B04BD01C7C012C87
:104A500024D093F82E405860022701250026C2F882
:104A600004731D74DE6019816CB9234BC2F82C06E7
:104A7000C2F830161C601B680193019B156020462C
:104A800002B0F0BC704793F82D40C2F82C063046B7
:104A90005983C2F8304602B0F0BC7047DC6834B1CC
:104AA00002231120C2F8043302B0F0BC704793F81F
:104AB0002E20D86019836AB90F4A1368002BFCD0E6
:104AC0000023136012680A4B0092009AC3F82C0668
:104AD000C3F83016064B02220020C3F8042302B0AC
:104AE000F0BC70471120C2F8044302B0F0BC70471C
:104AF000007000401809002000710040084A137C33
:104B0000DBB2012B09D192F82E0010B9054A1360CF
:104B10007047054A0020136070470820704700BFA7
:104B200018090020047000400070004070B54FF478
:104B300000410020FDF7E0FC002845D1FDF756FCC0
:104B40002648274C00F072FF00F0E2FC00F0FCFC6D
:104B5000244B2549E41AE408240444F003042046C5
:104B6000FDF72AFD00F018FD20462049FDF724FD41
:104B7000FDF76AFF0028FBD11D4D282645F00105F1
:104B80004FF47A40A847013EFAD100F077FD194969
:104B90002046FDF711FDFDF757FF0028FBD100F07F
:104BA0008BFD20461449FDF707FDFDF74DFF00285A
:104BB000FBD100F063FD64244FF47A40A847013C28
:104BC000FAD100F079FDF4E70446FEF7E5F8FDF7C9
:104BD0000DFC2046FEF7E0F8B2E700BF5876000073
:104BE0000C780000E4770000647600007076000026
:104BF00050760000807600008876000030B4904B3C
:104C00001B78062B20D08F4B1B68062B00F085806D
:104C10008D4AD2F8883043F47003C2F88830BFF36D
:104C20004F8FBFF36F8F4FF01023D3F80022002A6D
:104C3000C0F28681D3F80432002BC0F28181834B0D
:104C4000834A1A6030BC7047824B1B681D07DAD15B
:104C5000814B1B6803F0F002302A00F09E8003F0C5
:104C6000E003402B00F099807B4B1B6803F0F003BE
:104C7000302B00F0B980784B1B6803F0F002302A2B
:104C800056D003F0E003402B52D0734B1B6803F067
:104C9000F003302B00F0B6806F4B1B6803F0F0027E
:104CA000302A66D003F0E003402B62D06A4B1B68C9
:104CB00003F0F003302B00F0B580674B1B6803F066
:104CC000F003302B79D0644B1B6803F0F003502BBA
:104CD00000F0E480604B1B6803F0F002302A37D00C
:104CE00003F0E003402B33D05B4B1B6803F0F00272
:104CF000302A03D003F0E003402B84D14FF08043EF
:104D0000D3F80024D20744BF6FF00102C3F8002497
:104D10004C4B1B68062B7FF47BAF504B1B68062B5C
:104D20007FF476AF4E4A136843F4806313606FE7F5
:104D30004C4B434A1B6812784B49C3F34233062A53
:104D40000B6048D1434B1B6819077FF45CAF9CE7AD
:104D5000464A3B4B12681B78454902F04F02062B2E
:104D60000A607FF450AF3B4B1B6819077FF44BAFD1
:104D7000BAE74FF080430022C3F80C21C3F810219A
:104D8000C3F838252E4B1B78062B7FF43CAF314BF4
:104D90001B681B077FF437AF88E7364B284A1B6830
:104DA00012783549C3F30423062A0B60EAD1294B54
:104DB0001B681C077FF427AF56E7304C204A304968
:104DC00012783048304B0525256001250D60002400
:104DD0003F2104601960062A7FF415AF1D4B1B6844
:104DE0001C077FF410AF6EE7154B284A1B78284943
:104DF0001160062B7FF407AF164B1B6818077FF472
:104E000002AF38E723490E4BCA681B7822F0807244
:104E1000062BCA607FF4F7AE0E4B1B681A077FF4AF
:104E2000F2AE39E7064B1C4A1B780321062B1160B2
:104E30007FF4E9AE074B1B681D077FF4E4AE3CE747
:104E4000E00F00F03001001000ED00E0080200204B
:104E50000090D003E40F00F0E80F00F034010010E0
:104E60003C170040440200103C050040580200106E
:104E7000E40E00402403001040350140105600406D
:104E800088560040185600401456004074C0074031
:104E90000DF0ADBAF0ED00E0A00500404FF08053FA
:104EA000404AD3F80414C2F82015D3F80814C2F805
:104EB0002415D3F80C14C2F82815D3F81014C2F82E
:104EC0002C15D3F81414C2F83015D3F81814C2F8FE
:104ED0003415D3F81C14C2F84015D3F82014C2F8C6
:104EE0004415D3F82414C2F84815D3F82814C2F88E
:104EF0004C15D3F82C14C2F85015D3F83014C2F85E
:104F00005415D3F83414C2F86015D3F83814C2F825
:104F10006415D3F83C14C2F86815D3F8401422483D
:104F2000C2F86C15D3F844140378C2F87015062B38
:104F30007FF469AE1D4B1B6818077FF464AEC9E6A9
:104F40001B4B0122C3F80425D3F80024002AFBD010
:104F50004FF0102315221649C3F80022D1F800346F
:104F6000002BFBD04FF010221521114BC2F8041278
:104F7000D3F80024002AFBD000220D49C3F80425F1
:104F8000D1F80034002BFBD0BFF34F8F09490A4BF7
:104F9000CA6802F4E0621343CB60BFF34F8F00BFD7
:104FA000FDE700BF00C00040E00F00F0E40F00F09C
:104FB00000E0014000ED00E00400FA05F0B490F8D4
:104FC00004C0874B4FEACC041D1988B02D79002D01
:104FD00040F0D38043F83C200D78FF2D00F0D180C5
:104FE00025F0800201262D06049206FA02F600F151
:104FF000F1804FF0A045C5F80C654FF0A04502F5D3
:10500000E072032645F822604D78FF2D00F0C08045
:1050100025F0800201262F06059206FA02F600F11D
:10502000D4804FF0A045C5F80C654FF0A04502F5BF
:10503000E072032645F822608D78FF2D00F0AF80E6
:1050400025F0800201262D06069206FA02F600F1EE
:10505000B7804FF0A045C5F80C654FF0A04502F5AC
:10506000E072032645F82260CD78FF2D00F09E8087
:1050700025F0800215F0800F4FF001064FF0A0459B
:1050800006FA02F6079214BFC5F80865C5F80C6564
:1050900002F5E0724FF0A045032645F82260DDE9F5
:1050A00004760268069DC2F86075C2F86465C2F8AD
:1050B0006855079DC2F86C5502680125C2F8005575
:1050C00002688E790D894F79C2F80C75C2F80465B3
:1050D000C2F8085502684D89C2F8105505680022CB
:1050E000C5F800220568C5F800230568C5F81C212D
:1050F000D5F81C6105680496049EC5F81021D5F802
:10510000106105680396039EC5F81421D5F8146153
:1051100005680296029EC5F80421D5F8045153F89B
:105120003C200195019D0AB305680A792D0B69B2EF
:1051300052010029D2B23DDB01F1604101F561412C
:1051400081F800230168090B41F3C40222F0604298
:1051500022F0030202F1604202F5614201F01F01F8
:10516000012000FA01F1C2F88011116023440122EC
:1051700000201A7108B0F0BC7047082008B0F0BCDD
:1051800070474D784FF0FF32FF2D04927FF440AF0F
:105190008D784FF0FF32FF2D05927FF451AFCD781F
:1051A0004FF0FF32FF2D06927FF462AF4FF0FF32D7
:1051B000079274E70B4905F00F0529440A76C1E709
:1051C0004FF0A045C5F8086547E74FF0A045C5F882
:1051D00008652AE74FF0A045C5F808650DE700BF50
:1051E00048090020FCEC00E0F0B404680E68057982
:1051F000C4F820658E88C4F824658E68C4F82865D4
:10520000CE68C4F82C6504680E68C4F840658E88C2
:10521000C4F844658E68C4F84865C968C4F84C157C
:10522000016802F0010404EB5202C1F81425DA0708
:1052300082B0D9B206683DD413F002023CD1002CF2
:10524000C6F800220CBF08260C26234C04EBC5022E
:1052500054F83540517102251571D4B101F00402A2
:10526000002A01F0080C0FBF2A461222B225922410
:1052700011BF3227A22582242227BCF1000F1CBFB8
:105280003A462C46056811F0100F08BF2246C5F8B3
:10529000002301680022C1F80421D1F80411019112
:1052A0001B0601990ED4036801211046995102B0E2
:1052B000F0BC70471022C2E74CB10822C6F80022A9
:1052C0000C26C2E70068304402B0F0BC70470422EC
:1052D000C6F800220826B8E74809002000B52C4B84
:1052E000D3F8102185B072B100212A4AC3F81011F9
:1052F000D3F81011537903910399590703D5136813
:105300000BB101209847224BD3F8142172B1002130
:10531000204AC3F81411D3F81411537902911B07D2
:10532000029903D513680BB102209847184BD3F8A4
:105330001C215AB10021174AC3F81C115079D3F827
:105340001C31019310F01000019B14D0104BD3F8C6
:105350000421CAB100210F4AC3F80411D3F8041183
:10536000136800910121009811716BB1032005B001
:105370005DF804EB18471368002BE7D09847044BFF
:10538000D3F80421002AE5D105B05DF804FB00BF85
:1053900000C001404809002000B52C4BD3F8102173
:1053A00085B072B100212A4AC3F81011D3F8101148
:1053B000537B03910399590703D593680BB10120DF
:1053C0009847224BD3F8142172B10021204AC3F828
:1053D0001411D3F81411537B02911B07029903D5C2
:1053E00093680BB102209847184BD3F81C215AB18F
:1053F0000021174AC3F81C11507BD3F81C310193CC
:1054000010F01000019B14D0104BD3F80421CAB146
:1054100000210F4AC3F80411D3F8041193680091D6
:105420000121009811736BB1032005B05DF804EB06
:1054300018479368002BE7D09847044BD3F8042112
:10544000002AE5D105B05DF804FB00BF0010024062
:105450004809002000B52C4BD3F8102185B072B15B
:1054600000212A4AC3F81011D3F81011537D03917B
:105470000399590703D513690BB101209847224BB3
:10548000D3F8142172B10021204AC3F81411D3F8C3
:105490001411537D02911B07029903D513690BB1B7
:1054A00002209847184BD3F81C215AB10021174A03
:1054B000C3F81C11507DD3F81C31019310F010007B
:1054C000019B14D0104BD3F80421CAB100210F4A1C
:1054D000C3F80411D3F80411136900910121009855
:1054E00011756BB1032005B05DF804EB1847136923
:1054F000002BE7D09847044BD3F80421002AE5D1CC
:1055000005B05DF804FB00BF002002404809002000
:1055100030B50B4B93E807004FF0A04485B0032350
:10552000C4F84C374FF4002501ABC4F8085583E8A4
:105530000700194600220348FFF740FD05B030BDC3
:10554000987600000C02002070B50A4B0FCB84B097
:105550004FF0A0456C464FF40026C5F8086584E876
:105560000F00214601234FF4FA620348FFF73CFE87
:1055700004B070BDA47600000C02002008B50378CA
:1055800003B108BD40680121FFF756FA0028F8D0A2
:10559000BDE80840FDF700BC70B5314B31483249D9
:1055A000C01AC008000488B040F00300FDF704F8FA
:1055B000002402232D498DF8043001A88DF8054000
:1055C000FFF780F9054648BB294B93E8070002AC7A
:1055D00003C40C33227093E8070005AB03C3012416
:1055E00002A928461A708DF80A408DF81640FFF778
:1055F000B7F9204605A9FFF7B3F901211D48FFF7C8
:105600001BFA40B901211C48FFF716FA08B1FDF753
:10561000C3FB08B070BDFDF7BFFBF3E7FDF7BCFBB4
:10562000134B93E8070002AE03C60C33327093E8C5
:10563000070005AB03C3012602A920461A708DF8A6
:105640000A608DF81660FFF78BF92846FDF7A4FB7A
:10565000304605A9FFF784F92846FDF79DFBCCE706
:10566000E47700000C780000F87600007D5500001B
:10567000C4760000680900206A09002010B5FFF711
:105680003DFA00B910BD0446FDF786FB082CF9D1A0
:105690000548064B0649C01AC008000440F0010046
:1056A000BDE81040FCF788BF0C780000E4770000EC
:1056B00004770000000000002DE9F04FDFF894A10E
:1056C0005D4CBAF9020087B0A0F2BC7001F068FA34
:1056D000CDE90401BAF90000A0F2BC7001F060FA53
:1056E0009DED041B41EC100B00F06AFE002251EC12
:1056F000100B524B01F0BEFA4DA3D3E9002301F089
:10570000E3FB00224D4B01F0FFF8D4E9008942464B
:105710004B4606460F4601F01FFD002854D0404678
:1057200032463B464946DFF8308101F0EBF8002273
:10573000424B98F8005001F02DFD002861D1404AFD
:10574000404BBAF90080BAF902909B1ADB08C4E911
:10575000006700221C0430460023394644F003044D
:1057600001F0FAFC002856D1DFF8F0B03946304697
:1057700001F030FD824601F013FA0022CDE9040168
:1057800000233046394601F005FD00283ED0DDE912
:1057900004233046394601F0B5F800222A4B01F0C7
:1057A00069FA01F017FDCDE9005BCDE902A04B4697
:1057B000424620462549FDF7A3F8FDF745F90028A4
:1057C000FBD107B0BDE8F08FDFF88CB042464B4606
:1057D000304639469BF8005001F0DCFC0028AED082
:1057E00042464B463046394601F08CF80022134BB6
:1057F00001F0D0FC0028A2D0013DEDB28BF80050A2
:105800009DE70135EDB288F8005098E732463B46F7
:10581000DDE90401BFE700220D4B3046394601F0B7
:10582000B9FC0028A0D0DFF838B09FE7AFF30080C4
:10583000EA2E4454FB2109406009002000806640A4
:10584000E47700000C78000000005940E07600008A
:105850000000F0BF680900206C09002010770000EC
:10586000DC7600002DE9F84F4400DFF85CB1261823
:105870000BEBC6068146F76A012F8A46904667D031
:105880003DD3022F30D100F1010909EB4909756AB6
:105890004FEAC9090027B36A346AAB4203F1FF3209
:1058A0009CBF1B1903F1FF33A4EB05048CBF531BF2
:1058B0005B1B0BEB0902444528BF44469C425068E1
:1058C00028BF1C46284451462246FCF749F8336A53
:1058D00025449D422744A8EB0408A24408D07562E1
:1058E000B8F1000FD7D100E000273846BDE8F88FA7
:1058F00000231D467362B8F1000FCCD1F5E7B36AFF
:10590000756AAB429CBF326A9B18013B5B1B984592
:10591000EBD8044400F101090BEBC40409EB49097D
:105920000BEBC90B266ADBF80400761BB045284454
:1059300043D33246A8EB0605FCF712F80AEB060142
:10594000DBF804002A46FCF70BF847466562CCE713
:10595000D6E90825B76AAF4298BFBF18461C013F79
:1059600006EB46067F1B0BEBC606474528BF47469E
:105970007068A2EB05084745284412D3A14442466B
:10598000A7EB08050BEBC90BFBF7EAFF0AEB0801D5
:1059900070682A46FBF7E4FFCBF824503846BDE890
:1059A000F88FA1440BEBC90B3A463D44FBF7D8FFF7
:1059B000CBF824503846BDE8F88F42464544FBF703
:1059C000CFFF4746656290E7880B002038B5114C41
:1059D000114B1248E36110254FF40073104A11492E
:1059E0002362E06400232565E01D0225A362636253
:1059F000E362A3656365E365A261A264C4E904553B
:105A000000F02CF82046084900F028F82023A37164
:105A100038BD00BF880B00208009002070090020DD
:105A20001477000020770000247700000FB40A4BA1
:105A300013B51C6824B1A36913B9204600F056F8C9
:105A400005AB049AA1680193204600F003F902B067
:105A5000BDE8104004B0704700000020034611F874
:105A6000012B03F8012B002AF9D17047002310B550
:105A70000446C0E90033836081814366C281C0E986
:105A800004338361194608225C30FAF74BFC054B5E
:105A90006362054BA362054BE362054B24622363FB
:105AA00010BD00BF815E0000A35E0000DB5E000051
:105AB000FF5E0000014900F085B800BFD961000019
:105AC00070B54A1E682555430E4605F17401FCF772
:105AD00089FA044640B10021C0E900160C30A060EC
