:1000000000000120B5020000DD020000DF02000058
:10001000E1020000E3020000E50200000000000031
:10002000000000000000000000000000E7020000E7
:10003000E902000000000000EB020000ED020000F9
:10004000EF020000EF020000D5070000EF02000001
:10005000EF020000EF020000EF020000EF020000DC
:10006000EF020000EF020000EF020000EF020000CC
:10007000EF020000EF020000EF020000EF020000BC
:10008000EF020000EF020000EF020000EF020000AC
:10009000EF020000EF020000EF020000EF0200009C
:1000A000EF020000EF020000EF020000EF0200008C
:1000B000651A0000EF0200000000000000000000D0
:1000C000EF020000211B0000DD1B0000EF0200001A
:1000D000EF020000EF020000EF020000000000004D
:1000E0000000000000000000000000000000000010
:1000F0000000000000000000000000000000000000
:1001000000000000000000000000000000000000EF
:1001100000000000000000000000000000000000DF
:1001200000000000000000000000000000000000CF
:1001300000000000000000000000000000000000BF
:1001400000000000000000000000000000000000AF
:10015000000000000000000000000000000000009F
:10016000000000000000000000000000000000008F
:10017000000000000000000000000000000000007F
:10018000000000000000000000000000000000006F
:10019000000000000000000000000000000000005F
:1001A000000000000000000000000000000000004F
:1001B000000000000000000000000000000000003F
:1001C000000000000000000000000000000000002F
:1001D000000000000000000000000000000000001F
:1001E000000000000000000000000000000000000F
:1001F00000000000000000000000000000000000FF
:1002000010B5054C237833B9044B13B10448AFF350
:1002100000800123237010BDB40000200000000006
:10022000982E000008B5034B1BB103490348AFF3F8
:10023000008008BD00000000B8000020982E0000DB
:10024000154B002B08BF134B9D46A3F5803A0021A8
:100250008B460F461348144A121A01F0E1FD0F4B6A
:10026000002B00D098470E4B002B00D09847002061
:10027000002104000D000D48002802D00C48AFF307
:10028000008001F0A9FD2000290001F011F801F023
:100290008FFD00BF000008000000012000000000EA
:1002A00000000000B40000209003002000000000C7
:1002B000000000000649074A074B9B1A03DD043B78
:1002C000C858D050FBDC01F05DF8FFF7B9FF000023
:1002D000A42E000000000020B4000020FEE7FEE78E
:1002E000FEE7FEE7FEE7FEE7FEE7FEE7FEE7FEE7E6
:1002F00000B585B000230390194601AA44F201001D
:10030000CDE9013300F004F805B05DF804FB00BF4F
:1003100072B6094B1B68DB0700D500BEBFF34F8FD9
:100320000649074BCA6802F4E0621343CB60BFF38F
:100330004F8F00BFFDE700BFF0ED00E000ED00E0F3
:100340000400FA0559B142B1531E1A4005D182602A
:1003500001608380C26010467047092070470E20FC
:10036000704700BF10B403468468C0689A88001BB9
:1003700082420AD3D8681C6802400020A154DA687F
:100380000132DA605DF8044B704704205DF8044BDD
:10039000704700BF03468068DA6890420DD010B401
:1003A00098689A881C6802400020A25C0A709A68CB
:1003B00001329A605DF8044B70470520704700BF1A
:1003C00030B50478012C83B027D017D3022C13D179
:1003D000384B394D1A78C168AA5C01918DF80040FC
:1003E000002A33D103F10C000122344900F038FC1B
:1003F000334B68461B68984703B030BD31493248DB
:10040000FFF7C8FF002844D002A8032300F8083DE6
:100410002B4B1B68984703B030BD43682B4D1978B0
:100420002846FFF79FFF40B3254B01908DF8004011
:100430001B6868469847A968EB68AA885B1A9A42C5
:100440000AD2234B01221A7003B030BD181D0122BD
:100450001A4900F07FFECBE71648174A0378D35CB1
:100460002BB9012215490C3000F0FAFBC4E7012238
:100470001249043000F06EFEBEE7AA68EB689A42AB
:10048000D9D002AB0E4A03F8080D126818469047FF
:10049000D1E70848084A0378D35C2BB901220949FF
:1004A0000C3000F06BFBA7E701220649043000F096
:1004B000F3FDA1E70000002088030020F8000020E1
:1004C000D0000020FC000020E8000020D400002024
:1004D000E40000202DE9F045324C89B0226000296B
:1004E00055D00C4680468A882F4809689A46FFF7FF
:1004F00029FF10B109B0BDE8F085A289A1682B4899
:10050000FFF720FF0028F5D1294D98F810C0D8F842
:100510001470284E0FCD6C460FC495E80F0098F864
:1005200011501CF1000C18BF4FF0010C002D84E895
:100530000F00D8F80850D8F80040D8F804300697D3
:1005400014BF0E220022D8F80C708DF815206946D1
:100550003046194A8DF81CA08DF814C0CDE90275FB
:10056000CDE9003400F0F6F80028C3D1D8F8003007
:10057000124A01331070BDD0114A3378D35C53B99D
:1005800006F10C0001220F4900F06AFBB2E70720D8
:1005900009B0BDE8F085301D01220A4900F0DAFDFE
:1005A000A8E700BFD0000020D4000020E800002011
:1005B000102D000000000020C1030000E400002016
:1005C00088030020F800002070B5114C0146114846
:1005D0002678FFF7DFFE05460EB9284670BD0E48A7
:1005E0000E4A0378D35C0022227053B90C300122EA
:1005F0000B4900F035FB0028EFD0FFF779FE2846C5
:1006000070BD01220649043000F0A4FDF3E700BFED
:10061000E4000020D4000020000000208803002017
:10062000F800002070B501461548FFF79BFE044610
:1006300008B1204670BD134D134E2B78F35CABB957
:1006400005F10C0000F000FB0028F2D10F490C4826
:10065000FFF7A0FE0028ECD12B780C49F35C0122B7
:1006600043B90B48BDE8704000F088BA281D00F07F
:1006700063FDE9E70748BDE8704000F00DBD00BF2D
:10068000E80000200000002088030020FC0000207B
:100690000C0000200400002072B6024A13680133E7
:1006A0001360704700010020034A1368013B136088
:1006B00003B962B6704700BF0001002070B5161E76
:1006C00007DD0C468D1914F8010BFFF7ABFFA542AF
:1006D000F9D1304670BD00BF10B50C462046FFF77B
:1006E00073FF0528FAD0012010BD00BF30B585B0DA
:1006F0000478094A094B45688DF80040047AC068BF
:10070000039053F8213001958DF8084052F82110DC
:100710006846984705B030BD04010020080100205C
:1007200030B585B0047845688DF80040D0E90240C6
:10073000064A074B039053F8213001958DF8084085
:1007400052F821106846984705B030BD04010020DA
:1007500008010020F0B51A4B06781A4D0C6991F883
:100760001DE045F826400746174803F806E040F824
:1007700026200C4694460FCC89B06D460FC594E8F0
:100780000F0085E80F000496BEF1000F0BD0BCF1FE
:10079000000F0E4A694607F1040008BF002200F06E
:1007A00099FB09B0F0BDBCF1000F094A694607F199
:1007B0000C0008BF002200F00FF909B0F0BD00BF27
:1007C000880300200401002008010020ED0600003D
:1007D00021070000014B1B68184700BF0C010020D7
:1007E00038B50C4B984201D0002038BD00200D4692
:1007F000FFF752FF084B1C7924B10020FFF754FF8C
:10080000112038BD012220461D601A71FFF74CFFF0
:10081000204638BD002000400C01002030B56C4A55
:10082000D2F8043399058BB066D5D2F82431002B69
:1008300062D00023C2F82431D2F8243103934FF45C
:100840000171644B0398C2F8081393F8291009B991
:10085000012151605E4902228DF81820D1F88024D0
:10086000C1F880249869D96809920022CDE907105F
:10087000C3E90622D3E9001406A8A047544AD2F8D7
:100880001C31BBB1534B186A5969884269D350482F
:100890000022C0F81C21D0F81C010190019849B138
:1008A00098688DF8182008915A610790D3E90012D2
:1008B00006A89047464AD2F84431DBB10021454BA7
:1008C000C2F84411D2F8440193F82910009000981E
:1008D00009B1012111609A6962B10022586AD96890
:1008E0009A610122CDE907108DF8182006A8D3E9F6
:1008F000001290470BB030BD354AD2F804335B0785
:10090000BCD5D2F80831002BB8D0324B99690029F8
:100910003CD00021C2F80811D2F8081104910499C2
:10092000D868596AD2F8182542545A6A996901322E
:100930005A625A6A8A42A1D1DA691968002A2ED00D
:10094000D8685D6A1C699A61079000220120DC600A
:10095000DA615A628DF8180008955B6806A8984716
:100960008CE793F8280000F0FF0400288FD1C2F82C
:100970001C41D2F81C11029102999C68186A196AEC
:10098000205C01311962C2F81C0593E7C2F8081116
:10099000D2F8080105900598D2F81825C9E793F810
:1009A000292012B90A4A01205060094A4FF4017007
:1009B000C2F80803586ADA680890002401200792F8
:1009C0008DF818005A689C6106A8904756E700BF4A
:1009D00000200040140100202DE9F041DFF898814B
:1009E00007792C2606FB078682B096F82A30002B62
:1009F00040F08F800D4604465C4900681646FFF7BC
:100A0000EFFE002840F081802B68591C0CD0012299
:100A10004FF0A04102FA03F3C1F808352B6803F543
:100A2000E073032241F823206B685A1C06D003F5BB
:100A3000E0734FF0A042002142F823102368AA6916
:100A4000C3F82425297D6B7D22680B43C2F86C35E1
:100A5000D5E900122368C3F81425C3F80C152B7DC3
:100A6000012B5AD02C2303FB07F308EB030256603B
:100A70002A6948F80320002E34D022682B7F3C4D91
:100A80000021C2F81C11D2F81C2100922268009E9D
:100A9000C2F84411D2F84411226801910199C2F8B8
:100AA00004532168090B4AB25B01002ADBB256DB12
:100AB00002F1604202F5614282F800332268120BB3
:100AC00042F3C40323F0604323F0030303F16043C4
:100AD00003F5614302F01F02012101FA02F2C3F89B
:100AE00080211A602C23246803FB0783002204253D
:100AF0000121C4F8005583F82A10C3E9062283F8BF
:100B000029205A6102B0BDE8F081112002B0BDE891
:100B1000F081082002B0BDE8F081AB68591C06D016
:100B200003F5E0734FF0A042002142F82310EB6878
:100B30005A1C0DD001224FF0A04102FA03F3C1F874
:100B40000835EB6803F5E073032241F82320EB68D6
:100B50002268A968C2F80835C2F8101582E7054A6C
:100B600001F00F010A441376A8E700BF1D0800003A
:100B700080000200FCEC00E014010020F0B5314ED2
:100B800005792C2303FB056385B05C69002C53D1E8
:100B90001C62996083F828405A610268C2F81C41BF
:100BA000D2F81C11026802910121029F9160026833
:100BB000D3F808C0C2F81C41D2F81C110191019968
:100BC000D3F820E0196A5F681CF80EE00131196261
:100BD000C2F81CE517B1204605B0F0BD1A6A5C6981
:100BE0000168944203D819E093F828203ABBD1F861
:100BF0001C21002AF8D0C1F81C71D1F81C210392E5
:100C0000039AD3F820E01A6A1CF80EE001321A6247
:100C1000C1F81CE51A6AA242E9D30168D1F81C3177
:100C2000002BFBD00123CB6000202C2303FB0565A8
:100C300000236B6105B0F0BD112005B0F0BD0F20A1
:100C4000F3E700BF140100200379044A2C2101FBC3
:100C500003235869003018BF012070471401002099
:100C6000F0B4514D04792C2303FB045386B05F6824
:100C700027B103684FF40176C3F808632C2303FB04
:100C800004539E696EB1DE690EB3002F00F08480BC
:100C900003684FF401721120C3F8042306B0F0BCBE
:100CA000704793F829709A61D9605E62DE61002F07
:100CB00060D02C2202FB04520168536853B14FF4F8
:100CC0000173C1F80433002006B0F0BC704719610D
:100CD000DA61EEE7C1F84431D1F844310393039B64
:100CE0000368D3F82461D3F80871D3F8441157B9D5
:100CF000002936D1002EF4D02C2303FB045400230A
:100D0000A3610320E0E7002EF6D161BB966996B19E
:100D1000C3F80811D3F8081104910499D668516AF0
:100D2000D3F818357354536A916901335362536A87
:100D30009942D5D808E0C3F80861D3F808110591A5
:100D40000599D3F81835536A2C2303FB0454002269
:100D500094F82930A2610BB3036801211046196091
:100D6000B2E7002EC8D12C2303FB04540023A36157
:100D70000F20A9E70368C3F82471D3F8242103687E
:100D80000192019AC3F80871D3F80821036802920E
:100D9000012202991A608CE7112095E7026801216F
:100DA0001846516090E700BF14010020F0B5474B92
:100DB000D3F8242189B0002A54D00021C3F824118B
:100DC000D3F82421029202228DF81020029AD3F83F
:100DD00080043F4AC3F880040790D3F83C05D368E9
:100DE0008DF81800C2E9061105931168536804A82C
:100DF0009847364BD3F84421BAB10020344AC3F89F
:100E00004401D3F8444191690194019C69B1D3F83C
:100E10003C458DF81840D368906101240593116812
:100E200053688DF8104004A89847284BD3F8202128
:100E3000B2B10021264AC3F82011D3F820415069ED
:100E40000094009C60B1D3F84C0593688DF81800AD
:100E50008DF810105161059304A8D2E9001398474A
:100E600009B0F0BDD3F810110029C2D0C3F8102189
:100E7000D3F810111648039103998169D3F83C45C2
:100E80008C42B6D1C569C768D0E90016E4B295B105
:100E9000D3F800C285612CF02005C261C3F800526E
:100EA0000369C36001228DF8184005978DF8102062
:100EB00004A8B0479DE7012385618DF81840059788
:100EC0008DF8103004A8B04793E700BF0020004021
:100ED000400100202DE9F04307796B4E4FEAC70827
:100EE00008EB070306EB830385B093F82030002B53
:100EF00040F09E800D460446644900689146FFF725
:100F00006FFC002840F090802B68591C0CD0012207
:100F10004FF0A04102FA03F3C1F808352B6803F53E
:100F2000E073032241F823206B685A1C06D003F5B6
:100F3000E0734FF0A042002142F823102368AA6911
:100F4000C3F82425297D6A7D23680A43C3F86C25EC
:100F5000D5E900312268C2F80C35C2F814152B7D92
:100F6000012B69D008EB07029200B318C3F8049074
:100F70002B69B350B9F1000F45D021682B7F444D48
:100F80000022C1F81021D1F8101100912168DDF87C
:100F900000C0C1F82021D1F8201101912168DDF8AD
:100FA00004C0C1F82421D1F8241102912168DDF890
:100FB00008C0C1F84421D1F8441122680391039973
:100FC000C2F804532168090B4AB25B01002ADBB264
:100FD00054DB02F1604202F5614282F8003322687C
:100FE000120B42F3C40323F0604323F0030303F125
:100FF000604303F5614302F01F02012101FA02F28E
:10100000C3F880211A604744226806EB8706002354
:101010000124082186F82040C2F80015C6E90633ED
:10102000736105B0BDE8F083112005B0BDE8F08321
:10103000082005B0BDE8F083AB68591C06D003F565
:10104000E0734FF0A042002142F82310EB685A1CD5
:101050000DD001224FF0A04102FA03F3C1F8083588
:10106000EB6803F5E073032241F82320EB68226864
:10107000A968C2F80835C2F8101573E7054A01F0EF
:101080000F010A441376AAE740010020AD0D0000CD
:1010900010030200FCEC00E001F06043B3F1005FDC
:1010A0002CD1F0B50679234F4FEAC60C0CEB0604A1
:1010B00007EB840483B0636913BBA16062610568B8
:1010C000C5F82031D5F820E10568CDF804E0DDF859
:1010D00004E0C5F85831D5F858E10568CDF800E0CE
:1010E000DDF800E0C5F84415C5F84825026801217F
:1010F000916062683AB1184603B0F0BD10207047A5
:10110000112003B0F0BD036800E08AB9D3F82011C4
:10111000D3F858210029F8D0002A14BF0F2000204E
:101120000CEB060307EB830300225A6103B0F0BD0A
:101130000F20F5E7400100200379054A03EBC303C4
:1011400002EB83035869003018BF0120704700BFCD
:101150004001002001F06043B3F1005F7ED1F0B4A4
:101160000579464CEB005E1904EB860682B0766882
:1011700026B107684FF4047CC7F808C32B4404EB7E
:1011800083039D69002D42D19A61DD61D9600368B6
:10119000C3F81051D3F8106103680196019EC3F89B
:1011A0004451D3F8445103680095009DC3F83415A9
:1011B000C3F83825036801221A6005790368EE0038
:1011C000721904EB820252685AB14FF40472C3F8E8
:1011D0000423002002B0F0BC7047002942D100284F
:1011E00046D1D3F81021D3F84411D3F82401002AB2
:1011F000F3D0354400284FF0000304EB850414BFFE
:10120000032018469942A36118BF0F20E2E7DD6969
:101210003DB12EB303684FF40472C3F804231120C8
:10122000D8E71961DA610368C3F81051D3F8106187
:1012300003680196019EC3F84451D3F844510368F2
:101240000095009DC3F83415C3F838250268D2F81C
:10125000003243F02003C2F80032AEE7102070479E
:101260001120B7E7354404EB85040F20A261B1E7F4
:10127000354404EB85040320A161ABE74001002065
:101280000378022B02D0012B00D070474068FFF793
:101290002FB800BF38B5054D044645F001054FF4A1
:1012A0007A40A847013CFAD138BD00BF502D00005C
:1012B00030B5294D294B8BB004AC00930FCD0FC432
:1012C00095E8030084E80300254C264A4FF4807516
:1012D0000723694604A80195CDE90245FFF7FAF80E
:1012E000002835D1204800F0A3FD204800F0A0FDE3
:1012F00000F0D2FC1E4800F09BFD00F0E9FC1D4808
:1013000000F096FD41F28830FFF7C4FF1A4800F064
:101310008FFD00F0F7FC194800F08AFD4FF4FA50F9
:10132000FFF7B8FF164800F083FD4FF4487000F057
:1013300003FD4FF4FA50FFF7ADFF114800F078FDC0
:101340006FF0C70000F0F8FC20BF40BF20BFFBE7F4
:10135000FEF7CEFFC6E700BF302D0000640100207D
:101360006402002081120000582D0000642D00004E
:10137000802D0000AC2D0000B42D0000BC2D00001D
:10138000C42D000030B4904B1B78062B20D08F4B1F
:101390001B68062B00F085808D4AD2F8883043F414
:1013A0007003C2F88830BFF34F8FBFF36F8F4FF0D9
:1013B0001023D3F80022002AC0F28681D3F8043229
:1013C000002BC0F28181834B834A1A6030BC704786
:1013D000824B1B681D07DAD1814B1B6803F0F002BA
:1013E000302A00F09E8003F0E003402B00F099804B
:1013F0007B4B1B6803F0F003302B00F0B980784B77
:101400001B6803F0F002302A56D003F0E003402BB3
:1014100052D0734B1B6803F0F003302B00F0B68002
:101420006F4B1B6803F0F002302A66D003F0E00334
:10143000402B62D06A4B1B6803F0F003302B00F0A6
:10144000B580674B1B6803F0F003302B79D0644BF9
:101450001B6803F0F003502B00F0E480604B1B6826
:1014600003F0F002302A37D003F0E003402B33D0F2
:101470005B4B1B6803F0F002302A03D003F0E0035B
:10148000402B84D14FF08043D3F80024D20744BFCF
:101490006FF00102C3F800244C4B1B68062B7FF44D
:1014A0007BAF504B1B68062B7FF476AF4E4A136818
:1014B00043F4806313606FE74C4B434A1B68127818
:1014C0004B49C3F34233062A0B6048D1434B1B6898
:1014D00019077FF45CAF9CE7464A3B4B12681B78C8
:1014E000454902F04F02062B0A607FF450AF3B4B98
:1014F0001B6819077FF44BAFBAE74FF08043002217
:10150000C3F80C21C3F81021C3F838252E4B1B78E3
:10151000062B7FF43CAF314B1B681B077FF437AFC2
:1015200088E7364B284A1B6812783549C3F30423F1
:10153000062A0B60EAD1294B1B681C077FF427AFF2
:1015400056E7304C204A304912783048304B052558
:10155000256001250D6000243F2104601960062AE2
:101560007FF415AF1D4B1B681C077FF410AF6EE7AF
:10157000154B284A1B7828491160062B7FF407AFCA
:10158000164B1B6818077FF402AF38E723490E4B50
:10159000CA681B7822F08072062BCA607FF4F7AE0F
:1015A0000E4B1B681A077FF4F2AE39E7064B1C4A54
:1015B0001B780321062B11607FF4E9AE074B1B68F3
:1015C0001D077FF4E4AE3CE7E00F00F030010010AF
:1015D00000ED00E0140000200090D003E40F00F0C4
:1015E000E80F00F0340100103C17004044020010E6
:1015F0003C05004058020010E40E00402403001097
:1016000040350140105600408856004018560040B2
:101610001456004074C007400DF0ADBAF0ED00E084
:10162000A00500404FF08053404AD3F80414C2F89C
:101630002015D3F80814C2F82415D3F80C14C2F8F6
:101640002815D3F81014C2F82C15D3F81414C2F8C6
:101650003015D3F81814C2F83415D3F81C14C2F896
:101660004015D3F82014C2F84415D3F82414C2F856
:101670004815D3F82814C2F84C15D3F82C14C2F826
:101680005015D3F83014C2F85415D3F83414C2F8F6
:101690006015D3F83814C2F86415D3F83C14C2F8B6
:1016A0006815D3F840142248C2F86C15D3F84414D6
:1016B0000378C2F87015062B7FF469AE1D4B1B68CA
:1016C00018077FF464AEC9E61B4B0122C3F804255A
:1016D000D3F80024002AFBD04FF01023152216491E
:1016E000C3F80022D1F80034002BFBD04FF01022B9
:1016F0001521114BC2F80412D3F80024002AFBD0A4
:1017000000220D49C3F80425D1F80034002BFBD08A
:10171000BFF34F8F09490A4BCA6802F4E0621343D2
:10172000CB60BFF34F8F00BFFDE700BF00C000409C
:10173000E00F00F0E40F00F000E0014000ED00E0F9
:101740000400FA05F0B490F804C0874B4FEACC04CB
:101750001D1988B02D79002D40F0D38043F83C202E
:101760000D78FF2D00F0D18025F0800201262D0696
:10177000049206FA02F600F1F1804FF0A045C5F898
:101780000C654FF0A04502F5E072032645F8226093
:101790004D78FF2D00F0C08025F0800201262F0635
:1017A000059206FA02F600F1D4804FF0A045C5F884
:1017B0000C654FF0A04502F5E072032645F8226063
:1017C0008D78FF2D00F0AF8025F0800201262D06D8
:1017D000069206FA02F600F1B7804FF0A045C5F870
:1017E0000C654FF0A04502F5E072032645F8226033
:1017F000CD78FF2D00F09E8025F0800215F0800F3F
:101800004FF001064FF0A04506FA02F6079214BF0A
:10181000C5F80865C5F80C6502F5E0724FF0A04503
:10182000032645F82260DDE904760268069DC2F8C9
:101830006075C2F86465C2F86855079DC2F86C55BA
:1018400002680125C2F8005502688E790D894F792A
:10185000C2F80C75C2F80465C2F8085502684D89D3
:10186000C2F8105505680022C5F800220568C5F8C1
:1018700000230568C5F81C21D5F81C61056804968D
:10188000049EC5F81021D5F8106105680396039EE3
:10189000C5F81421D5F8146105680296029EC5F8B2
:1018A0000421D5F8045153F83C200195019D0AB359
:1018B00005680A792D0B69B252010029D2B23DDBCD
:1018C00001F1604101F5614181F800230168090BD4
:1018D00041F3C40222F0604222F0030202F16042AE
:1018E00002F5614201F01F01012000FA01F1C2F886
:1018F000801111602344012200201A7108B0F0BC4D
:101900007047082008B0F0BC70474D784FF0FF32A8
:10191000FF2D04927FF440AF8D784FF0FF32FF2D02
:1019200005927FF451AFCD784FF0FF32FF2D069234
:101930007FF462AF4FF0FF32079274E70B4905F076
:101940000F0529440A76C1E74FF0A045C5F80865A0
:1019500047E74FF0A045C5F808652AE74FF0A045D6
:10196000C5F808650DE700BF64030020FCEC00E04B
:10197000F0B404680E680579C4F820658E88C4F850
:1019800024658E68C4F82865CE68C4F82C650468A0
:101990000E68C4F840658E88C4F844658E68C4F843
:1019A0004865C968C4F84C15016802F0010404EBED
:1019B0005202C1F81425DA0782B0D9B206683DD4C4
:1019C00013F002023CD1002CC6F800220CBF0826FE
:1019D0000C26234C04EBC50254F835405171022506
:1019E0001571D4B101F00402002A01F0080C0FBFF8
:1019F0002A461222B225922411BF3227A225822420
:101A00002227BCF1000F1CBF3A462C46056811F096
:101A1000100F08BF2246C5F8002301680022C1F854
:101A20000421D1F8041101911B0601990ED4036819
:101A300001211046995102B0F0BC70471022C2E754
:101A40004CB10822C6F800220C26C2E700683044D8
:101A500002B0F0BC70470422C6F800220826B8E79E
:101A60006403002000B52C4BD3F8102185B072B16F
:101A700000212A4AC3F81011D3F8101153790391A9
:101A80000399590703D513680BB101209847224BDE
:101A9000D3F8142172B10021204AC3F81411D3F8ED
:101AA0001411537902911B07029903D513680BB1E6
:101AB00002209847184BD3F81C215AB10021174A2D
:101AC000C3F81C115079D3F81C31019310F01000A9
:101AD000019B14D0104BD3F80421CAB100210F4A46
:101AE000C3F80411D3F80411136800910121009880
:101AF00011716BB1032005B05DF804EB1847136852
:101B0000002BE7D09847044BD3F80421002AE5D1F5
:101B100005B05DF804FB00BF00C001406403002075
:101B200000B52C4BD3F8102185B072B100212A4AA0
:101B3000C3F81011D3F81011537B0391039959077F
:101B400003D593680BB101209847224BD3F8142199
:101B500072B10021204AC3F81411D3F81411537B39
:101B600002911B07029903D593680BB10220984795
:101B7000184BD3F81C215AB10021174AC3F81C1185
:101B8000507BD3F81C31019310F01000019B14D04E
:101B9000104BD3F80421CAB100210F4AC3F8041135
:101BA000D3F80411936800910121009811736BB16F
:101BB000032005B05DF804EB18479368002BE7D0CD
:101BC0009847044BD3F80421002AE5D105B05DF80D
:101BD00004FB00BF001002406403002000B52C4B42
:101BE000D3F8102185B072B100212A4AC3F8101130
:101BF000D3F81011537D03910399590703D5136945
:101C00000BB101209847224BD3F8142172B1002167
:101C1000204AC3F81411D3F81411537D02911B0705
:101C2000029903D513690BB102209847184BD3F8DA
:101C30001C215AB10021174AC3F81C11507DD3F85A
:101C40001C31019310F01000019B14D0104BD3F8FD
:101C50000421CAB100210F4AC3F80411D3F80411BA
:101C6000136900910121009811756BB1032005B033
:101C70005DF804EB18471369002BE7D09847044B35
:101C8000D3F80421002AE5D105B05DF804FB00BFBC
:101C9000002002406403002030B50B4B93E807009E
:101CA0004FF0A04485B00323C4F84C374FF400250F
:101CB00001ABC4F8085583E8070019460022034821
:101CC000FFF740FD05B030BDD42D00001800002006
:101CD00070B50A4B0FCB84B04FF0A0456C464FF463
:101CE0000026C5F8086584E80F00214601234FF45B
:101CF000FA620348FFF73CFE04B070BDE02D00001F
:101D00001800002070B50A4B0FCB84B04FF0A045EF
:101D10006C464FF40026C5F80C6584E80F00214698
:101D2000012304220348FFF723FE04B070BD00BF67
:101D3000F02D00001800002070B5002886B01ADDD4
:101D400006A94FF0A0424FF400204FF47A73C2F876
:101D50000C0521F8143D0120002402460291ADF843
:101D60000C002346322502A91048CDE90454FFF7A0
:101D7000FFFD06B070BD06A94FF0A04340424FF4EE
:101D80000022C3F8082521F8140D01250024029132
:101D90002A462346322602A90448ADF80C50CDE964
:101DA0000464FFF7E5FD06B070BD00BF1800002019
:101DB00008B5074B044613B10021AFF30080054B73
:101DC0001868836A03B19847204600F093FF00BF6C
:101DD00000000000002E000070B50D4E0D4CA41B3D
:101DE000A4100025A54209D10B4E0C4C00F084FF35
:101DF000A41BA4100025A54205D170BD56F82530BE
:101E000098470135EEE756F8253098470135F2E757
:101E1000AC000020AC000020AC000020B00000208E
:101E200002440346934200D1704703F8011BF9E7CF
:101E30000FB40A4B13B51C6824B1A36913B920462B
:101E400000F04EF805AB049AA1680193204600F01B
:101E500055F902B0BDE8104004B0704748000020BA
:101E6000002310B50446C0E90033836081814366D6
:101E7000C281C0E904338361194608225C30FFF750
:101E8000CFFF054B6362054BA362054BE362054B35
:101E90002462236310BD00BF592600007B2600008A
:101EA000B3260000D7260000014900F085B800BF26
:101EB000B129000070B54A1E682555430E4605F14C
:101EC000740100F097F8044640B10021C0E9001603
:101ED0000C30A06005F16802FFF7A2FF204670BD3C
:101EE000836910B5044633BBC0E912330365124B56
:101EF000124A1B688262984204BF0123836100F08A
:101F00001FF86060204600F01BF8A060204600F03B
:101F100017F80022E06004216068FFF7A1FF0122AA
:101F20000921A068FFF79CFF02221221E068FFF759
:101F300097FF0123A36110BD002E0000A91E000021
:101F4000F8B51B4B1E68B369074613B93046FFF757
:101F5000C7FF4836D6E90134013B03D5336833B1B6
:101F60003668F7E7B4F90C506DB16834F4E7042132
:101F70003846FFF79FFF30600028F1D10C233B600B
:101F800004462046F8BD0B4B6566C4E90055A560C4
:101F9000C4E90335C4E905550822294604F15C006B
:101FA000FFF73EFFC4E90D55C4E91255E9E700BF4C
:101FB000002E00000100FFFF2DE9F843804689460E
:101FC00000F14804002614B93046BDE8F883D4E98E
:101FD0000175013F01D52468F5E7AB89012B07D9CD
:101FE000B5F90E30013303D029464046C8470643B1
:101FF0006835EEE770B5CD1C25F0030508350C2DCE
:1020000038BF0C25002D064601DBA94203D90C235D
:102010003360002070BD00F0BBFD214A14682146EA
:1020200091B9204C23681BB9304600F005FB2060B5
:102030002946304600F000FB431C24D10C233360BA
:10204000304600F0A6FDE4E70B685B1B18D40B2BB1
:102050000FD90B60CD50CC18304600F09AFD04F13A
:102060000B00231D20F00700C31AD3D05A42E250C0
:10207000D0E78C424B6816BF636013600C46EBE7F9
:102080000C464968CCE7C41C24F00304A04205D0E8
:10209000211A304600F0D0FA0130CFD02560DBE7BE
:1020A0007C030020800300209368013B002B10B4C8
:1020B000936008DA9469A34201DB0A2903D15DF831
:1020C000044B00F00DBB1368581C106019700846D3
:1020D0005DF8044B7047F8B506460F461446D51810
:1020E000AC4201D1002007E03A4614F8011B30460B
:1020F000FFF7DAFF431CF3D1F8BD00002DE9F04FE4
:102100000C469DB017461D46064618B183690BB9AB
:10211000FFF7E6FE7C4B9C4258D17468A3891807F0
:102120005ED52369002B5BD00023099320238DF813
:10213000293030238DF82A3003954FF0010BB84633
:10214000454615F8013B0BB1252B54D1B8EB070AD6
:102150000BD053463A4621463046FFF7BCFF0130CC
:1021600000F0C280099B5344099398F80030002B7B
:1021700000F0BA8000234FF0FF32CDE9052304932D
:1021800007938DF853301A93A846052218F8011BBF
:102190005E4800F0ADFC049B78BBD90644BF20220A
:1021A0008DF853201A0744BF2B228DF853202A782C
:1021B0002A2A2AD0079AA84600200A25414611F863
:1021C000013B303B092B69D960B324E0504B9C4262
:1021D00001D1B468A2E74F4B9C4208BFF4689DE769
:1021E0002146304600F0E0FA00289DD04FF0FF3045
:1021F0001DB0BDE8F08FA846A2E7444A801A0BFA4A
:1022000000F0184304904546BEE7039A111D12687A
:102210000391002A01DB079204E0524243F00203DB
:102220000792049398F800302E2B0ED198F80130C5
:102230002A2B38D1039B1A1D1B680392002BB8BFB1
:102240004FF0FF3308F102080593334D98F8001062
:102250000322284600F04CFC40B14023401B03FA07
:1022600000F0049B034308F10108049398F8001060
:102270002A488DF82810062208F1010700F038FCE2
:10228000002837D0264B1BBB039B073323F00703E3
:1022900008330393099B4B44099350E705FB023233
:1022A000012088468AE7002308F1010805931946B2
:1022B0000A25404610F8012B303A092A03D9002B91
:1022C000C3D00591C1E705FB012101238046F0E75A
:1022D00003AB00932246134B04A93046AFF30080B2
:1022E000B0F1FF3F8146D5D1A3895B063FF57EAFB4
:1022F00009987DE703AB009322460A4B04A93046B8
:1023000000F088F8ECE700BF242E0000642E0000E7
:10231000442E0000042E00006A2E00006E2E0000E5
:1023200000000000D72000002DE9F04791461F462D
:102330008A680B69DDF820809342B8BF1346C9F85C
:10234000003091F8432006460C4612B10133C9F81B
:1023500000302368990642BFD9F800300233C9F82B
:102360000030256815F0060507D104F1190AE36865
:10237000D9F800209B1AAB4228DC94F8433022683D
:10238000003318BF012392062DD404F143023946CD
:102390003046C047013020D02368E568D9F80020D6
:1023A00003F00603042B08BFAD1AA36822690CBF13
:1023B00025EAE57500259342C4BF9B1AED184FF03E
:1023C00000091A344D451AD1002008E00123524675
:1023D00039463046C047013003D14FF0FF30BDE8E9
:1023E000F0870135C3E7E1185A1C302081F843001B
:1023F000224494F8451082F843100233C5E70123C4
:10240000224639463046C0470130E6D009F101097D
:10241000D8E700002DE9F04301F1430C0C46097E9A
:1024200085B06E291746064698460C9A00F0B38090
:1024300022D8632936D00AD8002900F0B98058295B
:1024400000F0838004F1420584F8421032E06429F0
:1024500001D06929F6D120681368050603F104014B
:102460002AD51B681160002B03DA2D225B4284F809
:1024700043206F480A2239E0732900F09D8008D874
:102480006F2920D07029DDD1236843F02003236019
:1024900003E0752917D07829D4D1782384F8453002
:1024A000644855E01368191D1B68116004F142056A
:1024B00084F8423001238CE01B68116010F0400F5B
:1024C00018BF1BB2CFE713682568181D10602806D7
:1024D00001D51B6802E06806FBD51B8854486F29AC
:1024E00014BF0A220822002184F843106568A56001
:1024F000002DC0F29580216821F004012160002B9D
:102500003DD1002D40F08E806546082A0BD123680E
:10251000DB0708D5236962689A42DEBF302305F8DD
:10252000013C05F1FF35ACEB05032361CDF80080DC
:102530003B4603AA21463046FFF7F6FE01304DD157
:102540004FF0FF3005B0BDE8F083394884F84510FE
:10255000136821681D1D1B6815600A060BD5CA0784
:1025600044BF41F0200121601BB9226822F0200203
:1025700022601022B7E74D0648BF9BB2EFE76546E1
:10258000B3FBF2F102FB1133C35C05F8013D0B46CE
:102590000029F5D1B9E7136825686169181D106035
:1025A00028061B6801D5196002E06A06FBD5198070
:1025B000002323616546B9E71368191D11601D6882
:1025C00062680021284600F093FA08B1401B606061
:1025D00063682361002384F84330A7E723692A4610
:1025E00039463046C0470130AAD023689B0713D430
:1025F000E068039B9842B8BF1846A3E701234A4608
:1026000039463046C04701309AD00135E368039A15
:102610009B1AAB42F2DCEBE7002504F11909F5E760
:10262000002BACD1037884F8423004F142056CE70A
:10263000752E0000862E000038B5064C0023054696
:102640000846236000F048FB431C02D1236803B115
:102650002B6038BD8C03002010B50C46B1F90E106C
:1026600000F0E6FA0028ABBF636DA3891B1823F4C2
:102670008053ACBF6365A38110BD2DE9F0411F46B7
:102680008B89DB0505460C46164605D5022300223C
:10269000B1F90E1000F0B6F9A389B4F90E1023F4C5
:1026A0008053A38132463B462846BDE8F04100F006
:1026B00069B810B50C46B1F90E1000F0A3F9431C2F
:1026C000A38915BF606523F4805343F48053A3812D
:1026D00018BFA38110BDB1F90E1000F0D3B80000EF
:1026E000F8B50E461446054618B183690BB9FFF7D5
:1026F000F7FB214B9C422AD16C68A369A360A38994
:102700001A072ED5236963B323692068C01A636949
:10271000F6B28342374604DC2146284600F048F9E9
:1027200028BBA368013BA36023685A1C22601E706B
:1027300063690130834204D0A389DB0719D50A2ECF
:1027400017D12146284600F033F990B10FE00B4B2A
:102750009C4201D1AC68D0E7094B9C4208BFEC68B1
:10276000CBE72146284600F01FF80028CCD04FF0D8
:10277000FF373846F8BD00BF242E0000442E00006D
:10278000042E000038B5074C0546084611460022C5
:1027900022601A46FDF792FF431C02D1236803B161
:1027A0002B6038BD8C030020324B70B51D68064687
:1027B0000C4625B1AB6913B92846FFF791FB2E4BA8
:1027C0009C420FD16C68B4F90C309AB215072CD426
:1027D000D00611D40922326043F04003A3814FF0A8
:1027E000FF303EE0254B9C4201D1AC68EBE7244B27
:1027F0009C4208BFEC68E6E7510712D5616B41B116
:1028000004F14403994202D0304600F0C3F900239A
:102810006363A38923F02403A381002363602369F6
:102820002360A38943F00803A38123694BB9A389DB
:1028300003F42073B3F5007F03D02146304600F047
:1028400017F9A28912F001030CD00023A360636979
:102850005B42A361236953B9B4F90C3013F08000D3
:10286000BAD170BD920758BF6369A360F2E7002038
:10287000F7E700BF48000020242E0000442E00008F
:10288000042E000038B5064C002305460846236098
:1028900000F002FA431C02D1236803B12B6038BD5B
:1028A0008C0300208A892DE9F041054610070C466B
:1028B00058D44B68002B05DC0B6C002B02DC00208D
:1028C000BDE8F081E66A002EF9D0002312F48052B0
:1028D0002F68216A2B6032D0606DA3895A0705D515
:1028E0006368C01A636B0BB1236CC01A00230246E5
:1028F000E66A216A2846B047431CA38906D12968A5
:102900001D2948D8294ACA40D60744D5002262600A
:10291000D9042269226004D5421C01D12B6803B975
:102920006065616B2F600029C9D004F144039942AE
:1029300002D0284600F02EF900206063C0E7012392
:102940002846B047411CC8D12B68002BC5D01D2B91
:1029500001D0162B01D12F60B1E7A38943F04003CA
:10296000A381ADE70F69002FA9D093070E6808BFB8
:102970004B690F6018BF0023A6EB07088B60B8F106
:10298000000F9CDD43463A46216AA66A2846B047B6
:10299000002806DCA38943F04003A3814FF0FF30F9
:1029A0008EE70744A8EB0008E9E700BF01004020DC
:1029B00038B50B6905460C46DBB118B183690BB914
:1029C000FFF78EFA0C4B9C4209D16C68B4F90C30BD
:1029D0007BB121462846BDE83840FFF763BF074B6F
:1029E0009C4201D1AC68F1E7054B9C4208BFEC6802
:1029F000ECE7002038BD00BF242E0000442E00006C
:102A0000042E000038B5074C054608461146002242
:102A100022601A4600F058F9431C02D1236803B122
:102A20002B6038BD8C03002070B50E46B1F90E1036
:102A3000002996B014461D4607DA00232B60B3899F
:102A40001A0610D44FF480630EE06A4600F002F9D3
:102A50000028F2DB019A02F47042A2F500535A42B8
:102A60005A412A60EEE740230020236016B070BD73
:102A70008B8973B59D0706460C4607D504F14703BD
:102A8000236023610123636102B070BD01AB6A461C
:102A9000FFF7CAFF009905463046FFF7ABFA48B981
:102AA000B4F90C309A05EFD423F0030343F002038A
:102AB000A381E3E70D4BB362A389206043F0800359
:102AC000A381009B6361019B20615BB1B4F90E108F
:102AD000304600F0D1F828B1A38923F0030343F076
:102AE0000103A381A3891D43A581CDE7A91E000091
:102AF00001F0FF01102A2BDB10F0070F08D010F8AF
:102B0000013B013A8B422DD010F0070F42B3F6D1B2
:102B1000F0B441EA012141EA014122F007047FF0CB
:102B200000070023F0E80256083C85EA010586EA22
:102B3000010685FA47F5A3FA87F586FA47F6A5FA5E
:102B400087F68EB9EED1F0BC01F0FF0102F007026A
:102B500032B110F8013B013A83EA010313B1F8D115
:102B60000020704701387047002D06BF35460338F6
:102B7000073815F0010F07D1013015F4807F02BF2F
:102B8000013015F4C03F0130F0BC0138704700BF80
:102B90007047704738B50546002945D051F8043CC8
:102BA0000C1F002BB8BFE418FFF7F2FF1F4A136891
:102BB000104633B9636014602846BDE83840FFF71B
:102BC000E8BFA3420CD921686218934204BF1A6877
:102BD0005B68636004BF521822600460ECE7134630
:102BE0005A680AB1A242FAD919685818A0420BD102
:102BF00020680144581882421960DDD1106852687B
:102C00005A6001441960D7E702D90C232B60D3E73F
:102C1000206821188A4204BF11685268626004BFAC
:102C2000091821605C60C7E738BD00BF7C03002045
:102C300038B5074C054608461146002222601A4660
:102C4000FDF74AFD431C02D1236803B12B6038BD58
:102C50008C03002038B5074C002305460846114672
:102C6000236000F021F8431C02D1236803B12B60DC
:102C700038BD00BF8C03002038B5064C0023054644
:102C80000846236000F018F8431C02D1236803B102
:102C90002B6038BD8C030020024B58221A604FF085
:102CA000FF3070478C030020024B58221A604FF00F
:102CB000FF3070478C030020024B58221A6000201E
:102CC000704700BF8C030020024B58221A604FF05F
:102CD000FF3070478C030020044A05491368002B1D
:102CE00008BF0B4618441060184670478403002044
:102CF00090030020FEE700BFF8B500BFF8BC08BC99
:102D00009E467047F8B500BFF8BC08BC9E467047A9
:102D1000FFFFFFFFFFFFFFFFFFFFFFFFFFFFFFFFC3
:102D200000000000000000000000D60106010000C5
:102D300008000000060000000D0000000C0000006C
:102D40000000000000E0D7010000000000000000CB
:102D50000338FDD8704700000D0A48656C6C6F772A
:102D60002E0D0A00496E697469616C697A65207478
:102D7000686520647276383830310D0A0000000032
:102D8000696E697469616C697A656420746865202C
:102D9000647276383830312C2073656E64696E67E2
:102DA0002073657175656E63650D0A0077616974DE
:102DB000350D0A0074657374320D0A00646F6E6518
:102DC0000D0A0000447269766574657374212121CF
:102DD0000D0A000092FFFFFF06040000E803000058
:102DE00020000020020000000000000000000000A1
:102DF000240000201200000032000000000000004B
:102E00004C00002000000000000000000000000056
:102E100000000000000000000000000000000000B2
:102E200000000000000000000000000000000000A2
:102E30000000000000000000000000000000000092
:102E40000000000000000000000000000000000082
:102E50000000000000000000000000000000000072
:102E600000000000232D302B2000686C4C006566AC
:102E700067454647003031323334353637383941CB
:102E800042434445460030313233343536373839E1
:0C2E9000616263646566000000000000E1
:082E9C00A4D3FF7F0100000038
:102EA400000000000020004000000000002000405E
:102EB400000000000090D00300C0014000000000AA
:102EC4006400640000006400C8002C019001F40157
:102ED4005802BC0220038403E803E803E803200348
:102EE40058029001C80000004C00002000000000BF
:102EF400242E0000442E0000042E000000000000D8
:102F040000000000000000000000000000000000BD
:102F140000000000000000000000000000000000AD
:102F2400000000000000000000000000000000009D
:102F3400000000000000000000000000000000008D
:102F44000000000000000000000000002502000056
:042F54000102000076
:04000003000002B542
:00000001FF
