:020000021000EC
:1020000000000120B5220100DD220100E93D0100B0
:10201000E1220100E3220100E522010000000000AE
:10202000000000000000000000000000E7220100A6
:10203000E922010000000000EB220100ED22010076
:10204000EF220100EF22010015550100EF220100EF
:10205000EF220100EF220100CD4F0100EF2201002D
:10206000EF220100EF220100EF220100EF22010028
:10207000EF220100EF220100EF220100EF22010018
:10208000EF2201004D370100EF220100EF22010095
:10209000ED370100EF220100D1790100EF220100AC
:1020A000EF220100EF220100EF220100EF220100E8
:1020B000EF220100EF2201000000000000000000FC
:1020C000EF220100EF220100EF220100EF220100C8
:1020D000EF220100EF220100EF22010000000000CA
:1020E00000000000000000000000000000000000F0
:1020F00000000000000000000000000000000000E0
:1021000000000000000000000000000000000000CF
:1021100000000000000000000000000000000000BF
:1021200000000000000000000000000000000000AF
:10213000000000000000000000000000000000009F
:10214000000000000000000000000000000000008F
:10215000000000000000000000000000000000007F
:10216000000000000000000000000000000000006F
:10217000000000000000000000000000000000005F
:10218000000000000000000000000000000000004F
:10219000000000000000000000000000000000003F
:1021A000000000000000000000000000000000002F
:1021B000000000000000000000000000000000001F
:1021C000000000000000000000000000000000000F
:1021D00000000000000000000000000000000000FF
:1021E00000000000000000000000000000000000EF
:1021F00000000000000000000000000000000000DF
:1022000010B5054C237833B9044B13B10448AFF330
:1022100000800123237010BD800D0020000000000D
:102220001093010008B5034B1BB103490348AFF3FA
:10223000008008BD00000000840D00201093010004
:10224000154B002B08BF134B9D46A3F5803A002188
:102250008B460F461348144A121A05F08EFC0F4B9A
:10226000002B00D098470E4B002B00D09847002041
:10227000002104000D000D48002802D00C48AFF3E7
:10228000008005F02BFC2000290005F0A5F805F0E2
:1022900011FC00BF00000800000001200000000049
:1022A00000000000800D00205417002000000000F6
:1022B000000000000649074A074B9B1A03DD043B58
:1022C000C858D050FBDC05F00DF9FFF7B9FF00004E
:1022D000EC930100800B0020800D0020FEE7FEE75C
:1022E000FEE7FEE7FEE7FEE7FEE7FEE7FEE7FEE7C6
:1022F000F0B595B0002415460F4608461E4602F07C
:1023000083FA384623460895082205A91A9D09969E
:102310000D950A948DF82C400C9402F0CFFA9DF89C
:1023200014308DF81140DDE9061003F00302012A94
:10233000CDE9020127D0022A04D0384602F068FA1B
:1023400015B0F0BDBDF81650C3F3C2038DF81030C0
:10235000AD090826082D2C4628BF082433462246FE
:102360000EA9384602F0AAFA2D1B214608AB02AA94
:102370000EA8264400F000FF002DEBD1384602F0F5
:1023800047FA15B0F0BDBDF81460059DC6F383167D
:10239000C3F3C204B2000EA9384608238DF81040DA
:1023A000C5F3952502F08AFA08AB324628460EA9F5
:1023B000009302AB00F03AFE384602F029FA15B05D
:1023C000F0BD00BF014B01221A707047E00D0020E4
:1023D000704700BF00B583B0044B0093044A40230C
:1023E000FFF786FF03B05DF804FB00BFF523010093
:1023F000A00D002038B50E480E4D03780E4CEB5C56
:102400000025D2B2257053B90C3003F0D1FA58B977
:102410000A4B1B7813B12378002BFCD038BD043055
:1024200003F00AFD0028F3D001F048F9F0E700BFFF
:10243000800B002050170020E00D00209C0D002094
:1024400070B51348134A0378D35C88B0DBB90C30FD
:1024500003F048FA104D0FCD6C460FC495E80F00FD
:1024600008AD062645F8206D84E80F0029460022B5
:10247000074802F0D1FB08B101F020F9074B002218
:102480001A7008B070BD043003F06EFCE2E700BFC4
:10249000800B002050170020D07E01009C0D0020F2
:1024A00070B50D4D0FCD88B06C460FC495E80F0088
:1024B00008AD062645F8206D84E80F002946074A36
:1024C000074802F0A9FB08B101F0F8F8054B01221A
:1024D0001A7008B070BD00BFD07E0100C523010096
:1024E000800B00209C0D002008B5FFF7D9FF0421C8
:1024F000034800F051FD034B01225A7108BD00BF93
:10250000B8930100940B0020F0B5324C85B004F56F
:10251000836001F039FD04F2144001F035FDD4E987
:10252000013703EA0702D01C04EB800114F82000F5
:1025300010F0040044D003F1020C0E7806F00306FC
:10254000012E654635D0022E02F1030621D004EBA0
:1025500086010028F1D104EB82020133D268019296
:102560003B4004EB830302F00302012ADE6829D01A
:10257000022A23D1BDF806309B090333360C05EB44
:102580009305154801F00CFD00B16560304605B0BB
:10259000F0BD4B880CEB931307EA0302D11C03F147
:1025A000020C14F82100654604EB810100F00400E0
:1025B000CFE70B88C3F383136344EDE70026E0E71E
:1025C0009D1CC8E7BDF80430C3F38313360C1D44CB
:1025D000D7E700BFB40E0020C81200200B4B0C48F8
:1025E00010B50022FF21C3F818249960C3E9002226
:1025F000C3F8142483F8202402F0C2F8044610B96A
:10260000044802F02DFA204610BD00BFB40E002091
:10261000D0930100107F010021B9124B03EBC000E1
:1026200000687047104A0F49521AD20815D030B4CA
:102630000E4D2B88834212D0002303E035F823404F
:10264000844205D001339A42F8D1002030BC704753
:1026500001EBC300006830BC704710467047084665
:10266000F8E700BF18930100A89301007C0D00203B
:10267000094B013903EBC00003290BD8DFE801F057
:1026800002080604022070474079704700797047BD
:102690000420704700207047189301002DE9F04393
:1026A00083B002AB002203F8012DDFF8DC9007466F
:1026B00018468846D9F8084001F058FBD9E901329C
:1026C000D9F80060134401339B1B012B58D809F241
:1026D0001C450121284601F03FFCFFF715FF01468C
:1026E000284601F039FCD9E90132D9F80010134429
:1026F00001335B1A012BECD90A4003320523023166
:102700009DF8070049F82230C9F8001001F054FB89
:1027100000211C4801F016FC80F31000731C2340BC
:1027200009EB830300043440033440EA1740D860C7
:1027300019F8243067F3C50309F8243039F8243038
:102740006FF3891329F8243059F8242068F39F2265
:102750001346012161F301036FF3820349F824203A
:1027600009F8243099F820341BB906E000F00EF87F
:1027700018B1D9E900329A42F8D103B0BDE8F0832C
:102780003146B9E7D0120020B40E00202DE9F04701
:10279000934C002384B0C4F81834BFF34F8FD4E9AE
:1027A000015605EA0602D31C04EB830114F823301A
:1027B000580719D527680B7803F00303012B43D082
:1027C000022B03D14B88023505EB931506EA05026F
:1027D000D4F81804D31C04EB830128B9AF4239D9CB
:1027E00014F823305B07E6D404EB82026B1CD2683A
:1027F0000192334004EB830302F00302DB6802938F
:10280000022A05F1020700F08D80012A26D0D4F8B3
:1028100010543DB12B6828469B689847EB681D68AB
:10282000002DF7D16F48704B7049C01AC0080004E2
:1028300040F00200FFF732FFD4E90030C01A18BFA1
:10284000012004B0BDE8F0870B880235C3F3831381
:102850001D44BBE7676004B0BDE8F087BDF8042005
:102860006348C2F38313062B28BF062363F3891240
:1028700002339900ADF8042001F084FF804600285F
:10288000C5D001F0C1FF0023082201A9404601F094
:10289000E1FFBDF8043013F4707F00F09F806FF00B
:1028A000010AAAEB050A082506EA070103312B46AF
:1028B000042204EB8101404601F0CCFFBDF8043056
:1028C00007F101090AEB0902C3F3831393424F4650
:1028D00005F10405E8D8D4F81834002B68D1D4F8F1
:1028E000105465B1EB685A7928464146002A5BD0FE
:1028F0002B681B689847EB681D68002DF2D1404695
:1029000001F086FF04A8002300F80D3D01F02EFA27
:10291000D4F818340BB9C4F804909DF8030001F002
:102920004BFA89E7BDF8063031484FEA93194D4616
:10293000502D28BF502565F38F1305F10801ADF820
:10294000063001F01FFF804600283FF460AF26EA02
:10295000070A0AF1010A01F057FF4FEA8A0A002329
:10296000082201A9404601F075FF55452BD9EBB26D
:10297000BAF1000F20D006EA0701A3EB0A030331E6
:1029800004EB8101DDB252460823404601F062FFAC
:102990002A460AF108031749404601F05BFF09F196
:1029A000030907EB990996E71D68002D9AD1A6E760
:1029B000404601F02DFF3FE72A4608230D494046D7
:1029C00001F048FFEBE706EA0701033104EB810160
:1029D0002A460823404601F03DFFE0E7B9467AE782
:1029E000B40E002080930100189301001C7F0100A9
:1029F000D0930100C00E00202DE9F04782B002AB59
:102A0000002403F8014DDFF8ECA007461846914674
:102A10008846DAF8084001F0A9F9DAE90132DAF873
:102A20000060134401339B1B022B5ED80AF21C4545
:102A30000121284601F090FAFFF766FD014628467D
:102A400001F08AFADAE90132DAF8001013440133AE
:102A50005B1A022BECD90A400332033145239DF85F
:102A600007004AF82230CAF8001001F0A5F9B31C9B
:102A700023400AEB830300211D48C3F80C9001F0AA
:102A800061FA80F31000731C23400AEB83030004F7
:102A90003440033440EA1740D8601AF8243067F312
:102AA000C5030AF824303AF82430012161F3891370
:102AB0002AF824305AF8242068F39F22134661F341
:102AC00001036FF382034AF824200AF824309AF8AD
:102AD00020341BB906E0FFF759FE18B1DAE90032DD
:102AE0009A42F8D102B0BDE8F0873146B3E700BFA3
:102AF000D0120020B40E00202DE9F04F83B002ADBB
:102B0000002405F8014D3B4C8046284693469A46E2
:102B10008946A56801F02AF9D4E9013227681344EF
:102B20000133DB1B032B63D804F21C460121304622
:102B300001F012FAFFF7E8FC0146304601F00CFA0A
:102B4000D4E901322168134401335B1A032BEDD918
:102B50000A400332852344F8223004319DF80700EF
:102B6000216001F029F9BA1CFB1C2A402B4004EB20
:102B7000820204EB830300211F48C2F80CB0C3F8A3
:102B80000CA001F0DFF980F310007B1C2B4004EB5C
:102B9000830300043D40033540EA1840D86014F830
:102BA000253068F3C50304F8253034F825300222B7
:102BB00062F3891324F8253054F8252069F39F2205
:102BC0001346012161F301036FF3820344F82520CA
:102BD00004F8253094F820341BB906E0FFF7D6FD41
:102BE00018B1D4E900329A42F8D103B0BDE8F08FB1
:102BF0003946ADE7B40E0020D01200202DE9F04F89
:102C000083B002AE002406F8014D3E4C80463046AB
:102C100093469A46A568894601F0A8F8D4E901329E
:102C2000276813440133DB1B042B69D804F21C46CC
:102C30000121304601F090F9FFF766FC014630466D
:102C400001F08AF9D4E901322168134401335B1A97
:102C5000042BEDD90A400332C52344F82230053154
:102C60009DF80700216001F0A7F8B81CFA1C284065
:102C70002A403B1D2B4004EB800004EB820204EB56
:102C80008303C0F80CB00021C2F80CA01E480C9AB7
:102C9000DA6001F057F980F310007B1C2B4004EB45
:102CA000830300043D40033540EA1840D86014F81F
:102CB000253068F3C50304F8253034F825300322A5
:102CC00062F3891324F8253054F8252069F39F22F4
:102CD0001346012161F301036FF3820344F82520B9
:102CE00004F8253094F820341BB906E0FFF74EFDB8
:102CF00018B1D4E900329A42F8D103B0BDE8F08FA0
:102D00003946A7E7B40E0020D01200202DE9F04F7D
:102D100087B006AE002406F8114D454C109F04976D
:102D2000CDE90223804699463046119B0593924691
:102D3000A5688B4601F01AF8D4E9013227681344DC
:102D40000133DB1B052B70D804F21C4601213046F1
:102D500001F002F9FFF7D8FB0146304601F0FCF81C
:102D6000D4E901322168134401335B1A052BEDD9F4
:102D70000A40033240F2051344F8223006319DF830
:102D800007002160FE1C01F017F8B91C29402E40F5
:102D90003A1D2A4004EB810104EB86067B1D2B4083
:102DA00004EB8202C1F80CA004EB8303C6F80C907C
:102DB000109ED6600021119A1E48DA6001F0C2F818
:102DC00080F310007B1C2B4004EB830300043D4088
:102DD000033540EA1840D86014F8253068F3C5037D
:102DE00004F8253034F82530042262F3891324F8DE
:102DF000253054F825206BF39F221346012161F3FF
:102E000001036FF3820344F8252004F8253094F879
:102E100020341BB906E0FFF7B9FC18B1D4E9003241
:102E20009A42F8D107B0BDE8F08F3946A0E700BF5D
:102E3000B40E0020D01200202DE9F04F85B004AC74
:102E4000002304F8013DDFF834B1019182462046A9
:102E500002F103089146DBF8084000F087FFDBE948
:102E60000121DBF800700A444FEA98080132D21BB6
:102E700008F1020696427AD90BF21C450121284638
:102E800001F06AF8FFF740FB0146284601F064F8BC
:102E9000DBE90121DBF800000A440132121A9642F4
:102EA000ECD8014003310622064468F39F529DF896
:102EB0000F004BF82120CBF8006000F07DFFDBF81D
:102EC0000850B81C204001352D1AAD000330A9452B
:102ED0000BEB80003DD801994A4604F043FE0021E7
:102EE000244801F02FF880F310007A1C22404FEAAA
:102EF0001A410BEB82023C40033441EA0040D060AF
:102F00001BF824206AF3C5020BF824203BF8242088
:102F10006FF38F122BF824200BEB840202205188D0
:102F200069F38F1151801BF8242060F301026FF3C5
:102F300082020BF824209BF820241AB906E0FFF740
:102F400025FC18B1DBE900219142F8D105B0BDE8BC
:102F5000F08F019E2A46314604F004FE33462B448E
:102F60001946A9EB0502044804F0FCFDB7E7384612
:102F700097E700BFD0120020C00E0020B40E002042
:102F8000044BD3E900239A4201D0FFF7FFBB002096
:102F9000704700BFB40E002030B4184DD5F810446F
:102FA00000215CB1E3681A798A4204D116E0DB683B
:102FB0001A798A4212D01B68002BF8D1C3681971A4
:102FC000D5F8103493B1DA68C36812681A60D5F87E
:102FD0001034DB68186030BC0846704701310A299C
:102FE000DFD14FF0FF31084630BC7047C5F8100400
:102FF000C2681360084630BC704700BFB40E0020A2
:1030000038B5094BD3F81044012583F820544CB14E
:10301000E3685D71236820465B689847E3681C6835
:10302000002CF5D138BD00BFB40E00202DE9F047CB
:1030300084B01D460C9C002394F80C802373EB880D
:1030400081460E461746002B40D1297A05290ED01D
:103050006B7AA88873BB404B53F821A00021FFF77F
:10306000DBFA524603463D49204601F011F8062F8F
:1030700009D8DFE807F0046A4249525D3300494647
:10308000204601F005F82B7A052B05D06B7A5BB949
:103090003349204600F0FCFF204600F0EDFF84F8A5
:1030A0000C8004B0BDE8F0872E4A2F49204600F07E
:1030B000EFFFEDE7FFF7DCFA2C4B2B4953F820200C
:1030C000204600F0E5FF297AA888C4E7254A009247
:1030D0002749284A204600F0DBFFB6E7D6E904106E
:1030E000D6E900230390D6E902070291CDE9000753
:1030F0004946204600F0CCFFC5E74946D6E9002303
:10310000204600F0C5FFBEE7B168D6E9002320469F
:103110000091494600F0BCFFB5E7D6E90201D6E9C7
:103120000023019100904946204600F0B1FFAAE734
:10313000D6E90371B068D6E900230291CDE9000712
:103140004946204600F0A4FF9DE7326849462046E4
:1031500000F09EFF97E700BFA87F0100987F010065
:10316000A47F01008C7F0100947F0100347F010067
:10317000747F01006C7F0100082900D970472DE998
:10318000F04F1D46904600232A7B2B7385B0B8F87C
:103190000630039207460E46002B77D198F80810A8
:1031A000052911D098F80930B8F80400002B5FD138
:1031B0003A4B53F821400021FFF72EFA22460346EE
:1031C0003749284600F064FFDFF8F4B0DFF8F490E8
:1031D000002405E03A5D013400F05AFF082C09D0C4
:1031E000A64249462846F5D85946013400F050FF1A
:1031F000082CF5D12B49DFF8D090DFF8D0B0284665
:1032000000F046FF002411E017F804A004F08AFC47
:1032100050445946437813F0970F14BF52462E225C
:103220002846013400F034FF082C08D0A642494655
:103230002846E9D8013400F02BFF082CF6D198F885
:103240000830052B02D098F809305BB9164928469A
:1032500000F01EFF284600F00FFF039B2B7305B004
:10326000BDE8F08F114A1249284600F011FFEDE742
:10327000FFF7FEF90F4B0E4953F82020284600F0C7
:1032800007FF98F80810B8F8040091E7074A009281
:1032900009490A4A284600F0FBFE7FE7A87F0100A3
:1032A000987F0100647F0100A47F01008C7F0100F2
:1032B000947F0100347F0100747F01006C7F010066
:1032C000607F0100587F0100B08D0100687F010020
:1032D000054A4FF0A043105CD3F8043523FA00F000
:1032E000C04300F0010070470C800100044B195CE2
:1032F0004FF0A04201238B40C2F80C35704700BF4D
:103300000C800100044B195C4FF0A04201238B405C
:10331000C2F80835704700BF0C8001004FF0A04391
:1033200010B44FF480204FF400344FF400214FF4D8
:103330008012C3F80845C3F80805C3F80815C3F898
:1033400008255DF8044B70474FF0A04310B44FF4CC
:1033500080204FF400344FF400214FF48012C3F862
:103360000C45C3F80C05C3F80C15C3F80C255DF823
:10337000044B7047074B4FF0A041185CD1F804355F
:103380000122824022EA03001340C1F80805C1F877
:103390000C3570470C8001000D2809D00E2809D08B
:1033A0000F2809D010280CBF03204FF0FF307047C2
:1033B000002070470120704702207047C20730B4D8
:1033C0001AD54FF0A0430322C3F844274FF4003529
:1033D000C3F848274FF48024C3F84C274FF400214A
:1033E000C3F850274FF48012C3F80855C3F80845B6
:1033F000C3F80815C3F8082583070AD54FF0A04382
:103400000C22C3F83427C3F83827C3F83C27C3F885
:10341000402730BC704700BF434B1978002900F0AB
:1034200081802DE9F04F002487B001258E4603E00E
:103430000134E4B2744560D23C4B27B21E6816F8E2
:1034400037C0ACF1200205FA02F9394ACCF1200369
:10345000D2E9000125FA03F349EA030905FA0CF859
:1034600000EA080201EA0903134306EBC70BDFD0A9
:1034700021EA09032E4920EA08026046C1E9002337
:1034800001F09AFD16F837C0ACF1200205FA02F2FD
:1034900001920199CCF12003C6B225FA03F3ACF1F5
:1034A0002002194306FA02F30393224B0191D3E958
:1034B0000023CDE9042305FA0CF30093CCF120019D
:1034C000039B26FA01F10B43039306FA0CF30293D4
:1034D000DDE90467DDE9002316401F4032463B4624
:1034E000DDE90267BB4208BFB24209D00E4B01348E
:1034F00093F800E0E4B274459ED307B0BDE8F08FC6
:103500009BF80110DBF80430A1F10101B1FA81F15F
:103510004909091AB1FA81F14909002BE6D0604640
:103520009847E3E7704700BF70130020A8130020FE
:10353000A0130020981300202DE9F84F06462448D8
:1035400000F0DAFBD8B9234F0123A6F1200103FADA
:1035500001FBC6F12002D7E9000123FA02F24BEA8F
:10356000020B03FA06FA00EA0A0201EA0B0313430C
:1035700007D020EA0A0421EA0B05C7E90045BDE8A7
:10358000F88F304601F018FD134ED6E90089C8B116
:1035900048EA0A0349EA0B049846A146D7E9002302
:1035A0004BEA03050D4B0A4819684AEA02044B46E8
:1035B0004246C6E90023C7E900450022BDE8F84FAE
:1035C00000F044BB28EA0A0829EA0B09E6E700BF35
:1035D00078130020A01300209813002074130020FB
:1035E000042A36D92DE9F04182B00E46054614462C
:1035F00001F098FB002836D01D491E4A1E4B0D6075
:103600001E481F491C60167000230022741EC0E96A
:103610000023C1E90023E4B2EEB105EBC404194F65
:10362000083D4FF00008032601E0AC4213D0A37818
:1036300020788DF806803A4601A98DF804608DF84F
:10364000053001F079FB083C0028EED002B0BDE85F
:10365000F081072070470C4A0C48002100F0E4FA82
:1036600002B0BDE8F08101F017FB0028C4D0EDE7FF
:10367000A81300207013002074130020981300205A
:10368000A013002039350100193401001080010019
:1036900070B5084D2B785BB1074E002433680121CB
:1036A00013F8340001F026FC2B780134A342F5D83E
:1036B000002070BD70130020A813002000B585B055
:1036C00000230390194601AA44F20100CDE9013319
:1036D00000F004F805B05DF804FB00BF10B572B649
:1036E000FFF78EFCFFF74CFC0028FBD1104B114C70
:1036F0001149E41AE408240444F00100FEF7CEFF67
:103700000E4B1B68DB0700D500BE44F002000C49DD
:10371000FEF7C4FFBFF34F8F0A490B4BCA6802F490
:10372000E0621343CB60BFF34F8F00BFFDE700BFE4
:10373000189301008093010014800100F0ED00E077
:103740002080010000ED00E00400FA05F8B5204AF1
:10375000204B0024C2F84041C2F84441C2F848411D
:10376000C2F84C41C2F80041C2F804411B6833B3AF
:103770001949D2F804550A68AD1A1A6825F07F4530
:10378000AA4227460DD8197CDE69AD1A144419B136
:103790001F74D3E9052090471EB133461A68AA4228
:1037A000F1D90E490E4A0B7812789A4208D00D4989
:1037B0000D4A41F823404FF48013C2F80031F8BDA0
:1037C000531CDBB2022B08BF00230B70EFE700BFD6
:1037D00000100140CC140020C8140020C5140020A3
:1037E000C4140020BC14002000E100E02DE9F04FDB
:1037F0008C4A8D4913780978DFF85082994285B058
:10380000D8F800A000F07B810133DBB2022B08BFA7
:10381000002386481370864A076852F823107B18E5
:1038200023F07F4300240360534626462046A446E7
:10383000ABB11A688A4200F26581DC68C3F800C047
:10384000891A1044DA6934B13D1825F07F45C3E97F
:103850000154DE611E4613460124002BE9D1002CE1
:1038600040F07C8101230093724B734FDFF8E091AD
:1038700043F00103019355464FF0000B46B3D6E9E0
:1038800001C13446F669694B6C481A68ACEB020317
:1038900023F07F43834248D80B4423600022012158
:1038A000C4E90122E2612174002D5DD02A689A42A8
:1038B0004DD2284603E00A689A424FD20846C169B1
:1038C0009B1A0029F7D12360E161C461002ED6D193
:1038D00078783978884264D00B4603EB43034C1C5C
:1038E000BA7807EBC303E1B28A421A79397004BF90
:1038F00000213970022A9C6844D0032A38D0012A5A
:10390000E8D1227C002AE5D1D3F80CC0C4F804C069
:103910001969A1605869E06099F800009B69A3618A
:103920000028B0D062609446ADE7A2EB0C0222F012
:103930007F428A4202D28B1A2360AFE70023012222
:10394000C4E90033A360E36122746DB12A68C8F84A
:103950000040D31A2B60E56125468FE7D21A0A6032
:103960002360E161C461B1E7C8F80040254685E7FE
:10397000002DAFD000232B74ED69002DFBD1C8F8CA
:103980000050A5E74DB1AC422B4603D1E4E0944290
:103990002FD01346DA69002AF9D100232374884214
:1039A0009AD1BBF1000F01D1554553D0002D56D10E
:1039B000234E244A1F4C4FF480334FF4003101272B
:1039C000C2F880103C43C6F848334FF43C60C6F858
:1039D00008337760A047154BB7604FF43C601D601B
:1039E000A047194B1D70002389F8003005B0BDE8D1
:1039F000F08FA34200F09180E0692168D86100282F
:103A000000F086802A4603680B440360AA424FF008
:103A100000033978787823741CBF15464FF0010BEA
:103A2000BDE700BFC4140020C5140020C814002046
:103A3000BC14002030800100AC130020FEFF7F008A
:103A40000010014000E100E0B9140020CC14002077
:103A5000B8140020009B002BC5D0002DA8D0434BEC
:103A6000434A1C68D2F80465424FD5F800A0397863
:103A7000331B23F07F43DD1CB9B93F493F4B4FF463
:103A80008030C2F844034FF00108C2F804034FF439
:103A90000030C1F8800143F001030860C2F80080E3
:103AA0004FF43C60984787F80080AA452CBF04EB90
:103AB0000A0363192E4923F07F43C1F84035D1F83A
:103AC0000425921B9B1B22F07F4223F07F4303328D
:103AD0009A4288D9294BD1F80425C1F8402543F0F2
:103AE00001034FF43C609847234B4FF40032C3F876
:103AF0000021002389F8003005B0BDE8F08F0026D2
:103B00000096B1E674BB521A1A6001230093ABE62B
:103B1000002339787878237441E71946EA69C8F8B0
:103B2000002092B9CDE90231114BDFF840C00120ED
:103B30009860019B89F80000CCF800204FF43C60AD
:103B40009847DDE90231D8F80020C8690968D861D2
:103B500000287FF458AF59E72946DFE7C8F800305E
:103B60009A467FE6C8F800309A46CCE7C814002091
:103B700000100140B914002000E100E03080010095
:103B80002DE9F8431F4D204E204FDFF898804FF469
:103B900080334FF400324FF001090024C6F8802032
:103BA00047EA0907C5F848334FF43C60C5F80833C5
:103BB000C5F80490B847C5F808904FF43C60C8F8C1
:103BC0000040B847124A134B13491C601470134B42
:103BD000134A0C700B2114701C8099704FF48012E2
:103BE000C023C6F8802186F814333260C5F8084532
:103BF00086F81133D5F80435C8F800302046BDE802
:103C0000F88300BF0010014000E100E030800100B7
:103C1000B9140020CC140020C4140020AC130020E0
:103C2000C5140020C8140020074B9B784BB132B15B
:103C300028B10368187C20B959745A61704707206D
:103C400070470820704700BFAC1300202DE9F047F3
:103C5000264CA37882B0002B3CD000283AD004290F
:103C60003CD94369002B35D0814602A899F8113020
:103C70000026012B00F8016D0CBF8846B0461746A0
:103C80008A4600F073F86378A17822789DF80700DF
:103C90005D1CEDB2A94208BF3546AA4222D003EB13
:103CA000430304EBC3030121114AC3F808901971BF
:103CB000D2F804256570C3E9032AC3E9058700F03B
:103CC0007BF80C4B4FF480123046C3F8002102B051
:103CD000BDE8F087082002B0BDE8F087072002B0F9
:103CE000BDE8F08700F068F80420F0E7AC1300208E
:103CF0000010014000E100E0F0B51A4CA37883B059
:103D000043B338B343692BB3064602A8002500F835
:103D1000015D357400F02AF86278A77821789DF863
:103D20000700531CDBB29F4208BF2B46994214D0B8
:103D300002EB420204EBC202022196601171637031
:103D400000F03AF8084B4FF480122846C3F80021DF
:103D500003B0F0BD082003B0F0BD00F02DF8042042
:103D6000F9E700BFAC13002000E100E070B4EFF30E
:103D7000108472B60D4B9A68AAB90D490D4E0125F3
:103D80009D60D1F8805035401D60C1F88060D1F849
:103D900084505D604FF0FF33C1F88430027004B985
:103DA00062B670BC704701230370F8E74417002027
:103DB00000E100E0FC06FFBD094B9A687AB170B9DA
:103DC00010B4EFF3108172B6064A1C6814605C6888
:103DD0005460986001B962B65DF8044B7047704753
:103DE0004417002000E100E01EF0040F1CBFEFF3B9
:103DF00009800AE0EFF308800549064A884201D8A5
:103E0000904202D88D464FF00000034B1847000047
:103E10000000012000E00020413E0100BFF34F8F71
:103E20000549064BCA6802F4E0621343CB60BFF356
:103E30004F8F00BFFDE700BF00ED00E00400FA0572
:103E40002DE9F04782B08146FFF7DAF8FFF798F8DE
:103E50000028FBD12F4F304A304BBF1AFF083F04D8
:103E600047F001079D6AB9F1000F4DD0D9F818202D
:103E70002B493846FEF7C0FDD9E90210D9E90023E5
:103E8000CDE9001027493846FEF740FFD9F81C104D
:103E9000D9E90423384600912349FEF7AFFE1F4BB2
:103EA000DB6A99072BD4DFF894A0DFF89480002414
:103EB000012606FA04F32B4207D05AF82430414673
:103EC0001A4638460BB1FEF797FD01341A2CF0D193
:103ED0002A060DD42B0405D5104B14499A6B38468D
:103EE000FEF78AFD4846FFF799FF02B0BDE8F0876C
:103EF0000A4B0F495A6B3846FEF77EFDEAE70D493B
:103F00003846FEF7CBFBCEE70B493846FEF7C6FB3B
:103F1000C5E700BF889301001893010000ED00E0A1
:103F20003880010050800100888001005481010028
:103F300034810100E4800100B08001007081010043
:103F40002881010050E8002F0B4640E8003C9CF01F
:103F5000000FF7D11046704750E8003F03EB010215
:103F600040E8002C9CF0000FF6D11046704700BFCF
:103F700050E8003FA3EB010240E8002C9CF0000F4A
:103F8000F6D11046704700BF012350E8002F42EAE7
:103F9000030C40E800C191F0000FF6D16046704775
:103FA000002350E800CF0CEA030240E8002191F022
:103FB000000FF6D160467047B8B130B4D0E90112B5
:103FC000521A0468D2B2531E2160DBB242B10168BA
:103FD0000A685C1E551C0D601370E3B2FF2BF6D10E
:103FE00003680020187130BC70470E20704700BF76
:103FF000F0B583B002AB002503F8015D0446184616
:10400000FFF7B4FED4E900311A688A4210D9511E74
:1040100019602168A3680F6812F8015C0A79268A82
:10402000E068DB1BDBB29A4206FB050538BF0B716B
:104030009DF80700FFF7C0FE284603B0F0BD00BFA3
:1040400030B583B002AB002203F8012D05461846B7
:104050000C46FFF78BFE2A681368591C1160E9684B
:104060002A8A641AB4FBF2F41C709DF80700FFF76B
:10407000A3FE03B030BD00BF826842B110B5044654
:1040800043690168006998470023A36010BD704729
:104090000EB400B582B0039929B102AA04AB42F86C
:1040A000043D00F08BF802B05DF804EB03B07047FC
:1040B0002DE9F84F88469045174605461E46DDE92E
:1040C0000AB175D343464FF00109B3FBF7F39F42A2
:1040D00009F10109F9D9B14538BFB14611F0010A1A
:1040E000AA6802D1BBF1000F43D1012402E0013ED6
:1040F00007FB04F4012EFAD8B8FBF4F18F42F7D98C
:104100002D4E05E0B4FBF7F4A4B1B8FBF4F1AA68B6
:10411000705C531CAB602B689854D5E901329A420D
:1041200004FB1188EED32846FFF7A6FFB4FBF7F493
:10413000002CEAD1BAF1000F15D0BBF1000F12D05C
:10414000CB4510D92024AB682A68591CA960D454E7
:10415000D5E901329A420BF1FF3B06D2BBF1000FC9
:1041600001D0CB45EFD1BDE8F88F2846FFF784FF9B
:10417000F4E78B0717D42024CB45B6D92B68511C04
:10418000A9609C54D5E901329A420BF1FF3B05D25C
:10419000BBF1000FA9D0CB45F0D1A6E72846FFF729
:1041A0006BFFAA68F4E7002E0CBF30242024E3E75D
:1041B0004FF001098FE700BFB8860100002900F029
:1041C000F4812DE9F04F054685B092460C460B78F8
:1041D000DFF8A8B501E0237893B1013483B1252B32
:1041E00015D0AA682968501CA8608B54D5E9013203
:1041F0009A42F0D32846FFF73FFF2378002BECD1FB
:104200002B7B002B40F0148105B0BDE8F08F2146D8
:10421000002711F8012B2D2A00F0E180302A00F050
:10422000E2802B2A00F0D2802A2A00F0E080A2F15E
:104230003006F3B2092B03D9B8E1A3F130060146E9
:10424000084606EB860310F8012BA2F13004092C76
:1042500002EB4303F1D92E2A00F0D580002301316F
:1042600001E011F8012B02F0FB0068280C46F8D0A1
:10427000253A532AAFD801A151F822F03D4401005C
:10428000D7410100D7410100D7410100D7410100CA
:10429000D7410100D7410100D7410100D7410100BA
:1042A000D7410100D7410100D7410100D7410100AA
:1042B000D7410100D7410100D7410100D74101009A
:1042C000D7410100D7410100D7410100D74101008A
:1042D000D7410100D7410100D7410100D74101007A
:1042E000D7410100D7410100D7410100D74101006A
:1042F000D7410100D7410100D7410100D74101005A
:10430000D7410100D7410100D7410100D741010049
:10431000D7410100D7410100D7410100D741010039
:10432000D7410100D7410100D7410100D741010029
:10433000D7410100D7410100D7410100D741010019
:10434000D7410100D741010057440100D741010086
:10435000D7410100D7410100D7410100D7410100F9
:10436000D7410100D7410100D7410100D7410100E9
:10437000D74101007144010093440100D74101007D
:10438000D7410100D7410100D7410100934401000A
:10439000D7410100D7410100D7410100D7410100B9
:1043A000D7410100D7410100E3440100D74101009A
:1043B000D741010057450100D74101009145010057
:1043C000D7410100D74101005744010047F00407DD
:1043D0000C46214611F8012B2D2A7FF41FAF47F020
:1043E00001070C46F5E747F002070C46F1E7DAF85B
:1043F00000301A1DCAF8002062781E682E2A04F1C7
:1044000002007FF42BAF4A78A2F13003092B00F2AF
:104410005081002303EB830302EB430310F8012FC9
:10442000A2F130010929A3F13003F3D9014616E7BF
:10443000284605B0BDE8F04FFFF71EBEAB682A68FE
:10444000591CA9604FF02501D154D5E901329A4297
:10445000FFF4C1AECEE6DAF80020111DCAF8001054
:1044600011682846CDE900671022FFF721FEB2E669
:10447000DAF80020131DCAF80030AB6829681278FA
:10448000581CA860CA54D5E901329A42FFF4A3AE81
:10449000B0E6DAF80020111DCAF80010D2F800804A
:1044A00088EAE872A2EBE872092A4FF0010107DD01
:1044B000B148A0FB0202D208092A01F10101F7DC90
:1044C000994238BF1946894607F00202002E71D181
:1044D0002AB1002B00F04B81FA0700F18D800026F5
:1044E0008AE0DAF80020131DCAF80030AB682968AA
:1044F0001768581C3022A860CA54D5E9012393429A
:1045000080F02C812A68581C7821A860D154D5E904
:104510000123934280F01D810F2F03D93A461209DF
:104520000F2AFCD84FF0805603E036093FF453AE13
:10453000AB682968B7FBF6F2581CA8601BF80200AC
:10454000C854D5E90131994206FB1277EDD32846CC
:10455000FFF792FDE9E7DAF800301A1DCAF80020EB
:10456000D3F80080FB077ED54746A7EB080917F86C
:10457000013B002B5DD0AA682968501CA8608B54B1
:10458000D5E901329A42F0D32846FFF775FDECE7F2
:10459000DAF80020111DCAF8001011682846CDE98C
:1045A00000670A22FFF784FD15E6704708460026DB
:1045B000214650E6B8F1000F01DB780700D5013E37
:1045C00002B1CBB1F90717D4002E88D0B14513D270
:1045D00020220393A9682B68481CA8605A54D5E987
:1045E0000131994206F1FF365DD2002E00F0C18004
:1045F000B145EFD1039B4E46B8F1000FC0F2968053
:104600007A070AD5A9684A1CAA602A682B20505448
:10461000D5E90121914280F0968007F00302022A39
:104620005FD0CDE9006741460A222846FFF740FDEA
:10463000D1E54E457FF6CFAD202705E04E453FF44E
:10464000CAAD002E3FF4C7ADAB682A68591CA960FB
:10465000D754D5E901329A4206F1FF36EED3284607
:10466000FFF70AFDEAE7B8F1000F24D0404603F057
:104670008CFA0746BE4220D9FEB14FF0200902E075
:10468000BE421AD0CEB1AB682A68591CA96002F8A4
:104690000390D5E901329A4206F1FF36F0D328465D
:1046A000FFF7EAFCECE728460292FFF7E5FC029AE6
:1046B0009BE70146D2E54746DCE708F1FF3818F8EA
:1046C000013F002B3FF487ADAA682968501CA86001
:1046D0008B54D5E901329A42F1D32846FFF7CCFC3E
:1046E000EDE7002B9DD1002E3FD0B14599D202932A
:1046F00023464C46B1461E46AA682B68501C4FF014
:104700003001A8609954D5E901329A4209F1FF3984
:1047100008D2B9F1000F26D04C45EDD13446029BAA
:104720004E467EE72846FFF7A7FCF2E7A9684A1C39
:10473000AA602A682D205054D5E901219142C8F180
:104740000008FFF46AAF28460293FFF795FC029B2E
:1047500063E72846FFF790FCAB68DDE62846FFF7E5
:104760008BFCAB68CEE6029B3446002659E71E461A
:1047700042E7039BB3E600BFCDCCCCCCB8860100AA
:10478000FFF71ABC2DE9F041058ACE1C043D2E44EA
:104790000746B6FBF5F6FFF72BFC78B3F6B24FF4FD
:1047A0008073013E0446C5800760838027D0804621
:1047B000002509E06379AE4203F101036371C8F893
:1047C0000000076080461AD03846FFF711FC01351B
:1047D0000028EFD16679721E14D023460130824240
:1047E0001B68FBD11F684EB10025236821460135A7
:1047F00038461C46FFF724FCAE42F6D10024204682
:10480000BDE8F0812768EFE704300121FFF7A4BB82
:10481000F8B5012104460430FFF7AAFBC0B200B18D
:10482000F8BD6679721E12D02346013082421B68A1
:10483000FBD11F68002EF3D00025236821460135E7
:1048400038461C46FFF7FCFBAE42F6D1F8BD2768A0
:10485000F2E700BF2DE9F843C788467907FB06F663
:10486000043E02EB030C0446664503F104001546C2
:104870008846B0FBF7F238BFF51A07FB120012B1F9
:10488000013A2468FCD13E1AAE4228BF2E469DB1A3
:104890004FF000090430AD1B2044324608EB0901FB
:1048A00003F060F9AF42B14424683E464FF0000087
:1048B00028BF2E46002DEDD1BDE8F8832DE9F84341
:1048C000C7884679154607FB06F6043E05EB030C40
:1048D0001A1D664504468846B2FBF7F038BFF51A44
:1048E00007FB102110B101382468FCD17E1AAE42BA
:1048F00028BF2E469DB14FF0000904312144AD1B65
:10490000324608EB090003F02DF9AF42B1442468A8
:104910003E464FF0000128BF2E46002DEDD1BDE8E8
:10492000F88300BF32DF70473EDF7047064A074B0F
:1049300010B5002414701C60BFF35F8F0449054854
:1049400000F09CF8204610BDD9140020DC14002093
:10495000C8860100D014002000B583B002A800234F
:1049600000F8013DFFF702FAF1EE103A23F09F0341
:10497000E1EE103ABFF35F8F0A4B4022C3F8842167
:104980009DF80700FFF718FA03F01CF828B920BFBC
:1049900040BF20BF03B05DF804FBFFF7C5FF03B0C5
:1049A0005DF804FB00E100E0704700BFF8B5264D5C
:1049B000064601212846FFF7C5FABFF35F8FD0B93D
:1049C000042E2FD0214B1A7892B9214C0122267047
:1049D0001A70204E73687BB1374604E0384600F009
:1049E00057F8736843B11B68207898470028F5D1C1
:1049F000BFF35F8F2860F8BDFEF702FBFEF7C0FA39
:104A00000028FBD12378023B012B0DD902F0DAFFFD
:104A1000B8B94FF080430122C3F80025BFF34F8F90
:104A200020BFFDE70A4CD4E7BFF34F8F0A490B4B79
:104A3000CA6802F4E0621343CB60BFF34F8F00BF3C
:104A4000FDE7FFF76FFFE4E7DC140020D914002036
:104A5000D8140020D014002000ED00E00400FA0576
:104A60008268002393608268136182685361826860
:104A7000D3608268536082681360704701600B687E
:104A800043604A68934204BF00234360704700BFFD
:104A9000436843B1026891680B4443605268934293
:104AA00004BF00234360704730B4184DA5F59472DD
:104AB000AB1ADB1003EBD3735B1002EBC30152F8AC
:104AC0003330984228BF0C4605D311E052F83330FA
:104AD00098420CD221468B1ADB1003EBD3735B1088
:104AE0008A4202EBC304F1D3094830BC70470D463B
:104AF000984204D904F10802AA42D9D3F4E76068C5
:104B0000034B002808BF1846EFE700BF1C880100D0
:104B1000E08601000A7B10B4D1E90043002A0ABFF5
:104B2000234600220122027103605DF8044B7047A6
:104B300010B4034600791C688A6840B14868011BBC
:104B400091420ED9A01818605DF8044B70470868B0
:104B5000211A91420BD8012218601A715DF8044B9A
:104B60007047002218601A715DF8044B7047A01A54
:104B700018605DF8044B704710B4D1E90132046845
:104B8000191B91428EBFA3180022027103605DF8C9
:104B9000044B704710B404680B688A68E11A9142AC
:104BA0008EBFA31A0122027103605DF8044B7047A7
:104BB00030B585B00478094A094B45688DF8004046
:104BC000047AC068039053F8213001958DF80840AD
:104BD00052F821106846984705B030BDE014002017
:104BE000E414002030B585B0047845688DF80040A5
:104BF000D0E90240064A074B039053F82130019553
:104C00008DF8084052F821106846984705B030BD2D
:104C1000E0140020E4140020F0B51A4B06781A4D79
:104C20000C6991F81DE045F826400746174803F83F
:104C300006E040F826200C4694460FCC89B06D461D
:104C40000FC594E80F0085E80F000496BEF1000F31
:104C50000BD0BCF1000F0E4A694607F1040008BFF3
:104C6000002200F09FFF09B0F0BDBCF1000F094A1F
:104C7000694607F10C0008BF002200F061FD09B091
:104C8000F0BD00BF50170020E0140020E414002005
:104C9000B14B0100E54B010070B51E4C94F8585023
:104CA00082B0A5BB4FF0FF332946042204F1540023
:104CB000C4E90033C4E90233C4E90433C4E9063368
:104CC000C4E90833C4E90A33C4E90C33C4E90E3338
:104CD000C4E91033C4E91233236502F04EFF0E4BD2
:104CE0000E4A0F4E1560C02183F806134021C3F809
:104CF000801119601368019301994FF0004301225C
:104D0000284684F85820C6F8043302B070BD082045
:104D100002B070BDE814002000E100E07C610040BA
:104D200000600040034B93F85800003018BF01208A
:104D3000704700BFE8140020F0B56C4B1C1894F9C4
:104D40003050002D68DA8E78C6F340069646002E65
:104D50005CD11D6A013500F0B58009240C2553F89B
:104D6000247001375BD004F1010C53F82C7001372B
:104D700000F0B380A71CAF4246D253F8272001327F
:104D800000F0AD8004F1030CAC453DD253F82C701B
:104D9000013700F0A28004F1040CAC4534D253F882
:104DA0002C70013700F0998004F1050CAC452BD232
:104DB00053F82C70013700F0908004F1060CAC45DC
:104DC00022D253F82C70013700F0878004F1070CD1
:104DD000AC4519D253F82C7001377ED004F1080C81
:104DE000AC4511D253F82C70013776D004F1090C80
:104DF000AC4509D253F82C7001376ED00A34AC425E
:104E000002D2DC6A013409D00420F0BD1D680135EE
:104E100067D001240825A2E70820F0BD0B241F1845
:104E200065B243F824E087F83050002E51D08A78DC
:104E3000540714D4D6073BD44C784FF0A04600F565
:104E4000E072A40046F82240294EC40800F0070C86
:104E5000375D012202FA0CF23A4332558A780C7817
:104E600012F0020209D1083D2B44104693F850205D
:104E700042EA841483F85040F0BDAB0003F1804354
:104E800003F5C0430202D3F8101521F4473121F491
:104E90004071C3F810152404D3F8101504F44034FD
:104EA00002F4F85222430A43C3F810250020F0BD53
:104EB000820002F1A042D2F8004724F00204C2F8B6
:104EC0000047C1E7082684F83060C3F820E0354683
:104ED00034461C4484F84800A9E764469FE73C46F2
:104EE0009DE700251A6084F83050A0E7E814002000
:104EF0003C15002070B42E4D2E1883B096F930303A
:104F0000072B1CDD2B4493F848309B09032B41D021
:104F1000012B14BF4FF440314FF40031800000F1F9
:104F2000A040D0F8002722F44032C0F80027D0F883
:104F300000370B43C0F8003703B070BC7047DAB2DB
:104F4000072AF9D8980000F1804000F5C04003F12D
:104F50004002D0F81045920092B244F0010402F1F0
:104F60008042C0F8104502F5C04200200190019C2B
:104F700010600029E0D096F9302055F82220002A50
:104F8000DAD001220B4902FA03F3C1F8043303B06B
:104F900070BC70474FF0A043D3F81035C34013F0F6
:104FA000010F0CBF4FF400314FF44031B6E700BFA2
:104FB000E8140020006000404FF0A043D3F8103503
:104FC00023FA00F000F00100704700BF2DE9F04126
:104FD00086B00023A14A01931668012E00F0548187
:104FE0001E469F4B1A68012A00F05D819D4B1A688E
:104FF000012A00F06A819C4B1A68012A00F077812F
:105000009A4B1A68012A00F08481994B1A68012A88
:1050100000F09181974B1A68012A00F09E81964B0F
:105020001A68012A0CD0954B1B68012B00F0A58152
:1050300016F0FF0F15D1002E30DB06B0BDE8F08171
:105040008F4AD2F804231706EDD500221A601A6899
:1050500004926033049A1B68012B46F0800600F02E
:105060008C81884F00240125A30003F18043354241
:1050700003F5C0434FEA45050BD0D3F8100557F8A8
:105080002420D3F81015C0F30420C1F3014102B16C
:1050900090470134082CE7D1002ECEDA00224FF0E1
:1050A000FF33CDE90223774C012602AF94F950304B
:1050B0005D1C2CD0DBB223F0C00006AA4FEAD00C56
:1050C00002EB0C0E03F007021EF80C1C06FA02F2AB
:1050D00011421CD02518990995F9303054F8233025
:1050E000002B00F09881032900F098814FEA800C92
:1050F0000CF1A04C1EF8145CDCF800E71540CEF370
:10510000014E40F05C81BEF1030F00F0DE8100250E
:1051100094F95130581C2DD0DBB223F0C00006AA00
:105120004FEAD00802EB080E03F007011EF80C2C22
:1051300006FA01FC12EA0C0F1CD02218990992F908
:10514000303054F82330002B00F05B81032900F04D
:105150005B81820002F1A0421EF8148CD2F800E7B5
:1051600018EA0C0FCEF3014E40F03681BEF1030F6A
:1051700000F0A68194F95230591C2DD0DBB223F0F7
:10518000C00006AA4FEAD00802EB080E03F00701A0
:105190001EF80C2C06FA01FC12EA0C0F1CD0221887
:1051A000990992F9303054F82330002B00F03C81FB
:1051B000032900F03C81820002F1A0421EF8148C09
:1051C000D2F800E718EA0C0FCEF3014E40F0E3806E
:1051D000BEF1030F00F06E8194F953305A1C2DD0AC
:1051E000DBB223F0C00006AA4FEAD00802EB080E9B
:1051F00003F007011EF80C2C06FA01FC12EA0C0F52
:105200001CD02218990992F9303054F82330002B21
:1052100000F0ED80032900F0ED80820002F1A04251
:105220001EF8148CD2F800E718EA0C0FCEF3014EEA
:1052300040F0BC80BEF1030F00F00081002D3FF470
:10524000FCAE4FF0A043019AD3F8103593423FF4DF
:10525000F4AE029A0193039228E700BF0061004078
:1052600004610040086100400C6100401061004092
:1052700014610040186100401C6100407C610040E6
:1052800000600040E81400209A49D1F8041311F09E
:10529000010170D0136013680493049B964B1A6845
:1052A000012A7FF4A3AE934AD2F8042397077FF52F
:1052B0009DAE00221A601B680493049B8F4B1A68F2
:1052C000012A46F002067FF496AE8A4AD2F80423F9
:1052D00055077FF590AE00221A601B680493049B6B
:1052E000874B1A68012A46F004067FF489AE814A8A
:1052F000D2F8042314077FF583AE00221A601B68DE
:105300000493049B7F4B1A68012A46F008067FF439
:105310007CAE784AD2F80423D0067FF576AE002220
:105320001A601B680493049B774B1A68012A46F0A5
:1053300010067FF46FAE6F4AD2F8042391067FF512
:1053400069AE00221A601B680493049B6F4B1A68B5
:10535000012A46F020067FF462AE664AD2F80423A2
:1053600052067FF55CAE00221A601B680493049B12
:1053700046F0400653E60E4633E6654B00221A60BF
:105380001B6805934FF0A043059AD3F8103501939D
:1053900046F000464CE6BEF1020F7FF41DAF032934
:1053A00063D0002B3FF418AF984715E7BEF1020F0A
:1053B0007FF444AF032969D0002B54D13EE7BEF1FE
:1053C000020F7FF4A4AE032900F091800025002B8A
:1053D0003FF49EAE98479BE6BEF1020F7FF4CAAE43
:1053E000032956D0002B3FF4C5AE9847C2E60329E7
:1053F0007FF424AF17F8082042EA0C0207F80820CF
:105400000BE703297FF4B6AE17F8082042EA0C0236
:1054100007F808209DE603297FF479AE17F80C50B1
:10542000154307F80C5061E603297FF4D5AE17F851
:10543000082042EA0C0207F80820BCE60329BBD189
:105440004FF4003ED2F800C72CF4403CC2F800C72D
:10545000D2F800C701354CEA0E0CEDB2C2F800C715
:10546000002B3FF4EEAE9847E8E64FF4403ED2F80A
:1054700000C72CF4403CC2F800C7D2F800C7013581
:105480004CEA0E0CEDB2C2F800C78AE74FF4403E7A
:10549000D8E74FF4403ED2F800C72CF4403CC2F8A5
:1054A00000C7D2F800C701354CEA0E0CEDB2C2F8C5
:1054B00000C797E703297FF474AF4FF4003ED6E7A7
:1054C00003298FD14FF4003EE5E703297FF47FAF36
:1054D0004FF40035DCF8002722F44032CCF80027E6
:1054E000DCF800272A43CCF8002701256FE74FF4AA
:1054F0004035EFE700600040046100400861004073
:105500000C610040106100401461004018610040CF
:105510007C610040014B1B68184700BF4415002008
:10552000104B984201D00020704730B583B002A8DC
:10553000002300F8013D0D46FEF718FC0A4B1C79CC
:1055400034B19DF80700FEF737FC112003B030BDE1
:1055500001229DF807001D601A71FEF72DFC204600
:10556000F4E700BF0020004044150020034B9842A0
:1055700003D1034B00221A601A71704700200040CB
:105580004415002030B56C4AD2F8043399058BB02D
:1055900066D5D2F82431002B62D00023C2F8243122
:1055A000D2F8243103934FF40171644B0398C2F88D
:1055B000081393F8291009B9012151605E490222AC
:1055C0008DF81820D1F88024C1F880249869D96812
:1055D00009920022CDE90710C3E90622D3E900149D
:1055E00006A8A047544AD2F81C31BBB1534B186AE5
:1055F0005969884269D350480022C0F81C21D0F86C
:105600001C010190019849B198688DF81820089103
:105610005A610790D3E9001206A89047464AD2F88B
:105620004431DBB10021454BC2F84411D2F84401AA
:1056300093F829100090009809B1012111609A692E
:1056400062B10022586AD9689A610122CDE9071037
:105650008DF8182006A8D3E9001290470BB030BD92
:10566000354AD2F804335B07BCD5D2F80831002B99
:10567000B8D0324B996900293CD00021C2F80811FA
:10568000D2F8081104910499D868596AD2F81825FB
:1056900042545A6A996901325A625A6A8A42A1D1BD
:1056A000DA691968002A2ED0D8685D6A1C699A6187
:1056B000079000220120DC60DA615A628DF8180040
:1056C00008955B6806A898478CE793F8280000F0D7
:1056D000FF0400288FD1C2F81C41D2F81C1102919E
:1056E00002999C68186A196A205C01311962C2F833
:1056F0001C0593E7C2F80811D2F808010590059837
:10570000D2F81825C9E793F8292012B90A4A0120CE
:105710005060094A4FF40170C2F80803586ADA6809
:1057200008900024012007928DF818005A689C61A7
:1057300006A8904756E700BF002000404C15002007
:105740002DE9F041DFF8988107792C2606FB0786C2
:1057500082B096F82A30002B40F08F800D46044628
:105760005C4900681646FFF7DBFE002840F08180A8
:105770002B68591C0CD001224FF0A04102FA03F310
:10578000C1F808352B6803F5E073032241F82320A4
:105790006B685A1C06D003F5E0734FF0A04200215D
:1057A00042F823102368AA69C3F82425297D6B7D5C
:1057B00022680B43C2F86C35D5E900122368C3F8A0
:1057C0001425C3F80C152B7D012B5AD02C2303FB79
:1057D00007F308EB030256602A6948F80320002EFD
:1057E00034D022682B7F3C4D0021C2F81C11D2F826
:1057F0001C2100922268009EC2F84411D2F8441184
:10580000226801910199C2F804532168090B4AB238
:105810005B01002ADBB256DB02F1604202F5614215
:1058200082F800332268120B42F3C40323F0604372
:1058300023F0030303F1604303F5614302F01F0209
:10584000012101FA02F2C3F880211A602C23246896
:1058500003FB0783002204250121C4F8005583F8C7
:105860002A10C3E9062283F829205A6102B0BDE854
:10587000F081112002B0BDE8F081082002B0BDE83F
:10588000F081AB68591C06D003F5E0734FF0A042DD
:10589000002142F82310EB685A1C0DD001224FF072
:1058A000A04102FA03F3C1F80835EB6803F5E07391
:1058B000032241F82320EB682268A968C2F8083562
:1058C000C2F8101582E7054A01F00F010A44137669
:1058D000A8E700BF8555010080000200FCEC00E055
:1058E0004C150020F8B52F4D047902682C2303FBDA
:1058F000045300215B68C2F8001583B103682A4A8B
:10590000C3F808230368294E1B0B5AB252092032F0
:1059100003F01F03012101FA03F346F82230036864
:105920004FF0FF32D3F80CC5D3F81475D3F808152F
:10593000D3F81065C3F81425C3F80C250368944503
:10594000C3F80825C3F8102506D00CF5E07C4FF00D
:10595000A043022243F82C207B1C06D007F5E077F9
:105960004FF0A043022243F82720721C06D006F510
:10597000E0764FF0A043022243F826204B1C06D0CD
:1059800001F5E0714FF0A043022243F821200068A6
:10599000FFF7ECFD2C2303FB0454002384F82A308A
:1059A0006360F8BD4C1500208402020000E100E0B5
:1059B000F0B5314E05792C2303FB056385B05C6996
:1059C000002C53D11C62996083F828405A61026808
:1059D000C2F81C41D2F81C11026802910121029FF9
:1059E00091600268D3F808C0C2F81C41D2F81C11BB
:1059F00001910199D3F820E0196A5F681CF80EE064
:105A000001311962C2F81CE517B1204605B0F0BD9E
:105A10001A6A5C690168944203D819E093F8282057
:105A20003ABBD1F81C21002AF8D0C1F81C71D1F87A
:105A30001C210392039AD3F820E01A6A1CF80EE0A6
:105A400001321A62C1F81CE51A6AA242E9D3016860
:105A5000D1F81C31002BFBD00123CB6000202C237C
:105A600003FB056500236B6105B0F0BD112005B097
:105A7000F0BD0F20F3E700BF4C150020F0B5474BF9
:105A8000D3F8242189B0002A54D00021C3F824116E
:105A9000D3F82421029202228DF81020029AD3F822
:105AA00080043F4AC3F880040790D3F83C05D368CC
:105AB0008DF81800C2E9061105931168536804A80F
:105AC0009847364BD3F84421BAB10020344AC3F882
:105AD0004401D3F8444191690194019C69B1D3F820
:105AE0003C458DF81840D3689061012405931168F6
:105AF00053688DF8104004A89847284BD3F820210C
:105B0000B2B10021264AC3F82011D3F820415069D0
:105B10000094009C60B1D3F84C0593688DF8180090
:105B20008DF810105161059304A8D2E9001398472D
:105B300009B0F0BDD3F810110029C2D0C3F810216C
:105B4000D3F810111648039103998169D3F83C45A5
:105B50008C42B6D1C569C768D0E90016E4B295B1E8
:105B6000D3F800C285612CF02005C261C3F8005251
:105B70000369C36001228DF8184005978DF8102045
:105B800004A8B0479DE7012385618DF8184005976B
:105B90008DF8103004A8B04793E700BF0020004004
:105BA000781500202DE9F04307796B4E4FEAC708BE
:105BB00008EB070306EB830385B093F82030002B36
:105BC00040F09E800D460446644900689146FFF708
:105BD000A7FC002840F090802B68591C0CD00122B3
:105BE0004FF0A04102FA03F3C1F808352B6803F522
:105BF000E073032241F823206B685A1C06D003F59A
:105C0000E0734FF0A042002142F823102368AA69F4
:105C1000C3F82425297D6A7D23680A43C3F86C25CF
:105C2000D5E900312268C2F80C35C2F814152B7D75
:105C3000012B69D008EB07029200B318C3F8049057
:105C40002B69B350B9F1000F45D021682B7F444D2B
:105C50000022C1F81021D1F8101100912168DDF85F
:105C600000C0C1F82021D1F8201101912168DDF890
:105C700004C0C1F82421D1F8241102912168DDF873
:105C800008C0C1F84421D1F8441122680391039956
:105C9000C2F804532168090B4AB25B01002ADBB247
:105CA00054DB02F1604202F5614282F8003322685F
:105CB000120B42F3C40323F0604323F0030303F108
:105CC000604303F5614302F01F02012101FA02F271
:105CD000C3F880211A604744226806EB8706002338
:105CE0000124082186F82040C2F80015C6E90633D1
:105CF000736105B0BDE8F083112005B0BDE8F08305
:105D0000082005B0BDE8F083AB68591C06D003F548
:105D1000E0734FF0A042002142F82310EB685A1CB8
:105D20000DD001224FF0A04102FA03F3C1F808356B
:105D3000EB6803F5E073032241F82320EB68226847
:105D4000A968C2F80835C2F8101573E7054A01F0D2
:105D50000F010A441376AAE7781500207D5A010046
:105D600010030200FCEC00E0F8B506792F4C026845
:105D7000F500AB1904EB830300215B68C2F8001542
:105D800083B103682A4AC3F808230368294F1B0B11
:105D90005AB25209203203F01F03012101FA03F322
:105DA00047F8223003684FF0FF32D3F80CE5D3F800
:105DB00014C5D3F80815D3F81075C3F80C25C3F82B
:105DC000142503689645C3F80825C3F8102506D0A6
:105DD0000EF5E07E4FF0A043022243F82E20BCF1E6
:105DE000FF3F06D00CF5E07C4FF0A043022243F8C1
:105DF0002C207A1C06D007F5E0774FF0A043022252
:105E000043F827204B1C06D001F5E0714FF0A0436A
:105E1000022243F82120354404EB85040068FFF793
:105E2000A5FB002384F820306360F8BD78150020BE
:105E30001003020000E100E001F06043B3F1005FF5
:105E40002CD1F0B50679234F4FEAC60C0CEB0604B3
:105E500007EB840483B0636913BBA16062610568CA
:105E6000C5F82031D5F820E10568CDF804E0DDF86B
:105E700004E0C5F85831D5F858E10568CDF800E0E0
:105E8000DDF800E0C5F84415C5F848250268012191
:105E9000916062683AB1184603B0F0BD10207047B7
:105EA000112003B0F0BD036800E08AB9D3F82011D7
:105EB000D3F858210029F8D0002A14BF0F20002061
:105EC0000CEB060307EB830300225A6103B0F0BD1D
:105ED0000F20F5E778150020C4DF7047C7DF704753
:105EE000F8B503469068986050685860147844701C
:105EF0005868D26842605A681548164D002494705C
:105F00005A681E4614700A7806F80C2B0F46124980
:105F1000DC606D1A03C87460ED08FF265C615E7377
:105F20001C83C3F81A40DC831C629C8483F82640DF
:105F30009E622D042C3383E8030045F003000749DB
:105F4000FCF75AFD3846BDE8F84000F011BD00BF2F
:105F5000248C010038930100189301002C8C01005F
:105F600043689A78022A1CBF02229A70704700BFC9
:105F700030B543689A78022A83B005461CD0427B2C
:105F80001978FF2A01D0782960D0772959D800F0F4
:105F900099805878002861D04D4AA2FB01429208AE
:105FA00002EB82028A1AD2B2022A57D0012800F0EC
:105FB0008C801222104653E0002101229970104675
:105FC000444B454C8DF80000E41AE408240444F0E6
:105FD000030420464149FCF70FFD9DF80030112BCA
:105FE00063D018D9502B59D0512B49D0122B3AD00D
:105FF0006A4608212878FFF771FF08B1FDF75EFBBC
:1060000020462A783649FCF7F7FC28780021FFF76C
:1060100063FF03B030BD012B39D0102BE8D10DF157
:10602000010005F1140100F0B5FA0DF1010005F1D0
:10603000340100F025F9AB689DF800102846984718
:10604000D6E70021512219701046B9E712220273D7
:1060500019780122114419701046B1E71022104638
:1060600001311970ACE70DF1010005F1200100F0DC
:10607000EDFA0DF1010005F1340100F001F9DAE764
:1060800005F12C010DF1010000F0CCFCD3E705F186
:106090000C010DF1010000F013F9CCE705F1260128
:1060A0000DF1010000F088FCC5E70DF1010005F1DC
:1060B0001A0100F0B1FA0DF1010005F1340100F010
:1060C000DFF8B8E750221046CAE711221046C7E7AA
:1060D000CDCCCCCC18930100389301005C8C01002E
:1060E000488C010090F82C200B789A4200D0704721
:1060F00030B590F82D30032B83B00C4606D0802BA2
:1061000002D143784F2B44D003B030BD4B689A780E
:10611000022A70D04A7B1978FF2A01D078294CD006
:10612000772945D800F09E805878002868D0504ADA
:10613000A2FB0152920802EB82028A1AD2B2022A10
:106140005ED0012800F091801222154601311970AD
:10615000484B494849498DF80050C01AC00800040E
:1061600040F00300FCF748FC9DF80030112B4AD0AA
:106170002BD9502B68D0512B5FD0122B50D02078C8
:106180006A460821FFF7AAFE0028BDD0FDF796FA5F
:10619000BAE7C578012DB7D16946043000F058F947
:1061A00063689D70636869465B6820469847ABE703
:1061B0000021512219701546CAE71222227319785C
:1061C0000122114419701546C2E7012B43D0102B50
:1061D000D5D10DF1010004F1140100F0DBF90DF14E
:1061E000010004F1340100F04BF8A3689DF80010A1
:1061F00020469847C3E70021012299701546A7E77A
:1062000010221546A2E70DF1010004F11A0100F079
:1062100003FA0DF1010004F1340100F031F8E4E774
:106220000DF1010004F1200100F010FA0DF1010060
:1062300004F1340100F024F8D7E704F12C010DF14A
:10624000010000F0EFFBD0E704F126010DF10100A1
:1062500000F0B2FBC9E704F10C010DF1010000F000
:106260002FF8C2E75022154670E7112215466DE758
:10627000CDCCCCCC18930100389301005C8C01008C
:1062800010B40B4A0B4B0C788470981A0A78C0082B
:106290000004FF2A40F0030004D007495DF8044BD6
:1062A000FCF7AABB05495DF8044BFCF7F7B900BF42
:1062B0001893010040930100AC8C01007C8C01001C
:1062C00070B5584B584C0A78E41AE40824040D467B
:1062D00044F00304064655492046FCF78DFB2B7815
:1062E000AB2B1FD02AD8122B1CD0AA2B06D0102BD8
:1062F0005DD04F492046FCF7D1F92B7833702B78CD
:10630000AB2B2FD036D8122B6AD0AA2B61D0102BF2
:1063100053D070BDAC2BECD1B5F9022045492046D5
:10632000FCF76AFB6B78012B76D04CD3FF2BE4D1C2
:1063300041492046FCF7B2F92B78DFE7AF2BEBD0D1
:10634000E8D9BA3B032BD4D83C492046FCF7A6F940
:106350000622A91C2046FCF76FFD2B7833702B78A2
:10636000AB2BCFD10522FF21B01C01F006FC6B78CE
:10637000737070BDAF2B0CD009D9BA3B032BC8D8B2
:10638000A91C701C0622BDE8704001F0EBBBAC2BD1
:10639000BFD10322FF21B01C01F0EFFB6B787370BB
:1063A000B5F902307371C3F30723B37170BD24498B
:1063B0002046FCF773F92B78A0E720462149BDE879
:1063C0007040FCF76BB920492046FCF767F92B7841
:1063D00094E7701C0622FF21BDE8704001F0CDBBA0
:1063E0000522FF21B01C01F0C8FB73786FF387030F
:1063F00073706B787278FF3B18BF012363F3000260
:1064000072706B78A3F10103B3FA83F3D2B25B0924
:1064100063F34102727070BD0C492046FCF73EF9EF
:106420002B786BE71893010048930100EC8C010076
:10643000B48D0100148D01003C8D0100908D010090
:106440007C8D0100D48D0100588D01006C8D010000
:1064500038B5454B454C02780A70E41A0378E408D5
:106460002404AC2B0D4644F0030468D03ED8122B14
:106470004AD0AB2B6BD0102B55D03D492046FCF7B2
:10648000BBFA2B78AB2B25D00BD8122B22D0AA2B02
:1064900039D0102B41D020463649BDE83840FCF7B2
:1064A000FDB8AF2B10D00DD9BA3B032BF3D8204643
:1064B0003149FCF7F3F8A91C20460622BDE8384014
:1064C000FCF7BABCAC2BE6D1B5F902202B4920462B
:1064D000FCF792FA6B78012B3CD02AD3FF2B12D118
:1064E00020462749BDE83840FCF7D8B8AF2B26D066
:1064F000C3D3BA3B032BC0D8411C0622A81C01F011
:1065000031FB2A78B9E738BD4378D90728D513F08D
:10651000020318BF01236B70AFE720461949BDE89D
:106520003840FCF7BBB818492046FCF7B7F82A7882
:10653000A3E720461549BDE83840FCF7AFB84378DB
:106540006B708179437943EA01236B8095E7437847
:106550004B7092E720460E49BDE83840FCF79EB8E4
:10656000FF236B7089E700BF189301004893010077
:10657000EC8C0100B48D0100908D0100148D0100A0
:106580003C8D01007C8D0100D48D0100588D0100EF
:106590006C8D010038B54B7803700B7843704B88D5
:1065A000C370164A164C1B0A03718B884371A41AD8
:1065B000E4081B0A240483710D4644F003044A785E
:1065C00010492046FCF718FA2A78FF2A11D002F069
:1065D0007F020D492046FCF70FFA6A880B492046D6
:1065E000FCF70AFAAA880A492046BDE83840FCF7B9
:1065F00003BA08492046FCF751F8EEE7189301006A
:1066000050930100F48D01001C8E0100708E01007A
:106610009C8E0100488E010010B50C4600F084F8F5
:10662000074B08480849C01AC008000440F003009E
:10663000FCF734F82046BDE8104000F021B800BF58
:106640001893010058930100DC8E010010B50C4630
:1066500000F06AF8074B08480849C01AC00800044F
:1066600040F00300FCF71AF82046BDE8104000F0A7
:1066700007B800BF1893010060930100F88E010075
:106680002DE9F047204B214C2149E41A8046E408CB
:106690008088B8F802C00A25240410220023E0FBF9
:1066A000052344F003044FF47A79204655094FF44A
:1066B000806698F80020002745EAC365ECFB09676F
:1066C000FCF79AF998F8012012492046FCF794F952
:1066D000114A1249C6F3CF26A2FB0632920909FBE2
:1066E0001266B3B22046FCF707FA0D4A0D49A2FB29
:1066F0000532D20802EB82032046A5EB4303BDE836
:10670000F047FCF7F9B900BF189301006893010046
:10671000148F0100388F0100D34D62105C8F01008F
:10672000CDCCCCCC888F01000B7803704B784370B4
:106730004B88C3701B0A03718B8843711B0A8371DA
:10674000704700BF70B50446096801604FF4FA63F2
:1067500002710A26A36101220023FE256420A064A1
:106760006263E264E6612563A360636184F82030BC
:10677000E36284F83830636484F850300B7D43F072
:1067800080030B7504F10C0004F11401FEF7C2F94B
:1067900004F12C0104F12400FEF7BCF904F14401DA
:1067A00004F13C00BDE87040FEF7B4B9112910B502
:1067B000044654D0122922D0102900D010BD0379EC
:1067C000002B40F083802368E2681A832268E36824
:1067D000D18A0B44D3822368D98A4FF6FF72914243
:1067E0006AD0626A83F834202368E16B1A7D61F312
:1067F00006021A752268537D0133537510BD037963
:10680000002B75D12368626A83F8342023683B48E3
:1068100040F206325A84A368216803F5FF53163309
:10682000A36091F821205B09A0FB03C302EB930353
:1068300081F82130A16822684B09A0FB03039B0863
:1068400043F2600000FB1313A360938C0A3393841C
:10685000226892F82030013382F8203010BD03798D
:10686000002B2DD12368626A83F8342023682348E3
:106870009A8B02F206329A83A368216803F5FF53CC
:106880001633A360CA7E5B09A0FB03C302EB93032C
:10689000CB76A16822684B09A0FB03039B0843F257
:1068A000600000FB1313A360D38B0A33D3832268E9
:1068B000937E0133937610BD0022DA82236890E73D
:1068C00000F12C012430FEF733F9CBE700F114017D
:1068D0000C30FEF72DF904F12C0104F12400FEF731
:1068E00027F904F1440104F13C00FEF721F96AE7BD
:1068F00000F12C012430FEF71BF983E7EB5FA502C2
:10690000037903B1704710B500F1140104460C304F
:10691000FEF732F904F12C0104F12400FEF72CF902
:1069200004F1440104F13C00BDE81040FEF724B935
:10693000037903B1704710B500F1140104460C301F
:10694000FEF728F904F12C0104F12400FEF722F9E6
:1069500004F1440104F13C00BDE81040FEF71AB90F
:10696000C2DF7047CDDF7047D1DF7047D3DF70479C
:1069700010B504468378827A41780078FFF7F0FFFB
:1069800000B110BD23796279E1882078FFF7EEFF2E
:106990000028F6D1E1782078FFF7E4FF0028F0D155
:1069A000A378DB07EDD421890029EAD02078BDE85F
:1069B0001040FFF7D9BF00BF70B50D460646022252
:1069C000FF2101F0DAF82B78B3706B88104A114C74
:1069D00011499BB2F3701B0A3371AB88A41A9BB2A6
:1069E000E4081A0A2404737144F00304B2712A788B
:1069F0002046FCF701F86A8808492046FBF7FCFFAF
:106A0000AA8807492046BDE87040FBF7F5BF00BFE4
:106A10001893010070930100CC8F0100F48F0100E6
:106A20001C90010038B5FF2303700B7843704B783E
:106A300083704B68C3700D46190A0171104C114ADE
:106A4000190C1B0E41718371A41A2B78E4082404DD
:106A5000FF2B44F003040CD02B786A780A492046B7
:106A6000FCF74AF86A6809492046BDE83840FBF758
:106A7000C3BF6A7806492046FBF7BEFFF2E700BFB6
:106A8000789301001893010058900100A89001002C
:106A900080900100CCDF70470149FFF7FBBF00BFCA
:106AA0009C15002008B5002000F03EFA08B1FCF764
:106AB00005FE012008BD00BF08B5194B90F82C2039
:106AC0001B789A4200D008BD164B1B780BB1402BA7
:106AD000F9D190F82D30072B15D00CD8012B1BD0F5
:106AE000022BF0D10B2000F01FFA0028EBD0BDE8FC
:106AF0000840FCF7E3BD082B0AD0802BE3D1072028
:106B000000F012FAF1E70020BDE80840FDF74EBFA3
:106B1000012000F009FAE8E7002000F005FAE4E7B8
:106B20009C0B0020A4150020034A044B1070002089
:106B3000197000F0F9B900BF9C0B0020A4150020CB
:106B4000074B1B78102B07D0402B02D00BB1002035
:106B50007047012000F0E8B9022000F0E5B900BF5D
:106B6000A41500200220FCF705BC00BF2DE9F0476A
:106B70000D460646FCF710FC03281ED8012D0446DE
:106B80001DD00ED3022D18D11B4B00EB40041C442A
:106B9000657895B1194B1B687BB12846BDE8F04775
:106BA00018471748FDF7A8F8134B164A04EB4401A1
:106BB0000B44125D9D78AA42EBD0BDE8F0870E4FE2
:106BC0004FEA400808EB0003FA18FD5C53782BB934
:106BD000A04447440B4BBA781A55DAE7DFF82890FF
:106BE00007484A464FF40041FDF730F80028EFD13E
:106BF00089F80060ECE700BF081600201C16002092
:106C0000C815002024160020A515002010B5007816
:106C1000FCF7C2FB03280BD8064B00EB40001844DE
:106C2000407828B1044B1B6813B1BDE810401847E9
:106C300010BD00BF081600201C160020B44B1B68B6
:106C4000DB0700D4704770B5B24DB34E2B78347863
:106C50006BB1B24B1B7800202870002B4BD0FCF797
:106C600051FB0120FCF74EFB0320FCF74BFB172CDC
:106C700040D8DFE814F0B600F400F400DC000801AE
:106C8000CA001301EE0050004300500043006100B1
:106C900018001800180018001800660077008B0014
:106CA0009F005D005D009E48FDF726F8D4F11104B9
:106CB000054600F00081002840F0FD80012C13D033
:106CC000C82303FB04F44FF4FA704FF4004300218F
:106CD000C3FB04014FF47A72002300F06DFF2A46D3
:106CE00001468F48FCF7B2FF0220FCF7FFFA8B4BFE
:106CF00001221A7070BDFCF711FBB8E7012318469A
:106D00002B70FCF737FB00224FF480418548BDE82B
:106D10007040FCF79BBF012318462B70FCF72AFB41
:106D2000002240F6CD417F48BDE87040FCF78EBFA1
:106D3000FCF70AFB347070BDFCF706FB0C233370C4
:106D400070BD764B1B78002B00F0BF800020FCF755
:106D5000D9FA0120FCF7D6FA0320FCF7D3FA122364
:106D6000337070BD6D4B1B78002B00F0B18000209C
:106D7000FCF7C8FA0120FCF7C5FA0320FCF7C2FAB9
:106D80000020FCF7B3FA1323337070BD634B1B78FC
:106D9000002B00F0AD800020FCF7B4FA0120FCF7D6
:106DA000B1FA0320FCF7AEFA0120FCF79FFA142396
:106DB000337070BD594B1B78002B00F0838000208E
:106DC000FCF7A0FA0120FCF79DFA0320FCF79AFAE1
:106DD0000020FCF78BFA0120FCF788FA15233370AA
:106DE00070BD4E4B1B78002B00F08A800020FCF712
:106DF00089FA0120FCF786FA0320FCF783FA494858
:106E0000FCF77AFF0023337070BD0020FCF760FAB6
:106E1000002860D00020FCF775FA052333700022AB
:106E200041F69A113F48BDE87040FCF70FBF0020C3
:106E3000FCF74EFA00285ED00020FCF763FA46F219
:106E400066610323337000223648BDE87040FCF7CA
:106E5000FDBE0020FCF74AFA0723337070BD002006
:106E6000FCF736FAD0B30020FCF74CFA022C4EF2B5
:106E7000666118BF4FF40031347000222948BDE824
:106E80007040FCF7E3BE0020FCF722FAD8B30020E4
:106E9000FCF738FA4FF400310423D3E70020FCF765
:106EA00069FA06233370002240F6CD411D48BDE843
:106EB0007040FCF7CBBE0220FCF724FA174B0022EF
:106EC0001A7070BDFCF72AFA82E7FCF727FA46E74A
:106ED000FCF724FA54E7FCF709FA9EE7FCF706FAF8
:106EE00043F2333141F69A13022C08BF1946C3E727
:106EF000FCF714FA58E7FCF7F9F941F69A11A0E704
:106F0000FCF70CFA7BE7FCF7F1F943F23331C3E706
:106F1000141600201816002020160020A6150020A8
:106F2000A8150020E815002038B5C54B1C6814F0E2
:106F3000010401D1204638BDC24C2378054663B117
:106F4000C14B1B780020207023B3FCF7DBF9012034
:106F5000FCF7D8F90320FCF7D5F9172D00F26D8165
:106F6000DFE815F0C300EC00EC001001D9002301AC
:106F70000201360128001B0028001B006A00710076
:106F800071007100710071009A00AD0035004B0076
:106F900064006400FCF7C2F9DFE7012318462370A0
:106FA000FCF7E8F900224FF48041A848BDE83840DA
:106FB000FCF74CBE012318462370FCF7DBF90022D6
:106FC00040F6CD41A148BDE83840FCF73FBE9E4B9E
:106FD0001B78002B00F016810020FCF793F90120AC
:106FE000FCF790F90320FCF78DF90120FCF77EF9FE
:106FF000974B14221A7000249CE7934B1B78002BAC
:1070000000F003810020FCF77DF90120FCF77AF9FC
:107010000320FCF777F90020FCF768F90120FCF762
:1070200065F98B4B15221A70002483E7FCF78CF965
:10703000874B00241D707DE7FCF786F9844B0C22FA
:107040001A70002476E78348FCF756FE0446D5F113
:10705000110000F0C580002C40F0C280012814D03F
:10706000C82505FB00F54FF400434FF4FA700021EA
:10707000C3FB05014FF47A72002300F09DFD224608
:1070800001467448FCF7E2FD04460220FCF72EF9A5
:107090006D4B01221A704DE76B4B1B78002B00F0F3
:1070A000AE800020FCF72EF90120FCF72BF903201D
:1070B000FCF728F9664B12221A7000243AE7624B5B
:1070C0001B78002B00F093800020FCF71BF90120B7
:1070D000FCF718F90320FCF715F90020FCF706F976
:1070E0005B4B13221A70002424E7574B1B78002BAC
:1070F00000F08E800020FCF705F90120FCF702F972
:107100000320FCF7FFF85148FCF7F6FD504B002236
:1071100004461A700EE70020FCF7DAF8002869D060
:107120000020FCF7EFF84FF40031494B47480424A6
:107130001C700022BDE83840FCF788BD0020FCF739
:10714000C7F800286CD00020FCF7DCF8022D4EF2C6
:10715000666118BF4FF400313D4B3C481D70002262
:10716000BDE83840FCF772BD0020FCF703F9384B4E
:10717000364806241C70002240F6CD41BDE8384058
:10718000FCF764BD0020FCF7A3F8002843D00020E2
:10719000FCF7B8F846F266612D4B2C4803241C70AE
:1071A0000022BDE83840FCF751BD0020FCF790F804
:1071B00000283FD00020FCF7A5F8254B23480524E4
:1071C0001C70002241F69A11BDE83840FCF73EBD24
:1071D0000020FCF78BF81E4B07221A700024A9E64A
:1071E0000220FCF78FF8184B00221A70A2E6FCF779
:1071F00095F872E7FCF77AF843F2333195E7FCF73C
:107200008DF857E7FCF78AF8EFE6FCF787F802E716
:10721000FCF784F877E7FCF769F841F69A11BBE7C9
:10722000FCF764F843F2333141F69A13022D08BF9C
:10723000194691E7FCF75AF8BFE700247AE600BF49
:107240001416002018160020A6150020E8150020AE
:1072500020160020A815002038B5244B244A1960B8
:107260008307106000F0010503D4CDB92C462046F9
:1072700038BD204B20480E240F2210211C701124F1
:10728000DA7099715C7240F266620421FCF7A8F929
:107290000446B8B115B10120FCF790F8204638BD7E
:1072A0000120FCF78BF8154A15480021FCF7BCFCBF
:1072B00004460028F2D1134A13480121BDE83840A2
:1072C000FCF7B2BCFCF7E4F904460028E2D1014621
:1072D0000E4A0F48FCF7A8FC0446002DDED0012022
:1072E000FCF76CF8002CD9D1DDE700BF1C1600209C
:1072F0001416002008160020E49001003D6C0100E7
:107300000C910100656B0100049101000D6C0100FE
:10731000089101000F280AD0102805D00E2800D0AF
:1073200070470448FFF7ECBA0348FEF719BE01485E
:10733000FFF7FEBA681600202816002010B50C468C
:10734000FDF732FB122C04D8102C06D2012C04D0ED
:1073500010BDA4F15003012BFAD821460248BDE824
:107360001040FFF723BA00BF6816002010B40B7856
:10737000AA3B122B11D8DFE803F00A2210101010DC
:10738000101010101010101010101E101300114BC0
:10739000AC2145F2AA521973DA815DF8044B7047AB
:1073A0000C4B0231BD241C7303F10E0006225DF864
:1073B000044B00F0D7BB074B0231BB24F3E7054B6E
:1073C000AC221A734A785A7345F2AA52DA815DF8F0
:1073D000044B70472816002000B54FF4004183B0DD
:1073E0000020FBF7FBF808B1FCF768F9FBF77CF825
:1073F000FCF7C6FB08B1FCF761F9FDF797FA08B195
:10740000FCF75CF92D490320FFF726FF08B1FCF7D4
:1074100055F92B4C10212078FFF786FB08B1FCF7BB
:107420004DF900F041FA08B1FCF748F900F014FBFF
:1074300008B1FCF743F90020FFF72EFB08B1FCF779
:107440003DF900231A4669461E4800948DF8043021
:10745000FFF778F91C4A1D491948FEF741FD08B1AC
:10746000FCF72CF91A4A1B4B1068C4F8260002F1ED
:10747000080103C992889A809D1D85E803000022B7
:10748000A3F126006273FEF773FD08B1FCF716F94D
:10749000FFF756FB08B1FCF711F90F480F4B1049E5
:1074A000C01AC008000440F00300FBF7F7F8FBF730
:1074B00067FD0028FBD1FDF74FFAF8E715730100CF
:1074C00028160020681600202C9101002091010050
:1074D000109101004E1600208093010018930100C6
:1074E0003C91010030B4904B1B78062B20D08F4B81
:1074F0001B68062B00F085808D4AD2F8883043F453
:107500007003C2F88830BFF34F8FBFF36F8F4FF017
:107510001023D3F80022002AC0F28681D3F8043267
:10752000002BC0F28181834B834A1A6030BC7047C4
:10753000824B1B681D07DAD1814B1B6803F0F002F8
:10754000302A00F09E8003F0E003402B00F0998089
:107550007B4B1B6803F0F003302B00F0B980784BB5
:107560001B6803F0F002302A56D003F0E003402BF2
:1075700052D0734B1B6803F0F003302B00F0B68041
:107580006F4B1B6803F0F002302A66D003F0E00373
:10759000402B62D06A4B1B6803F0F003302B00F0E5
:1075A000B580674B1B6803F0F003302B79D0644B38
:1075B0001B6803F0F003502B00F0E480604B1B6865
:1075C00003F0F002302A37D003F0E003402B33D031
:1075D0005B4B1B6803F0F002302A03D003F0E0039A
:1075E000402B84D14FF08043D3F80024D20744BF0E
:1075F0006FF00102C3F800244C4B1B68062B7FF48C
:107600007BAF504B1B68062B7FF476AF4E4A136856
:1076100043F4806313606FE74C4B434A1B68127856
:107620004B49C3F34233062A0B6048D1434B1B68D6
:1076300019077FF45CAF9CE7464A3B4B12681B7806
:10764000454902F04F02062B0A607FF450AF3B4BD6
:107650001B6819077FF44BAFBAE74FF08043002255
:10766000C3F80C21C3F81021C3F838252E4B1B7822
:10767000062B7FF43CAF314B1B681B077FF437AF01
:1076800088E7364B284A1B6812783549C3F3042330
:10769000062A0B60EAD1294B1B681C077FF427AF31
:1076A00056E7304C204A304912783048304B052597
:1076B000256001250D6000243F2104601960062A21
:1076C0007FF415AF1D4B1B681C077FF410AF6EE7EE
:1076D000154B284A1B7828491160062B7FF407AF09
:1076E000164B1B6818077FF402AF38E723490E4B8F
:1076F000CA681B7822F08072062BCA607FF4F7AE4E
:107700000E4B1B681A077FF4F2AE39E7064B1C4A92
:107710001B780321062B11607FF4E9AE074B1B6831
:107720001D077FF4E4AE3CE7E00F00F030010010ED
:1077300000ED00E0A00B00200090D003E40F00F06B
:10774000E80F00F0340100103C1700404402001024
:107750003C05004058020010E40E004024030010D5
:1077600040350140105600408856004018560040F1
:107770001456004074C007400DF0ADBAF0ED00E0C3
:10778000A00500404FF08053404AD3F80414C2F8DB
:107790002015D3F80814C2F82415D3F80C14C2F835
:1077A0002815D3F81014C2F82C15D3F81414C2F805
:1077B0003015D3F81814C2F83415D3F81C14C2F8D5
:1077C0004015D3F82014C2F84415D3F82414C2F895
:1077D0004815D3F82814C2F84C15D3F82C14C2F865
:1077E0005015D3F83014C2F85415D3F83414C2F835
:1077F0006015D3F83814C2F86415D3F83C14C2F8F5
:107800006815D3F840142248C2F86C15D3F8441414
:107810000378C2F87015062B7FF469AE1D4B1B6808
:1078200018077FF464AEC9E61B4B0122C3F8042598
:10783000D3F80024002AFBD04FF01023152216495C
:10784000C3F80022D1F80034002BFBD04FF01022F7
:107850001521114BC2F80412D3F80024002AFBD0E2
:1078600000220D49C3F80425D1F80034002BFBD0C9
:10787000BFF34F8F09490A4BCA6802F4E062134311
:10788000CB60BFF34F8F00BFFDE700BF00C00040DB
:10789000E00F00F0E40F00F000E0014000ED00E038
:1078A0000400FA0510DF704770B53C4D2B7884B0AA
:1078B000002B64D13A4E3B49012302A83370FDF7F7
:1078C000DDF8039B002B50D1374902A8FDF7D6F80D
:1078D000039B4BB1D3E900210020904702A8FDF79C
:1078E000D7F8039B002BF5D1304A002312688DF89E
:1078F000083002A80192FCF739FA2D4A2D4901A857
:10790000FFF7D0FFB0FA80F304465B099DF808004A
:107910002B70FCF751FA002C2ED1274B274A3470DC
:107920001C7092F816335B09012B31D9042B2FD030
:10793000234B996839BB4FF4800313601A4902A89E
:10794000FDF79CF8039BBBB1D3E9002101209047D0
:1079500002A8FDF79DF8039B002BF5D10CE002A8CF
:10796000FDF796F8039B002BAED0D3E90021002051
:1079700090470028F3D10446204604B070BD082487
:10798000204604B070BD1A6842F480021A60D5E740
:1079900042F20200FBF792FED0E700BFBD160020C6
:1079A000BC16002090910100A89101006491010093
:1079B00068910100DD360100BE16002000E100E004
:1079C00044170020014B1878704700BFBD160020F7
:1079D00000B583B068460849FDF750F8019B43B1F4
:1079E000D3E9002090476846FDF752F8019B002B31
:1079F000F6D103B05DF804FB9C910100C1DF704734
:107A0000FADF7047124B1B780BB310B5114C8EB0D8
:107A100002AA0DF135010DA8FFF7F0FF88B9214644
:107A20006846FDF72BF8019B002BF1D0D3E900212C
:107A300002A890476846FDF72BF8019B002BF5D173
:107A4000E6E7052801D0FBF739FE0EB010BD704700
:107A500040170020E891010010B5114B93E8070092
:107A600084B001AB83E807001846FFF7C9FF04465E
:107A700028B90C4B012220461A7004B010BDFDF746
:107A800013F8094A094B0A499B1ADB081B040246F2
:107A900043F00100FAF7B0FF204604B010BD00BF6C
:107AA000BC91010040170020189301009893010039
:107AB000C891010008B5074B044613B10021AFF38C
:107AC0000080054B1868836A03B19847204600F090
:107AD00071F800BF000000000092010070B50D4E6B
