:020000022000DC
:1060000000000120B5620200DD620200DF620200D2
:10601000E1620200E3620200E562020000000000AB
:10602000000000000000000000000000E762020025
:10603000E962020000000000EB620200ED62020073
:10604000398B0200EF62020019940200EF62020035
:10605000EF620200EF620200D18E0200EF620200E6
:10606000EF620200EF620200EF620200EF620200E4
:10607000EF620200EF620200EF620200EF620200D4
:10608000EF62020081720200EF620200EF62020022
:1060900021730200EF620200D9BF0200EF6202002A
:1060A000EF620200EF620200EF620200EF620200A4
:1060B000EF620200EF62020000000000000000003A
:1060C000EF620200EF620200EF620200EF62020084
:1060D000EF620200EF620200EF62020000000000C7
:1060E00000000000000000000000000000000000B0
:1060F00000000000000000000000000000000000A0
:10610000000000000000000000000000000000008F
:10611000000000000000000000000000000000007F
:10612000000000000000000000000000000000006F
:10613000000000000000000000000000000000005F
:10614000000000000000000000000000000000004F
:10615000000000000000000000000000000000003F
:10616000000000000000000000000000000000002F
:10617000000000000000000000000000000000001F
:10618000000000000000000000000000000000000F
:1061900000000000000000000000000000000000FF
:1061A00000000000000000000000000000000000EF
:1061B00000000000000000000000000000000000DF
:1061C00000000000000000000000000000000000CF
:1061D00000000000000000000000000000000000BF
:1061E00000000000000000000000000000000000AF
:1061F000000000000000000000000000000000009F
:1062000010B5054C237833B9044B13B10448AFF3F0
:1062100000800123237010BD4022002000000000F8
:10622000C4D1020008B5034B1BB103490348AFF3C7
:10623000008008BD0000000044220020C4D10200FC
:10624000154B002B08BF134B9D46A3F5803A002148
:106250008B460F461348144A121A06F0A7F80F4B44
:10626000002B00D098470E4B002B00D09847002001
:10627000002104000D000D48002802D00C48AFF3A7
:10628000008006F035F82000290003F023FF06F017
:106290001BF800BF00000800000001200000000003
:1062A0000000000040220020742F002000000000A9
:1062B000000000000649074A074B9B1A03DD043B18
:1062C000C858D050FBDC02F0E9F8FFF7B9FF000036
:1062D000C4D20200701D002040220020FEE7FEE72D
:1062E000FEE7FEE7FEE7FEE7FEE7FEE7FEE7FEE786
:1062F000F0B595B0002415460F4608461E4601F03D
:10630000A5FF384623460895082205A91A9D099637
:106310000D950A948DF82C400C9401F0F1FF9DF836
:1063200014308DF81140DDE9061003F00302012A54
:10633000CDE9020127D0022A04D0384601F08AFFB5
:1063400015B0F0BDBDF81650C3F3C2038DF8103080
:10635000AD090826082D2C4628BF082433462246BE
:106360000EA9384601F0CCFF2D1B214608AB02AA2E
:106370000EA8264400F03EFD002DEBD1384601F07A
:1063800069FF15B0F0BDBDF81460059DC6F3831616
:10639000C3F3C204B2000EA9384608238DF810409A
:1063A000C5F3952501F0ACFF08AB324628460EA98F
:1063B000009302AB00F078FC384601F04BFF15B0BB
:1063C000F0BD00BF014B01221A707047A0220020CF
:1063D000704700BF00B583B0044B0093044A4023CC
:1063E000FFF786FF03B05DF804FB00BFF563020012
:1063F0006022002038B50E480E4D03780E4CEB5C41
:106400000025D2B2257053B90C3003F053FA58B9B5
:106410000A4B1B7813B12378002BFCD038BD043015
:1064200003F08CFC0028F3D000F0E2FEF0E700BFA0
:10643000701D0020702F0020A02200205C22002070
:1064400070B51348134A0378D35C88B0DBB90C30BD
:1064500003F0CAF9104D0FCD6C460FC495E80F003C
:1064600008AD062645F8206D84E80F002946002275
:10647000074802F0F3FA08B100F0BAFE074B002219
:106480001A7008B070BD043003F0F0FBE2E700BF03
:10649000701D0020702F002018C402005C22002014
:1064A00070B50D4D0FCD88B06C460FC495E80F0048
:1064B00008AD062645F8206D84E80F002946074AF6
:1064C000074802F0CBFA08B100F092FE054B01221A
:1064D0001A7008B070BD00BF18C40200C563020086
:1064E000701D00205C22002008B5FFF7D9FF0421B1
:1064F000034800F08FFB034B01225A7108BD00BF17
:10650000ACD20200841D0020F0B5324C85B004F5F9
:10651000836001F05BFA04F2144001F057FAD4E909
:10652000013703EA0702D01C04EB800114F82000B5
:1065300010F0040044D003F1020C0E7806F00306BC
:10654000012E654635D0022E02F1030621D004EB60
:1065500086010028F1D104EB82020133D268019256
:106560003B4004EB830302F00302012ADE6829D0DA
:10657000022A23D1BDF806309B090333360C05EB04
:106580009305154801F02EFA00B16560304605B05C
:10659000F0BD4B880CEB931307EA0302D11C03F107
:1065A000020C14F82100654604EB810100F00400A0
:1065B000CFE70B88C3F383136344EDE70026E0E7DE
:1065C0009D1CC8E7BDF80430C3F38313360C1D448B
:1065D000D7E700BF74230020882700200B4B0C480E
:1065E00010B50022FF21C3F818249960C3E90022E6
:1065F000C3F8142483F8202401F0E4FD044610B904
:10660000044801F0F1FE204610BD00BF74230020B5
:1066100080D2020058C4020021B9124B03EBC00023
:1066200000687047104A0F49521AD20815D030B48A
:106630000E4D2B88834212D0002303E035F823400F
:10664000844205D001339A42F8D1002030BC704713
:1066500001EBC300006830BC704710467047084625
:10666000F8E700BF08D2020080D202003C220020DE
:10667000094B013903EBC00003290BD8DFE801F017
:10668000020806040220704740797047007970477D
:10669000042070470020704708D202002DE9F04323
:1066A00083B002AB002203F8012DDFF8DC9007462F
:1066B00018468846D9F8084001F0F2F8D9E90132C5
:1066C000D9F80060134401339B1B012B58D809F201
:1066D0001C450121284601F061F9FFF715FF01462D
:1066E000284601F05BF9D9E90132D9F800101344CA
:1066F00001335B1A012BECD90A4003320523023126
:106700009DF8070049F82230C9F8001001F0EEF8B2
:1067100000211C4801F020F980F31000731C234075
:1067200009EB830300043440033440EA1740D86087
:1067300019F8243067F3C50309F8243039F82430F8
:106740006FF3891329F8243059F8242068F39F2225
:106750001346012161F301036FF3820349F82420FA
:1067600009F8243099F820341BB906E000F00EF83F
:1067700018B1D9E900329A42F8D103B0BDE8F083EC
:106780003146B9E790270020742300202DE9F04717
:10679000934C002384B0C4F81834BFF34F8FD4E96E
:1067A000015605EA0602D31C04EB830114F82330DA
:1067B000580719D527680B7803F00303012B43D042
:1067C000022B03D14B88023505EB931506EA05022F
:1067D000D4F81804D31C04EB830128B9AF4239D98B
:1067E00014F823305B07E6D404EB82026B1CD268FA
:1067F0000192334004EB830302F00302DB6802934F
:10680000022A05F1020700F08D80012A26D0D4F873
:1068100010543DB12B6828469B689847EB681D686B
:10682000002DF7D16F48704B7049C01AC0080004A2
:1068300040F00200FFF732FFD4E90030C01A18BF61
:10684000012004B0BDE8F0870B880235C3F3831341
:106850001D44BBE7676004B0BDE8F087BDF80420C5
:106860006348C2F38313062B28BF062363F3891200
:1068700002339900ADF8042001F0A6FC8046002800
:10688000C5D001F0E3FC0023082201A9404601F035
:1068900003FDBDF8043013F4707F00F09F806FF0AB
:1068A000010AAAEB050A082506EA070103312B466F
:1068B000042204EB8101404601F0EEFCBDF80430F7
:1068C00007F101090AEB0902C3F3831393424F4610
:1068D00005F10405E8D8D4F81834002B68D1D4F8B1
:1068E000105465B1EB685A7928464146002A5BD0BE
:1068F0002B681B689847EB681D68002DF2D1404655
:1069000001F0A8FC04A8002300F80D3D00F0C8FF2A
:10691000D4F818340BB9C4F804909DF8030000F0C3
:10692000E5FF89E7BDF8063031484FEA93194D4637
:10693000502D28BF502565F38F1305F10801ADF8E0
:10694000063001F041FC804600283FF460AF26EAA3
:10695000070A0AF1010A01F079FC4FEA8A0A0023CA
:10696000082201A9404601F097FC55452BD9EBB20E
:10697000BAF1000F20D006EA0701A3EB0A030331A6
:1069800004EB8101DDB252460823404601F084FC4D
:106990002A460AF108031749404601F07DFC09F137
:1069A000030907EB990996E71D68002D9AD1A6E720
:1069B000404601F04FFC3FE72A4608230D49404678
:1069C00001F06AFCEBE706EA0701033104EB810101
:1069D0002A460823404601F05FFCE0E7B9467AE723
:1069E0007423002030D2020008D2020064C40200E6
:1069F00080D20200802300202DE9F04782B002AB54
:106A0000002403F8014DDFF8ECA007461846914634
:106A10008846DAF8084000F043FFDAE90132DAF894
:106A20000060134401339B1B022B5ED80AF21C4505
:106A30000121284600F0B2FFFFF766FD0146284617
:106A400000F0ACFFDAE90132DAF800101344013348
:106A50005B1A022BECD90A400332033145239DF81F
:106A600007004AF82230CAF8001000F03FFFB31CBC
:106A700023400AEB830300211D48C3F80C9000F06B
:106A80006BFF80F31000731C23400AEB83030004A8
:106A90003440033440EA1740D8601AF8243067F3D2
:106AA000C5030AF824303AF82430012161F3891330
:106AB0002AF824305AF8242068F39F22134661F301
:106AC00001036FF382034AF824200AF824309AF86D
:106AD00020341BB906E0FFF759FE18B1DAE900329D
:106AE0009A42F8D102B0BDE8F0873146B3E700BF63
:106AF00090270020742300202DE9F04F83B002ADD1
:106B0000002405F8014D3B4C8046284693469A46A2
:106B10008946A56800F0C4FED4E901322768134411
:106B20000133DB1B032B63D804F21C4601213046E2
:106B300000F034FFFFF7E8FC0146304600F02EFF7E
:106B4000D4E901322168134401335B1A032BEDD9D8
:106B50000A400332852344F8223004319DF80700AF
:106B6000216000F0C3FEBA1CFB1C2A402B4004EB42
:106B7000820204EB830300211F48C2F80CB0C3F863
:106B80000CA000F0E9FE80F310007B1C2B4004EB0E
:106B9000830300043D40033540EA1840D86014F8F0
:106BA000253068F3C50304F8253034F82530022277
:106BB00062F3891324F8253054F8252069F39F22C5
:106BC0001346012161F301036FF3820344F825208A
:106BD00004F8253094F820341BB906E0FFF7D6FD01
:106BE00018B1D4E900329A42F8D103B0BDE8F08F71
:106BF0003946ADE77423002090270020044BD3E9E9
:106C000000239A4201D0FFF7C1BD0020704700BFAA
:106C10007423002030B4184DD5F8104400215CB125
:106C2000E3681A798A4204D116E0DB681A798A424D
:106C300012D01B68002BF8D1C3681971D5F8103435
:106C400093B1DA68C36812681A60D5F81034DB684B
:106C5000186030BC0846704701310A29DFD14FF077
:106C6000FF31084630BC7047C5F81004C268136095
:106C7000084630BC704700BF7423002038B5094B6C
:106C8000D3F81044012583F820544CB1E3685D71BA
:106C9000236820465B689847E3681C68002CF5D1A0
:106CA00038BD00BF742300202DE9F04784B01D4695
:106CB0000C9C002394F80C802373EB8881460E46CD
:106CC0001746002B40D1297A05290ED06B7AA88867
:106CD00073BB404B53F821A00021FFF79DFC5246A7
:106CE00003463D49204600F0F5FE062F09D8DFE8AF
:106CF00007F0046A4249525D33004946204600F0DD
:106D0000E9FE2B7A052B05D06B7A5BB93349204617
:106D100000F0E0FE204600F0D1FE84F80C8004B0C4
:106D2000BDE8F0872E4A2F49204600F0D3FEEDE75C
:106D3000FFF79EFC2C4B2B4953F82020204600F0F7
:106D4000C9FE297AA888C4E7254A00922749284A1B
:106D5000204600F0BFFEB6E7D6E90410D6E90023CE
:106D60000390D6E902070291CDE900074946204683
:106D700000F0B0FEC5E74946D6E90023204600F002
:106D8000A9FEBEE7B168D6E9002320460091494636
:106D900000F0A0FEB5E7D6E90201D6E90023019193
:106DA00000904946204600F095FEAAE7D6E9037117
:106DB000B068D6E900230291CDE900074946204694
:106DC00000F088FE9DE732684946204600F082FECA
:106DD00097E700BFF0C40200E0C40200ECC4020068
:106DE000D4C40200DCC402007CC40200BCC40200A3
:106DF000B4C40200082900D970472DE9F04F1D46A0
:106E0000904600232A7B2B7385B0B8F80630039296
:106E100007460E46002B77D198F80810052911D0A7
:106E200098F80930B8F80400002B5FD13A4B53F8BA
:106E300021400021FFF7F0FB224603463749284650
:106E400000F048FEDFF8F4B0DFF8F490002405E02D
:106E50003A5D013400F03EFE082C09D0A6424946B6
:106E60002846F5D85946013400F034FE082CF5D1F7
:106E70002B49DFF8D090DFF8D0B0284600F02AFE8A
:106E8000002411E017F804A005F056FA50445946C2
:106E9000437813F0970F14BF52462E222846013430
:106EA00000F018FE082C08D0A64249462846E9D82A
:106EB000013400F00FFE082CF6D198F80830052BAD
:106EC00002D098F809305BB91649284600F002FE56
:106ED000284600F0F3FD039B2B7305B0BDE8F08F4F
:106EE000114A1249284600F0F5FDEDE7FFF7C0FB17
:106EF0000F4B0E4953F82020284600F0EBFD98F880
:106F00000810B8F8040091E7074A009209490A4AB4
:106F1000284600F0DFFD7FE7F0C40200E0C4020075
:106F2000ACC40200ECC40200D4C40200DCC4020001
:106F30007CC40200BCC40200B4C40200A8C40200A5
:106F4000A0C40200E8C40200B0C40200434B197898
:106F5000002900F081802DE9F04F002487B0012541
:106F60008E4603E00134E4B2744560D23C4B27B254
:106F70001E6816F837C0ACF1200205FA02F9394A4A
:106F8000CCF12003D2E9000125FA03F349EA030911
:106F900005FA0CF800EA080201EA0903134306EBBC
:106FA000C70BDFD021EA09032E4920EA0802604618
:106FB000C1E9002301F082FF16F837C0ACF12002CE
:106FC00005FA02F201920199CCF12003C6B225FA2A
:106FD00003F3ACF12002194306FA02F30393224BA8
:106FE0000191D3E90023CDE9042305FA0CF30093C2
:106FF000CCF12001039B26FA01F10B43039306FA1F
:107000000CF30293DDE90467DDE9002316401F401D
:1070100032463B46DDE90267BB4208BFB24209D0B7
:107020000E4B013493F800E0E4B274459ED307B0F0
:10703000BDE8F08F9BF80110DBF80430A1F10101ED
:10704000B1FA81F14909091AB1FA81F14909002B14
:10705000E6D060469847E3E7704700BF302800203D
:107060006828002060280020582800202DE9F84FCB
:107070000646244800F0DAFBD8B9234F0123A6F1D5
:10708000200103FA01FBC6F12002D7E9000123FA2F
:1070900002F24BEA020B03FA06FA00EA0A0201EADC
:1070A0000B03134307D020EA0A0421EA0B05C7E9C2
:1070B0000045BDE8F88F304601F000FF134ED6E9D9
:1070C0000089C8B148EA0A0349EA0B049846A14678
:1070D000D7E900234BEA03050D4B0A4819684AEA31
:1070E00002044B464246C6E90023C7E90045002298
:1070F000BDE8F84F00F044BB28EA0A0829EA0B096A
:10710000E6E700BF3828002060280020582800202B
:1071100034280020042A36D92DE9F04182B00E46E9
:107120000546144601F080FD002836D01D491E4A50
:107130001E4B0D601E481F491C6016700023002264
:10714000741EC0E90023C1E90023E4B2EEB105EBEF
:10715000C404194F083D4FF00008032601E0AC427B
:1071600013D0A37820788DF806803A4601A98DF8CF
:1071700004608DF8053001F061FD083C0028EED078
:1071800002B0BDE8F081072070470C4A0C4800218E
:1071900000F0E4FA02B0BDE8F08101F0FFFC002845
:1071A000C4D0EDE7682800203028002034280020D3
:1071B00058280020602800206D7002004D6F0200EA
:1071C0005CC5020070B5084D2B785BB1074E0024FA
:1071D0003368012113F8340001F00EFE2B780134DE
:1071E000A342F5D8002070BD302800206828002078
:1071F00000B585B000230390194601AA44F20100AE
:10720000CDE9013300F004F805B05DF804FB00BFE0
:1072100010B572B6FFF732FDFFF7F0FC0028FBD186
:10722000104B114C1149E41AE408240444F0010005
:10723000FFF734FA0E4B1B68DB0700D500BE44F0A5
:1072400002000C49FFF72AFABFF34F8F0A490B4B94
:10725000CA6802F4E0621343CB60BFF34F8F00BFF4
:10726000FDE700BF08D2020030D2020060C5020074
:10727000F0ED00E06CC5020000ED00E00400FA054E
:10728000F8B5204A204B0024C2F84041C2F84441DE
:10729000C2F84841C2F84C41C2F80041C2F804416A
:1072A0001B6833B31949D2F804550A68AD1A1A6835
:1072B00025F07F45AA4227460DD8197CDE69AD1A14
:1072C000144419B11F74D3E9052090471EB1334609
:1072D0001A68AA42F1D90E490E4A0B7812789A42DE
:1072E00008D00D490D4A41F823404FF48013C2F8ED
:1072F0000031F8BD531CDBB2022B08BF00230B701A
:10730000EFE700BF001001408C29002088290020F1
:1073100085290020842900207C29002000E100E04C
:107320002DE9F04F8C4A8D4913780978DFF85082A7
:10733000994285B0D8F800A000F07B810133DBB220
:10734000022B08BF002386481370864A076852F84C
:1073500023107B1823F07F43002403605346264606
:107360002046A446ABB11A688A4200F26581DC6807
:10737000C3F800C0891A1044DA6934B13D1825F009
:107380007F45C3E90154DE611E4613460124002BEC
:10739000E9D1002C40F07C8101230093724B734FA4
:1073A000DFF8E09143F00103019355464FF0000BE5
:1073B00046B3D6E901C13446F669694B6C481A6890
:1073C000ACEB020323F07F43834248D80B44236095
:1073D00000220121C4E90122E2612174002D5DD067
:1073E0002A689A424DD2284603E00A689A424FD250
:1073F0000846C1699B1A0029F7D12360E161C46185
:10740000002ED6D178783978884264D00B4603EBC9
:1074100043034C1CBA7807EBC303E1B28A421A79E2
:10742000397004BF00213970022A9C6844D0032AB5
:1074300038D0012AE8D1227C002AE5D1D3F80CC04B
:10744000C4F804C01969A1605869E06099F80000A7
:107450009B69A3610028B0D062609446ADE7A2EBBF
:107460000C0222F07F428A4202D28B1A2360AFE7DD
:1074700000230122C4E90033A360E36122746DB1EB
:107480002A68C8F80040D31A2B60E56125468FE7CB
:10749000D21A0A602360E161C461B1E7C8F8004014
:1074A000254685E7002DAFD000232B74ED69002D14
:1074B000FBD1C8F80050A5E74DB1AC422B4603D133
:1074C000E4E094422FD01346DA69002AF9D1002370
:1074D000237488429AD1BBF1000F01D1554553D096
:1074E000002D56D1234E244A1F4C4FF480334FF4C5
:1074F00000310127C2F880103C43C6F848334FF4EE
:107500003C60C6F808337760A047154BB7604FF46E
:107510003C601D60A047194B1D70002389F80030A6
:1075200005B0BDE8F08FA34200F09180E0692168CA
:10753000D861002800F086802A4603680B44036067
:10754000AA424FF000033978787823741CBF15469F
:107550004FF0010BBDE700BF8429002085290020E2
:10756000882900207C29002080C502006C2800208A
:10757000FEFF7F000010014000E100E079290020BB
:107580008C29002078290020009B002BC5D0002DDD
:10759000A8D0434B434A1C68D2F80465424FD5F843
:1075A00000A03978331B23F07F43DD1CB9B93F4974
:1075B0003F4B4FF48030C2F844034FF00108C2F84B
:1075C00004034FF40030C1F8800143F00103086068
:1075D000C2F800804FF43C60984787F80080AA45C5
:1075E0002CBF04EB0A0363192E4923F07F43C1F833
:1075F0004035D1F80425921B9B1B22F07F4223F0DB
:107600007F4303329A4288D9294BD1F80425C1F827
:10761000402543F001034FF43C609847234B4FF45F
:107620000032C3F80021002389F8003005B0BDE81E
:10763000F08F00260096B1E674BB521A1A6001233F
:107640000093ABE6002339787878237441E7194634
:10765000EA69C8F8002092B9CDE90231114BDFF890
:1076600040C001209860019B89F80000CCF8002000
:107670004FF43C609847DDE90231D8F80020C86932
:107680000968D86100287FF458AF59E72946DFE739
:10769000C8F800309A467FE6C8F800309A46CCE732
:1076A00088290020001001407929002000E100E035
:1076B00080C502002DE9F8431F4D204E204FDFF812
:1076C00098804FF480334FF400324FF001090024CA
:1076D000C6F8802047EA0907C5F848334FF43C60F4
:1076E000C5F80833C5F80490B847C5F808904FF4BA
:1076F0003C60C8F80040B847124A134B13491C605D
:107700001470134B134A0C700B2114701C80997069
:107710004FF48012C023C6F8802186F814333260FB
:10772000C5F8084586F81133D5F80435C8F8003097
:107730002046BDE8F88300BF0010014000E100E0F2
:1077400080C50200792900208C290020842900208E
:107750006C2800208529002088290020074B9B7871
:107760004BB132B128B10368187C20B959745A6101
:107770007047072070470820704700BF6C28002022
:107780002DE9F047264CA37882B0002B3CD000288E
:107790003AD004293CD94369002B35D0814602A850
:1077A00099F811300026012B00F8016D0CBF8846B6
:1077B000B04617468A4600F073F86378A1782278BD
:1077C0009DF807005D1CEDB2A94208BF3546AA42EC
:1077D00022D003EB430304EBC3030121114AC3F896
:1077E00008901971D2F804256570C3E9032AC3E92A
:1077F000058700F07BF80C4B4FF480123046C3F83D
:10780000002102B0BDE8F087082002B0BDE8F08793
:10781000072002B0BDE8F08700F068F80420F0E728
:107820006C2800200010014000E100E0F0B51A4C87
:10783000A37883B043B338B343692BB3064602A899
:10784000002500F8015D357400F02AF86278A77809
:1078500021789DF80700531CDBB29F4208BF2B46DE
:10786000994214D002EB420204EBC202022196605C
:107870001171637000F03AF8084B4FF480122846FB
:10788000C3F8002103B0F0BD082003B0F0BD00F044
:107890002DF80420F9E700BF6C28002000E100E08B
:1078A00070B4EFF3108472B60D4B9A68AAB90D4903
:1078B0000D4E01259D60D1F8805035401D60C1F806
:1078C0008060D1F884505D604FF0FF33C1F88430A0
:1078D000027004B962B670BC704701230370F8E708
:1078E000642F002000E100E0FC06FFBD094B9A6810
:1078F0007AB170B910B4EFF3108172B6064A1C6801
:1079000014605C685460986001B962B65DF8044B1D
:1079100070477047642F002000E100E001F01F0273
:107920004B09012100EB8300914000F01FB800BF1C
:1079300001F01F0201234909934000EB8100D94364
:1079400000F020B84B0901F01F0150F82300C84097
:1079500000F00100704700BF50E8002F0B4640E8E0
:10796000003C9CF0000FF7D11046704750E8003FF4
:1079700043EA010240E8002C9CF0000FF6D11046CB
:10798000704700BF50E8003F03EA010240E8002CC6
:107990009CF0000FF6D11046704700BF50E8003F42
:1079A00003EB010240E8002C9CF0000FF6D11046DA
:1079B000704700BF50E8003FA3EB010240E8002CF5
:1079C0009CF0000FF6D11046704700BF012350E82D
:1079D000002F42EA030C40E800C191F0000FF6D1FD
:1079E00060467047002350E800CF0CEA030240E8ED
:1079F000002191F0000FF6D160467047B8B130B465
:107A0000D0E90112521A0468D2B2531E2160DBB2CF
:107A100042B101680A685C1E551C0D601370E3B228
:107A2000FF2BF6D103680020187130BC70470E2080
:107A3000704700BFF0B583B002AB002503F8015DCD
:107A400004461846FFF72CFFD4E900311A688A4231
:107A500010D9511E19602168A3680F6812F8015CE3
:107A60000A79268AE068DB1BDBB29A4206FB050531
:107A700038BF0B719DF80700FFF738FF284603B0A9
:107A8000F0BD00BF30B583B002AB002203F8012D7A
:107A9000054618460C46FFF703FF2A681368591C71
:107AA0001160E9682A8A641AB4FBF2F41C709DF82C
:107AB0000700FFF71BFF03B030BD00BF826842B173
:107AC00010B5044643690168006998470023A36024
:107AD00010BD70470EB400B582B0039929B102AA57
:107AE00004AB42F8043D00F08BF802B05DF804EB03
:107AF00003B070472DE9F84F884690451746054674
:107B00001E46DDE90AB175D343464FF00109B3FBC8
:107B1000F7F39F4209F10109F9D9B14538BFB146E0
:107B200011F0010AAA6802D1BBF1000F43D1012470
:107B300002E0013E07FB04F4012EFAD8B8FBF4F191
:107B40008F42F7D92D4E05E0B4FBF7F4A4B1B8FB92
:107B5000F4F1AA68705C531CAB602B689854D5E9AB
:107B600001329A4204FB1188EED32846FFF7A6FFA4
:107B7000B4FBF7F4002CEAD1BAF1000F15D0BBF139
:107B8000000F12D0CB4510D92024AB682A68591CAD
:107B9000A960D454D5E901329A420BF1FF3B06D2D9
:107BA000BBF1000F01D0CB45EFD1BDE8F88F2846DF
:107BB000FFF784FFF4E78B0717D42024CB45B6D911
:107BC0002B68511CA9609C54D5E901329A420BF1F3
:107BD000FF3B05D2BBF1000FA9D0CB45F0D1A6E702
:107BE0002846FFF76BFFAA68F4E7002E0CBF30248D
:107BF0002024E3E74FF001098FE700BF88C50200AA
:107C0000002900F0F4812DE9F04F054685B0924639
:107C10000C460B78DFF8A8B501E0237893B1013466
:107C200083B1252B15D0AA682968501CA8608B54F5
:107C3000D5E901329A42F0D32846FFF73FFF237877
:107C4000002BECD12B7B002B40F0148105B0BDE85C
:107C5000F08F2146002711F8012B2D2A00F0E1803A
:107C6000302A00F0E2802B2A00F0D2802A2A00F08D
:107C7000E080A2F13006F3B2092B03D9B8E1A3F1F9
:107C800030060146084606EB860310F8012BA2F1E8
:107C90003004092C02EB4303F1D92E2A00F0D580E1
:107CA0000023013101E011F8012B02F0FB006828EC
:107CB0000C46F8D0253A532AAFD801A151F822F04A
:107CC000817E02001B7C02001B7C02001B7C0200E8
:107CD0001B7C02001B7C02001B7C02001B7C020040
:107CE0001B7C02001B7C02001B7C02001B7C020030
:107CF0001B7C02001B7C02001B7C02001B7C020020
:107D00001B7C02001B7C02001B7C02001B7C02000F
:107D10001B7C02001B7C02001B7C02001B7C0200FF
:107D20001B7C02001B7C02001B7C02001B7C0200EF
:107D30001B7C02001B7C02001B7C02001B7C0200DF
:107D40001B7C02001B7C02001B7C02001B7C0200CF
:107D50001B7C02001B7C02001B7C02001B7C0200BF
:107D60001B7C02001B7C02001B7C02001B7C0200AF
:107D70001B7C02001B7C02001B7C02001B7C02009F
:107D80001B7C02001B7C02001B7C02009B7E02000D
:107D90001B7C02001B7C02001B7C02001B7C02007F
:107DA0001B7C02001B7C02001B7C02001B7C02006F
:107DB0001B7C02001B7C0200B57E0200D77E020005
:107DC0001B7C02001B7C02001B7C02001B7C02004F
:107DD000D77E02001B7C02001B7C02001B7C020081
:107DE0001B7C02001B7C02001B7C0200277F020020
:107DF0001B7C02001B7C02009B7F02001B7C02009C
:107E0000D57F02001B7C02001B7C02009B7E0200CF
:107E100047F004070C46214611F8012B2D2A7FF468
:107E20001FAF47F001070C46F5E747F002070C4685
:107E3000F1E7DAF800301A1DCAF8002062781E68EF
:107E40002E2A04F102007FF42BAF4A78A2F130030E
:107E5000092B00F25081002303EB830302EB430361
:107E600010F8012FA2F130010929A3F13003F3D951
:107E7000014616E7284605B0BDE8F04FFFF71EBEE5
:107E8000AB682A68591CA9604FF02501D154D5E987
:107E900001329A42FFF4C1AECEE6DAF80020111D9D
:107EA000CAF8001011682846CDE900671022FFF7D4
:107EB00021FEB2E6DAF80020131DCAF80030AB68E4
:107EC00029681278581CA860CA54D5E901329A4230
:107ED000FFF4A3AEB0E6DAF80020111DCAF80010D6
:107EE000D2F8008088EAE872A2EBE872092A4FF023
:107EF000010107DDB148A0FB0202D208092A01F105
:107F00000101F7DC994238BF1946894607F00202A1
:107F1000002E71D12AB1002B00F04B81FA0700F13D
:107F20008D8000268AE0DAF80020131DCAF80030A0
:107F3000AB6829681768581C3022A860CA54D5E974
:107F40000123934280F02C812A68581C7821A86074
:107F5000D154D5E90123934280F01D810F2F03D91D
:107F60003A4612090F2AFCD84FF0805603E0360932
:107F70003FF453AEAB682968B7FBF6F2581CA86013
:107F80001BF80200C854D5E90131994206FB12776B
:107F9000EDD32846FFF792FDE9E7DAF800301A1D25
:107FA000CAF80020D3F80080FB077ED54746A7EB30
:107FB000080917F8013B002B5DD0AA682968501CFE
:107FC000A8608B54D5E901329A42F0D32846FFF7D6
:107FD00075FDECE7DAF80020111DCAF800101168F1
:107FE0002846CDE900670A22FFF784FD15E67047B1
:107FF00008460026214650E6B8F1000F01DB78075D
:1080000000D5013E02B1CBB1F90717D4002E88D0BC
:10801000B14513D220220393A9682B68481CA8609D
:108020005A54D5E90131994206F1FF365DD2002E4E
:1080300000F0C180B145EFD1039B4E46B8F1000F6F
:10804000C0F296807A070AD5A9684A1CAA602A68F5
:108050002B205054D5E90121914280F0968007F001
:108060000302022A5FD0CDE9006741460A22284672
:10807000FFF740FDD1E54E457FF6CFAD202705E067
:108080004E453FF4CAAD002E3FF4C7ADAB682A6839
:10809000591CA960D754D5E901329A4206F1FF363E
:1080A000EED32846FFF70AFDEAE7B8F1000F24D027
:1080B000404604F08DF90746BE4220D9FEB14FF08C
:1080C000200902E0BE421AD0CEB1AB682A68591C22
:1080D000A96002F80390D5E901329A4206F1FF3611
:1080E000F0D32846FFF7EAFCECE728460292FFF7B8
:1080F000E5FC029A9BE70146D2E54746DCE708F13A
:10810000FF3818F8013F002B3FF487ADAA682968B3
:10811000501CA8608B54D5E901329A42F1D328460D
:10812000FFF7CCFCEDE7002B9DD1002E3FD0B145F1
:1081300099D2029323464C46B1461E46AA682B6844
:10814000501C4FF03001A8609954D5E901329A4291
:1081500009F1FF3908D2B9F1000F26D04C45EDD115
:108160003446029B4E467EE72846FFF7A7FCF2E71F
:10817000A9684A1CAA602A682D205054D5E901211B
:108180009142C8F10008FFF46AAF28460293FFF756
:1081900095FC029B63E72846FFF790FCAB68DDE6A1
:1081A0002846FFF78BFCAB68CEE6029B34460026E0
:1081B00059E71E4642E7039BB3E600BFCDCCCCCCCB
:1081C00088C50200FFF71ABC2DE9F041058ACE1CD4
:1081D000043D2E440746B6FBF5F6FFF72BFC78B3BB
:1081E000F6B24FF48073013E0446C5800760838079
:1081F00027D08046002509E06379AE4203F10103F0
:108200006371C8F80000076080461AD03846FFF74F
:1082100011FC01350028EFD16679721E14D0234677
:10822000013082421B68FBD11F684EB100252368D4
:108230002146013538461C46FFF724FCAE42F6D1F4
:1082400000242046BDE8F0812768EFE704300121D3
:10825000FFF7A4BBF8B5012104460430FFF7AAFBE1
:10826000C0B200B1F8BD6679721E12D0234601304B
:1082700082421B68FBD11F68002EF3D000252368C3
:108280002146013538461C46FFF7FCFBAE42F6D1CD
:10829000F8BD2768F2E700BF2DE9F843C7884679A3
:1082A00007FB06F6043E02EB030C0446664503F1A9
:1082B000040015468846B0FBF7F238BFF51A07FBF5
:1082C000120012B1013A2468FCD13E1AAE4228BF16
:1082D0002E469DB14FF000090430AD1B20443246BC
:1082E00008EB090104F057F8AF42B14424683E4658
:1082F0004FF0000028BF2E46002DEDD1BDE8F883D9
:108300002DE9F843C7884679154607FB06F6043E73
:1083100005EB030C1A1D664504468846B2FBF7F0D0
:1083200038BFF51A07FB102110B101382468FCD1C1
:108330007E1AAE4228BF2E469DB14FF0000904318F
:108340002144AD1B324608EB090004F024F8AF428B
:10835000B14424683E464FF0000128BF2E46002D50
:10836000EDD1BDE8F88300BF41DF7047064A074BF7
:1083700010B5002414701C60BFF35F8F04490548DA
:1083800000F040F8204610BD982900209C290020CC
:1083900098C502009029002000B583B002A80023F0
:1083A00000F8013DFFF77CFAF1EE103A23F09F034D
:1083B000E1EE103ABFF35F8F0A4B4022C3F88421ED
:1083C0009DF80700FFF792FA03F000FE28B920BFDE
:1083D00040BF20BF03B05DF804FBFFF7C5FF03B04B
:1083E0005DF804FB00E100E082680023936082688E
:1083F0001361826853618268D360826853608268C7
:108400001360704701600B6843604A68934204BF81
:1084100000234360704700BF436843B1026891681E
:108420000B4443605268934204BF0023436070478B
:1084300030B4184DA5F59472AB1ADB1003EBD3736F
:108440005B1002EBC30152F83330984228BF0C4650
:1084500005D311E052F8333098420CD221468B1AE2
:10846000DB1003EBD3735B108A4202EBC304F1D33E
:10847000094830BC70470D46984204D904F10802FF
:10848000AA42D9D3F4E76068034B002808BF184616
:10849000EFE700BFECC60200B0C5020030B4904B5D
:1084A0001B78062B20D08F4B1B68062B00F0858095
:1084B0008D4AD2F8883043F47003C2F88830BFF395
:1084C0004F8FBFF36F8F4FF01023D3F80022002A95
:1084D000C0F28681D3F80432002BC0F28181834B35
:1084E000834A1A6030BC7047824B1B681D07DAD183
:1084F000814B1B6803F0F002302A00F09E8003F0ED
:10850000E003402B00F099807B4B1B6803F0F003E5
:10851000302B00F0B980784B1B6803F0F002302A52
:1085200056D003F0E003402B52D0734B1B6803F08E
:10853000F003302B00F0B6806F4B1B6803F0F002A5
:10854000302A66D003F0E003402B62D06A4B1B68F0
:1085500003F0F003302B00F0B580674B1B6803F08D
:10856000F003302B79D0644B1B6803F0F003502BE1
:1085700000F0E480604B1B6803F0F002302A37D033
:1085800003F0E003402B33D05B4B1B6803F0F00299
:10859000302A03D003F0E003402B84D14FF0804316
:1085A000D3F80024D20744BF6FF00102C3F80024BF
:1085B0004C4B1B68062B7FF47BAF504B1B68062B84
:1085C0007FF476AF4E4A136843F4806313606FE71D
:1085D0004C4B434A1B6812784B49C3F34233062A7B
:1085E0000B6048D1434B1B6819077FF45CAF9CE7D5
:1085F000464A3B4B12681B78454902F04F02062B56
:108600000A607FF450AF3B4B1B6819077FF44BAFF8
:10861000BAE74FF080430022C3F80C21C3F81021C1
:10862000C3F838252E4B1B78062B7FF43CAF314B1B
:108630001B681B077FF437AF88E7364B284A1B6857
:1086400012783549C3F30423062A0B60EAD1294B7B
:108650001B681C077FF427AF56E7304C204A30498F
:1086600012783048304B0525256001250D60002427
:108670003F2104601960062A7FF415AF1D4B1B686B
:108680001C077FF410AF6EE7154B284A1B7828496A
:108690001160062B7FF407AF164B1B6818077FF499
:1086A00002AF38E723490E4BCA681B7822F080726C
:1086B000062BCA607FF4F7AE0E4B1B681A077FF4D7
:1086C000F2AE39E7064B1C4A1B780321062B1160DA
:1086D0007FF4E9AE074B1B681D077FF4E4AE3CE76F
:1086E000E00F00F03001001000ED00E08C1D0020D4
:1086F0000090D003E40F00F0E80F00F03401001008
:108700003C170040440200103C0500405802001095
:10871000E40E004024030010403501401056004094
:1087200088560040185600401456004074C0074058
:108730000DF0ADBAF0ED00E0A00500404FF0805321
:10874000404AD3F80414C2F82015D3F80814C2F82C
:108750002415D3F80C14C2F82815D3F81014C2F855
:108760002C15D3F81414C2F83015D3F81814C2F825
:108770003415D3F81C14C2F84015D3F82014C2F8ED
:108780004415D3F82414C2F84815D3F82814C2F8B5
:108790004C15D3F82C14C2F85015D3F83014C2F885
:1087A0005415D3F83414C2F86015D3F83814C2F84D
:1087B0006415D3F83C14C2F86815D3F84014224865
:1087C000C2F86C15D3F844140378C2F87015062B60
:1087D0007FF469AE1D4B1B6818077FF464AEC9E6D1
:1087E0001B4B0122C3F80425D3F80024002AFBD038
:1087F0004FF0102315221649C3F80022D1F8003497
:10880000002BFBD04FF010221521114BC2F804129F
:10881000D3F80024002AFBD000220D49C3F8042518
:10882000D1F80034002BFBD0BFF34F8F09490A4B1E
:10883000CA6802F4E0621343CB60BFF34F8F00BFFE
:10884000FDE700BF00C00040E00F00F0E40F00F0C3
:1088500000E0014000ED00E00400FA05044B195C63
:108860004FF0A04201238B40C2F80C35704700BF87
:10887000D8CA0200044B195C4FF0A04201238B4080
:10888000C2F80835704700BFD8CA0200C20730B42A
:108890001AD54FF0A0430322C3F844274FF4003504
:1088A000C3F848274FF48024C3F84C274FF4002125
:1088B000C3F850274FF48012C3F80855C3F8084591
:1088C000C3F80815C3F8082583070AD54FF0A0435D
:1088D0000C22C3F83427C3F83827C3F83C27C3F861
:1088E000402730BC704700BF10B570B101280BD1D4
:1088F0000D4C2369A0703BB1D3E900230120226114
:1089000098472369002BF7D110BD074CA3680122BB
:108910006270002BF8D0D3E900230020A2609847B2
:10892000A368002BF7D1EFE7A029002070B910B59C
:10893000074CA368012262703BB1D3E900230020F9
:10894000A2609847A368002BF7D110BD704700BF05
:10895000A029002030B5012883B01CD015D30328EE
:1089600011D100F0C9F802A800231F4C00F8013D06
:10897000FEF796FFE368013BE360E56865B39DF8A9
:108980000700FEF7B3FF03B030BD184B0122C3F858
:10899000802003B030BD02A80023134C00F8013D35
:1089A000FEF77EFF237853B1E3689DF8070001339B
:1089B0000122E360A270FEF799FF03B030BD0C48BE
:1089C0006360A3602361E36000F088F803F0FEFABF
:1089D00030B101232370E7E700F0A2F8A570CEE7DD
:1089E00000F08AF8F5E700BFA029002000E100E0D0
:1089F000E988020030B585B00478094A094B45681A
:108A00008DF80040047AC068039053F82130019536
:108A10008DF8084052F821106846984705B030BDDF
:108A2000B4290020B829002030B585B00478456805
:108A30008DF80040D0E90240064A074B039053F8F6
:108A4000213001958DF8084052F82110684698476A
:108A500005B030BDB4290020B8290020F0B51A4B6C
:108A600006781A4D0C6991F81DE045F82640074636
:108A7000174803F806E040F826200C4694460FCC31
:108A800089B06D460FC594E80F0085E80F00049685
:108A9000BEF1000F0BD0BCF1000F0E4A694607F182
:108AA000040008BF002200F0FFFF09B0F0BDBCF1D8
:108AB000000F094A694607F10C0008BF002200F0C8
:108AC000C1FD09B0F0BD00BF702F0020B429002007
:108AD000B8290020F5890200298A0200054A137985
:108AE0002BB9012110605371184611717047852010
:108AF000704700BFBC290020084B1A68D20706D473
:108B00000122C02183F80013C3F880211A604FF0BE
:108B100080430122C3F81825704700BF00E100E040
:108B2000044B01221A604FF08042D2F81834DB0364
:108B3000FBD470470C00004010B5154B1A6882B08A
:108B40007AB10021134A19601B68507900934FF0E5
:108B500080410123009CC1F8083310B9116853719A
:108B600088470D4B1A6882B100221A601B68019376
:108B70004FF080420221074B0198C2F808131B688E
:108B8000012002B0BDE81040184702B010BD00BF80
:108B900000010040BC2900200401004070B51E4CBB
:108BA00094F8585082B0A5BB4FF0FF3329460422F9
:108BB00004F15400C4E90033C4E90233C4E90433C6
:108BC000C4E90633C4E90833C4E90A33C4E90C3301
:108BD000C4E90E33C4E91033C4E91233236503F04A
:108BE000E5FB0E4B0E4A0F4E1560C02183F80613AD
:108BF0004021C3F8801119601368019301994FF067
:108C000000430122284684F85820C6F8043302B0F5
:108C100070BD082002B070BDC429002000E100E052
:108C20007C61004000600040034B93F85800003026
:108C300018BF0120704700BFC4290020F0B56C4B5D
:108C40001C1894F93050002D68DA8E78C6F340066F
:108C50009646002E5CD11D6A013500F0B5800924CE
:108C60000C2553F8247001375BD004F1010C53F844
:108C70002C70013700F0B380A71CAF4246D253F8E6
:108C80002720013200F0AD8004F1030CAC453DD249
:108C900053F82C70013700F0A28004F1040CAC45AD
:108CA00034D253F82C70013700F0998004F1050C90
:108CB000AC452BD253F82C70013700F0908004F1B2
:108CC000060CAC4522D253F82C70013700F0878097
:108CD00004F1070CAC4519D253F82C7001377ED043
:108CE00004F1080CAC4511D253F82C70013776D042
:108CF00004F1090CAC4509D253F82C7001376ED041
:108D00000A34AC4202D2DC6A013409D00420F0BD3E
:108D10001D68013567D001240825A2E70820F0BDB1
:108D20000B241F1865B243F824E087F83050002E5A
:108D300051D08A78540714D4D6073BD44C784FF0DE
:108D4000A04600F5E072A40046F82240294EC4086F
:108D500000F0070C375D012202FA0CF23A4332555B
:108D60008A780C7812F0020209D1083D2B44104693
:108D700093F8502042EA841483F85040F0BDAB00D1
:108D800003F1804303F5C0430202D3F8101521F428
:108D9000473121F44071C3F810152404D3F810159D
:108DA00004F4403402F4F85222430A43C3F8102575
:108DB0000020F0BD820002F1A042D2F8004724F06A
:108DC0000204C2F80047C1E7082684F83060C3F8FF
:108DD00020E0354634461C4484F84800A9E7644640
:108DE0009FE73C469DE700251A6084F83050A0E7D5
:108DF000C4290020182A002070B42E4D2E1883B0EC
:108E000096F93030072B1CDD2B4493F848309B0932
:108E1000032B41D0012B14BF4FF440314FF40031EC
:108E2000800000F1A040D0F8002722F44032C0F8C2
:108E30000027D0F800370B43C0F8003703B070BCF0
:108E40007047DAB2072AF9D8980000F1804000F59F
:108E5000C04003F14002D0F81045920092B244F0B5
:108E6000010402F18042C0F8104502F5C042002022
:108E70000190019C10600029E0D096F9302055F84F
:108E80002220002ADAD001220B4902FA03F3C1F8AA
:108E9000043303B070BC70474FF0A043D3F81035D3
:108EA000C34013F0010F0CBF4FF400314FF44031B9
:108EB000B6E700BFC4290020006000404FF0A04387
:108EC000D3F8103523FA00F000F00100704700BF1E
:108ED0002DE9F04186B00023A14A01931668012EC6
:108EE00000F054811E469F4B1A68012A00F05D81F4
:108EF0009D4B1A68012A00F06A819C4B1A68012A6E
:108F000000F077819A4B1A68012A00F08481994B0E
:108F10001A68012A00F09181974B1A68012A00F023
:108F20009E81964B1A68012A0CD0954B1B68012B29
:108F300000F0A58116F0FF0F15D1002E30DB06B032
:108F4000BDE8F0818F4AD2F804231706EDD5002240
:108F50001A601A6804926033049A1B68012B46F069
:108F6000800600F08C81884F00240125A30003F1C6
:108F70008043354203F5C0434FEA45050BD0D3F893
:108F8000100557F82420D3F81015C0F30420C1F3BE
:108F9000014102B190470134082CE7D1002ECEDA0E
:108FA00000224FF0FF33CDE90223774C012602AFB8
:108FB00094F950305D1C2CD0DBB223F0C00006AA1F
:108FC0004FEAD00C02EB0C0E03F007021EF80C1C4B
:108FD00006FA02F211421CD02518990995F9303091
:108FE00054F82330002B00F09881032900F0988179
:108FF0004FEA800C0CF1A04C1EF8145CDCF800E782
:109000001540CEF3014E40F05C81BEF1030F00F03D
:10901000DE81002594F95130581C2DD0DBB223F0AD
:10902000C00006AA4FEAD00802EB080E03F00701C1
:109030001EF80C2C06FA01FC12EA0C0F1CD02218A8
:10904000990992F9303054F82330002B00F05B81FD
:10905000032900F05B81820002F1A0421EF8148C0B
:10906000D2F800E718EA0C0FCEF3014E40F036813B
:10907000BEF1030F00F0A68194F95230591C2DD097
:10908000DBB223F0C00006AA4FEAD00802EB080EBC
:1090900003F007011EF80C2C06FA01FC12EA0C0F73
:1090A0001CD02218990992F9303054F82330002B43
:1090B00000F03C81032900F03C81820002F1A042D3
:1090C0001EF8148CD2F800E718EA0C0FCEF3014E0C
:1090D00040F0E380BEF1030F00F06E8194F953304D
:1090E0005A1C2DD0DBB223F0C00006AA4FEAD008EC
:1090F00002EB080E03F007011EF80C2C06FA01FC27
:1091000012EA0C0F1CD02218990992F9303054F849
:109110002330002B00F0ED80032900F0ED80820069
:1091200002F1A0421EF8148CD2F800E718EA0C0FE6
:10913000CEF3014E40F0BC80BEF1030F00F0008181
:10914000002D3FF4FCAE4FF0A043019AD3F8103548
:1091500093423FF4F4AE029A0193039228E700BFD2
:109160000061004004610040086100400C61004063
:109170001061004014610040186100401C61004013
:109180007C61004000600040C42900209A49D1F869
:10919000041311F0010170D0136013680493049B51
:1091A000964B1A68012A7FF4A3AE934AD2F804239F
:1091B00097077FF59DAE00221A601B680493049BFD
:1091C0008F4B1A68012A46F002067FF496AE8A4A4F
:1091D000D2F8042355077FF590AE00221A601B6871
:1091E0000493049B874B1A68012A46F004067FF417
:1091F00089AE814AD2F8042314077FF583AE00229A
:109200001A601B680493049B7F4B1A68012A46F07E
:1092100008067FF47CAE784AD2F80423D0067FF5A6
:1092200076AE00221A601B680493049B774B1A6881
:10923000012A46F010067FF46FAE6F4AD2F804237D
:1092400091067FF569AE00221A601B680493049BA7
:109250006F4B1A68012A46F020067FF462AE664A18
:10926000D2F8042352067FF55CAE00221A601B6818
:109270000493049B46F0400653E60E4633E6654BE6
:1092800000221A601B6805934FF0A043059AD3F89B
:109290001035019346F000464CE6BEF1020F7FF414
:1092A0001DAF032963D0002B3FF418AF984715E793
:1092B000BEF1020F7FF444AF032969D0002B54D1D3
:1092C0003EE7BEF1020F7FF4A4AE032900F09180C7
:1092D0000025002B3FF49EAE98479BE6BEF1020F9F
:1092E0007FF4CAAE032956D0002B3FF4C5AE984791
:1092F000C2E603297FF424AF17F8082042EA0C02E3
:1093000007F808200BE703297FF4B6AE17F808200A
:1093100042EA0C0207F808209DE603297FF479AEA3
:1093200017F80C50154307F80C5061E603297FF439
:10933000D5AE17F8082042EA0C0207F80820BCE670
:109340000329BBD14FF4003ED2F800C72CF4403CB7
:10935000C2F800C7D2F800C701354CEA0E0CEDB2D6
:10936000C2F800C7002B3FF4EEAE9847E8E64FF492
:10937000403ED2F800C72CF4403CC2F800C7D2F8F7
:1093800000C701354CEA0E0CEDB2C2F800C78AE7FF
:109390004FF4403ED8E74FF4403ED2F800C72CF4DB
:1093A000403CC2F800C7D2F800C701354CEA0E0CA9
:1093B000EDB2C2F800C797E703297FF474AF4FF40A
:1093C000003ED6E703298FD14FF4003EE5E703299D
:1093D0007FF47FAF4FF40035DCF8002722F44032F1
:1093E000CCF80027DCF800272A43CCF80027012519
:1093F0006FE74FF44035EFE7006000400461004044
:10940000086100400C6100401061004014610040A0
:10941000186100407C610040014B1B68184700BF89
:10942000202A0020104B984201D00020704730B510
:1094300083B002A8002300F8013D0D46FEF730FA84
:109440000A4B1C7934B19DF80700FEF74FFA112042
:1094500003B030BD01229DF807001D601A71FEF7B0
:1094600045FA2046F4E700BF00200040202A0020F3
:10947000034B984203D1034B00221A601A717047C4
:1094800000200040202A002030B56C4AD2F8043376
:1094900099058BB066D5D2F82431002B62D0002319
:1094A000C2F82431D2F8243103934FF40171644B94
:1094B0000398C2F8081393F8291009B901215160E3
:1094C0005E4902228DF81820D1F88024C1F880244A
:1094D0009869D96809920022CDE90710C3E90622EC
:1094E000D3E9001406A8A047544AD2F81C31BBB1F6
:1094F000534B186A5969884269D350480022C0F812
:109500001C21D0F81C010190019849B198688DF890
:10951000182008915A610790D3E9001206A89047D5
:10952000464AD2F84431DBB10021454BC2F8441120
:10953000D2F8440193F829100090009809B1012154
:1095400011609A6962B10022586AD9689A61012251
:10955000CDE907108DF8182006A8D3E9001290472E
:109560000BB030BD354AD2F804335B07BCD5D2F816
:109570000831002BB8D0324B996900293CD000212A
:10958000C2F80811D2F8081104910499D868596AF0
:10959000D2F8182542545A6A996901325A625A6AB5
:1095A0008A42A1D1DA691968002A2ED0D8685D6A8A
:1095B0001C699A61079000220120DC60DA615A621E
:1095C0008DF8180008955B6806A898478CE793F813
:1095D000280000F0FF0400288FD1C2F81C41D2F807
:1095E0001C11029102999C68186A196A205C013169
:1095F0001962C2F81C0593E7C2F80811D2F80801F5
:1096000005900598D2F81825C9E793F8292012B9D2
:109610000A4A01205060094A4FF40170C2F8080359
:10962000586ADA6808900024012007928DF8180023
:109630005A689C6106A8904756E700BF002000408A
:10964000282A00202DE9F041DFF8988107792C269F
:1096500006FB078682B096F82A30002B40F08F80F8
:109660000D4604465C4900681646FFF7DBFE0028FD
:1096700040F081802B68591C0CD001224FF0A04192
:1096800002FA03F3C1F808352B6803F5E0730322EF
:1096900041F823206B685A1C06D003F5E0734FF0A5
:1096A000A042002142F823102368AA69C3F82425A8
:1096B000297D6B7D22680B43C2F86C35D5E9001219
:1096C0002368C3F81425C3F80C152B7D012B5AD041
:1096D0002C2303FB07F308EB030256602A6948F8C2
:1096E0000320002E34D022682B7F3C4D0021C2F88D
:1096F0001C11D2F81C2100922268009EC2F844116D
:10970000D2F84411226801910199C2F804532168EA
:10971000090B4AB25B01002ADBB256DB02F1604260
:1097200002F5614282F800332268120B42F3C4034F
:1097300023F0604323F0030303F1604303F5614327
:1097400002F01F02012101FA02F2C3F880211A601F
:109750002C23246803FB0783002204250121C4F87D
:10976000005583F82A10C3E9062283F829205A619C
:1097700002B0BDE8F081112002B0BDE8F081082000
:1097800002B0BDE8F081AB68591C06D003F5E07368
:109790004FF0A042002142F82310EB685A1C0DD074
:1097A00001224FF0A04102FA03F3C1F80835EB683B
:1097B00003F5E073032241F82320EB682268A968CF
:1097C000C2F80835C2F8101582E7054A01F00F010A
:1097D0000A441376A8E700BF8994020080000200C3
:1097E000FCEC00E0282A0020F8B52F4D047902682F
:1097F0002C2303FB045300215B68C2F8001583B1DE
:1098000003682A4AC3F808230368294E1B0B5AB27F
:109810005209203203F01F03012101FA03F346F835
:10982000223003684FF0FF32D3F80CC5D3F814751B
:10983000D3F80815D3F81065C3F81425C3F80C2520
:1098400003689445C3F80825C3F8102506D00CF525
:10985000E07C4FF0A043022243F82C207B1C06D072
:1098600007F5E0774FF0A043022243F82720721C4F
:1098700006D006F5E0764FF0A043022243F82620FA
:109880004B1C06D001F5E0714FF0A043022243F8D3
:1098900021200068FFF7ECFD2C2303FB0454002378
:1098A00084F82A306360F8BD282A00208402020070
:1098B00000E100E0F0B5314E05792C2303FB056390
:1098C00085B05C69002C53D11C62996083F82840F4
:1098D0005A610268C2F81C41D2F81C110268029158
:1098E0000121029F91600268D3F808C0C2F81C41B0
:1098F000D2F81C1101910199D3F820E0196A5F6830
:109900001CF80EE001311962C2F81CE517B12046BF
:1099100005B0F0BD1A6A5C690168944203D819E089
:1099200093F828203ABBD1F81C21002AF8D0C1F8BE
:109930001C71D1F81C210392039AD3F820E01A6A13
:109940001CF80EE001321A62C1F81CE51A6AA24244
:10995000E9D30168D1F81C31002BFBD00123CB6087
:1099600000202C2303FB056500236B6105B0F0BDCF
:10997000112005B0F0BD0F20F3E700BF282A00201A
:10998000F0B5474BD3F8242189B0002A54D00021E8
:10999000C3F82411D3F82421029202228DF810205A
:1099A000029AD3F880043F4AC3F880040790D3F8A2
:1099B0003C05D3688DF81800C2E9061105931168BB
:1099C000536804A89847364BD3F84421BAB1002015
:1099D000344AC3F84401D3F8444191690194019C8D
:1099E00069B1D3F83C458DF81840D36890610124E3
:1099F0000593116853688DF8104004A89847284BC8
:109A0000D3F82021B2B10021264AC3F82011D3F89F
:109A1000204150690094009C60B1D3F84C059368D4
:109A20008DF818008DF810105161059304A8D2E943
:109A30000013984709B0F0BDD3F810110029C2D027
:109A4000C3F81021D3F810111648039103998169C6
:109A5000D3F83C458C42B6D1C569C768D0E9001639
:109A6000E4B295B1D3F800C285612CF02005C26143
:109A7000C3F800520369C36001228DF818400597AE
:109A80008DF8102004A8B0479DE7012385618DF86B
:109A9000184005978DF8103004A8B04793E700BF31
:109AA00000200040542A00202DE9F04307796B4E36
:109AB0004FEAC70808EB070306EB830385B093F86A
:109AC0002030002B40F09E800D460446644900681B
:109AD0009146FFF7A7FC002840F090802B68591CA6
:109AE0000CD001224FF0A04102FA03F3C1F808356F
:109AF0002B6803F5E073032241F823206B685A1C9E
:109B000006D003F5E0734FF0A042002142F8231085
:109B10002368AA69C3F82425297D6A7D23680A433E
:109B2000C3F86C25D5E900312268C2F80C35C2F8BB
:109B300014152B7D012B69D008EB07029200B31896
:109B4000C3F804902B69B350B9F1000F45D02168D8
:109B50002B7F444D0022C1F81021D1F81011009143
:109B60002168DDF800C0C1F82021D1F82011019151
:109B70002168DDF804C0C1F82421D1F82411029134
:109B80002168DDF808C0C1F84421D1F844112268E9
:109B900003910399C2F804532168090B4AB25B018F
:109BA000002ADBB254DB02F1604202F5614282F826
:109BB00000332268120B42F3C40323F0604323F006
:109BC000030303F1604303F5614302F01F02012127
:109BD00001FA02F2C3F880211A604744226806EBBA
:109BE000870600230124082186F82040C2F80015CA
:109BF000C6E90633736105B0BDE8F083112005B0F6
:109C0000BDE8F083082005B0BDE8F083AB68591CBF
:109C100006D003F5E0734FF0A042002142F8231074
:109C2000EB685A1C0DD001224FF0A04102FA03F359
:109C3000C1F80835EB6803F5E073032241F82320EF
:109C4000EB682268A968C2F80835C2F8101573E7F6
:109C5000054A01F00F010A441376AAE7542A0020AE
:109C60008199020010030200FCEC00E0F8B50679CF
:109C70002F4C0268F500AB1904EB830300215B68ED
:109C8000C2F8001583B103682A4AC3F808230368A1
:109C9000294F1B0B5AB25209203203F01F03012136
:109CA00001FA03F347F8223003684FF0FF32D3F88C
:109CB0000CE5D3F814C5D3F80815D3F81075C3F81C
:109CC0000C25C3F8142503689645C3F80825C3F886
:109CD000102506D00EF5E07E4FF0A043022243F897
:109CE0002E20BCF1FF3F06D00CF5E07C4FF0A043E6
:109CF000022243F82C207A1C06D007F5E0774FF0BB
:109D0000A043022243F827204B1C06D001F5E07146
:109D10004FF0A043022243F82120354404EB850490
:109D20000068FFF7A5FB002384F820306360F8BDCE
:109D3000542A00201003020000E100E001F060431B
:109D4000B3F1005F2CD1F0B50679234F4FEAC60C72
:109D50000CEB060407EB840483B0636913BBA160BA
:109D600062610568C5F82031D5F820E10568CDF8B5
:109D700004E0DDF804E0C5F85831D5F858E105688D
:109D8000CDF800E0DDF800E0C5F84415C5F8482539
:109D900002680121916062683AB1184603B0F0BDD3
:109DA00010207047112003B0F0BD036800E08AB9AD
:109DB000D3F82011D3F858210029F8D0002A14BF75
:109DC0000F2000200CEB060307EB830300225A61EF
:109DD00003B0F0BD0F20F5E7542A0020032811D866
:109DE000012A0BD0012919D00ED302290AD10E4B1A
:109DF00000EB4000034400205A70704701290AD04C
:109E00000022EFE707207047074B00EB40000344B8
:109E100000209A70704700F10E02D2B200EB4003AE
:109E200001490020CA547047782A002010B50388E1
:109E3000102B07D0112B04D1254B1868013818605E
:109E400030B110BD224C216881B10131216010BDBB
:109E500001220221FFF7C2FF38B3072825D01D4B8E
:109E60001B68002BEDD0BDE81040184701220846C2
:109E7000FFF7B4FF38B1072805D0164B1B6803B1B4
:109E800098472168E1E7072202210120FFF7A6FF9A
:109E900008B10728F1D1042202210020FFF79EFF1C
:109EA0000028EED00728E8D1EBE7072202210120A5
:109EB000FFF794FF08B10728D1D1002108460A22F4
:109EC000FFF78CFF0028BCD00728C8D110BD00BF09
:109ED000882A0020842A002075DF704776DF7047CB
:109EE0008FDF70470146014801F09ABD8C2A00209F
:109EF0000378062B01D1406800B97047FDF778B9A7
:109F00000D280FD110B50F480C4601F077FF58B15E
:109F100043F20202904214D0082812D0BDE810404B
:109F2000FDF766B9FDF764B90748084B0849C01A40
:109F3000C0080004224640F00300BDE81040FCF7D2
:109F40005BBD10BD8C2A002030D2020008D2020076
:109F500024CB020070B50D78012D0C4613D0022DD4
:109F600029D11B4B1B480A791B49C01AC0080004A1
:109F700040F00300FCF740FD23792846E3B9BDE833
:109F80007040FEF777BC0A1D06464988134801F069
:109F900085FF0F4B0F4862881149C01AC0080004A2
:109FA00040F00300FCF728FDFDF70CF960B93046DE
:109FB00001F0DAFE20B970BDBDE87040FEF74EBC7E
:109FC000BDE87040FDF714B9FDF712F9EFE700BFE7
:109FD00008D2020030D2020070CB02008C2A00208E
:109FE0003CCB020010B503881F2B82B0044657D02B
:109FF00011D93B2B05D0562B03D0212B27D002B0F3
:10A0000010BDA0881321FFF769FF0028F7D0FDF7E6
:10A01000EFF802B010BD102B23D0112BEFD1264B3F
:10A0200026482749C01AC008000440F00300FCF786
:10A0300035FB244801F0B0FB08B1FDF7D9F8012049
:10A04000FEF718FC0020FEF709FC02B010BD02A9C3
:10A05000002321F8043D8088FFF742FF0028CED07E
:10A06000D5E7154B15481849C01AC008000440F040
:10A070000300FCF713FB0022A188144801F00EFF37
:10A08000B0B9A188124800F0E9FA08B1FDF7B0F8BC
:10A090000120FEF7E3FB0020FEF7ECFB02B010BD51
:10A0A00000F108018088FFF717FF0028A7D0AEE76E
:10A0B000FDF79EF8E5E700BF08D2020030D20200AB
:10A0C00014CB0200B02A002008CB02008C2A00200A
:10A0D000981D002000B54FF4004185B00020FCF72A
:10A0E0007DFA08B1FDF784F8FCF7FEF9FDF7E2FA16
:10A0F00008B1FDF77DF80120FEF7C8FB40F266626B
:10A1000001213C48FDF706F808B1FDF771F8FEF7AC
:10A110002DF908B1FDF76CF801F0CEFE08B1FDF79E
:10A1200067F804AC002344F8103D0120214601F0FB
:10A130009BFF08B1FDF75CF8204602F04FF808B12C
:10A14000FDF756F810220021204602F02FF90123D6
:10A15000294A2A488DF8043021468DF80C3001F048
:10A16000B9FA08B1FDF744F800220121234801F0B3
:10A170009DFA08B1FDF73CF8214A2048002101F082
:10A1800067FA08B1FDF734F800211E4801F024F900
:10A1900008B1FDF72DF81C4800F0E0F908B1FDF713
:10A1A00027F81A4B1A480093214601F057FD08B1D1
:10A1B000FDF71EF8174B18481849C01AC0080004CC
:10A1C00040F00300FCF76AFA0C4801F0E5FA08B128
:10A1D000FDF70EF80120FEF74DFB0020FEF73EFBD9
:10A1E0000020FEF73BFBFCF709FD0028FBD1FEF742
:10A1F000D3F8F8E7901D0020F19E0200B02A00205D
:10A2000098CB02009C2A0020E59E0200559F020088
:10A210008C2A002008D2020030D20200A8CB020013
:10A220002AB320B370B54378092B2BD0E9B10024B1
:10A23000234601E0994218D9045D013423449BB2BE
:10A24000C5181C466D78092DF4D199420DD9C45C0E
:10A250000233013C9BB2A4B2C61833B12CB11046F4
:10A26000154602F0B5F8A04203D0002070BD0020D2
:10A27000704722463146284602F07EF8B0FA80F058
:10A28000400970BD0029F0D0064616F8024B013C8B
:10A29000A4B2E3E72DE9F0470388B0F80490112B4E
:10A2A00098B059D01A2B804647D0102B02D018B046
:10A2B000BDE8F087394A936818A8DB4340F8603D51
:10A2C0005168FDF75FFB009B0193019B63B300277F
:10A2D0003C46214601A8FDF735FB28B118AB03EB3E
:10A2E0004703013723F8284C0134142CF1D10D9782
:10A2F0000DAE0FCE02AC0FC40FCE0FC496E8070010
:10A3000084E8070087B10DF10A0A254E0AEB4707DA
:10A310003AF8025F234C204629460434FDF708FB37
:10A32000A642F8D1BA45F3D1B9F1130F1BD90420D5
:10A33000FCF75EFF18B0BDE8F087047A1A482409DC
:10A34000012C494620D9FDF7E9FA022C4946174865
:10A350001ED0FDF7E3FAAAE749461548FDF7E8FAEB
:10A3600018B0BDE8F08749461148FDF7D7FA4946CD
:10A370000C48FDF7D3FA98F80F30012B97D04946D7
:10A380000C48FDF7CBFA92E7FDF7D2FA07484946A9
:10A39000FDF7CEFA18B0BDE8F08700BF182B0020FB
:10A3A000902B00201C2B0020282B00202C2B002081
:10A3B000202B0020242B00209BDF70479DDF70475F
:10A3C0009EDF7047F0B5324B1D6890F8C632A1B0E1
:10A3D0001DB3C3EB0314C3EB84035B00C6182D4C01
:10A3E000B678A778B74240D0012D16D9A779B742E1
:10A3F00041D0022D11D0A77AB74210D0032D0CD036
:10A40000A77BB74225D0042D07D0A77CB74226D022
:10A41000052D02D0A57DB54233D021B0F0BDB4F8F2
:10A4200008C0C75ABC45E9D11B4B1E68002EF4D0AA
:10A4300015460C467C22002101A801F0B7FF01233C
:10A4400001A8ADF8065002948DF80430B04721B051
:10A45000F0BDB4F80CC0C75ABC45D4D1E4E7B4F899
:10A4600010C0C75ABC45D3D1DEE7B4F800C0C75A04
:10A47000BC45B9D1D8E7B4F804C0C75ABC45B8D177
:10A48000D2E7A48AC35A9C42CED021B0F0BD00BF0F
:10A49000982B0020A02E0020902B00202DE9F041C9
:10A4A00090F8C64290F8C532C4EB0415C4EB85049D
:10A4B000640000EB040E03EBC3069EF804C004EB3B
:10A4C00046065D1C0A36654582B006443AD06345AF
:10A4D00030D2122515FB034404440CF1FF383589B2
:10A4E000984505F1010610D0658CAE4217D0013DAC
:10A4F000ADF80650ADF8046000230B70104601A9BA
:10A50000FFF75EFF02B0BDE8F081BEF80860AE4222
:10A5100016D00135ADF80450ADF80660ECE704F153
:10A520001C065D1CEFB2BC452B4680F8C55204F1F9
:10A530001204D4D8012300200B7002B0BDE8F081D2
:10A540000026EEE73389BEF808008342F2D00133DB
:10A55000ADF80430ADF80600CEE700BF68B130B406
:10A56000074C0849084A094D106000232360012464
:10A570000C702B60184630BC70470E23184670478D
:10A58000982B0020942B0020902B00209C2E002044
:10A5900000283ED02D4B1B782BB370B42C4C2D4B88
:10A5A0002268002A50D081789D788D4233D0012ACC
:10A5B00042D99D798D4233D0022A3DD09D7A8D4279
:10A5C00033D0032A38D09D7B8D420ED0042A33D05D
:10A5D0009D7C8D4213D0052A2ED09D7D8D4213D0B7
:10A5E000042070BC7047082070479E890588AE42E1
:10A5F000ECD119490968E9B1002070BC70471E8A86
:10A600000588AE42E7D1F4E79D8A01888D42E7D103
:10A61000EFE70E2070471E880588AE42C7D1E8E7F5
:10A620009E880588AE42C7D1E3E71E890588AE4201
:10A63000C7D1DEE7052AD3D8511C006843F82200B1
:10A640002160002070BC70470121F6E7942B0020A8
:10A65000982B0020A02E0020902B0020B0B31C4B84
:10A660001B7843B31B4B1B682BB370B590F8C752D4
:10A6700004464DBB0E464FF43372294601F096FE58
:10A68000154A164B10682060A4F8CA6284F8C952B3
:10A6900084F8C65284F8C5522246304601211D6016
:10A6A000FFF78AFE112808D020B9012384F8C802D8
:10A6B00084F8C73270BD08207047012384F8C73280
:10A6C00084F8C832284670BD112070BD0E20704736
:10A6D000942B0020982B0020A02E00209C2E0020E0
:10A6E00000B3F9B1644B1B78E3B12DE9F04F038857
:10A6F000113BA7B004460D46222B1AD8DFE803F021
:10A700008219191919191919191919191919191950
:10A710001919191919191919191919191919192E94
:10A720001923130070478288B1F8CA329A4200F0A8
:10A73000AB8195F8C8321BB12388303B1F2B70D9F1
:10A7400027B0BDE8F08F8388B1F8CA62B34200F049
:10A750009D8095F8C822002A66D1F1E78388B1F878
:10A76000CA62B342F5D1C38891F8C612002B00F03B
:10A770007782DFF81491D9F80080B8F1000F00F06B
:10A78000C285C1EB0113C1EB83035B00EA183B4FA9
:10A790009278B878904200F07683B8F1010F40F2D9
:10A7A000E285B879904200F0D883B8F1020F18D052
:10A7B000B87A904200F0D883B8F1030F11D0B87B7B
:10A7C000904200F0D883B8F1040F0AD0B87C9042D0
:10A7D00000F0D883B8F1050F03D0B87D904200F0A7
:10A7E000D88395F8C9320133DBB2434585F8C932C5
:10A7F000C0F02283224B032100225E80197085F86D
:10A80000C72296E78288B1F8CA329A4298D10023CB
:10A810004FF6FF7281F8C73281F8C832A1F8CA2218
:10A820008EE7A388B5F8CA629E4289D14FF433728D
:10A830000021284601F0BAFD104B124C1868286020
:10A840000023A5F8CA6285F8C932304685F8C632B9
:10A8500085F8C5322A4601212360FFF7ADFD112896
:10A8600000F0E48200287FF46BAF012385F8C80272
:10A8700085F8C73264E700BF942B0020A02E00208B
:10A880009C2B00209C2E0020982B0020C388002B9E
:10A8900040F0868191F8C682827AC8EB0813C8EB33
:10A8A00083035E008F1997F804904A44062A00F348
:10A8B000A482D2B23A71414691454B4680F0B380B2
:10A8C00020464FF0760C0CFB08FC09EBC9020CEBA0
:10A8D000420250F80C9F2A44D0F80480C2F80E803F
:10A8E000C2F80A90008950824FF0000EA2F814E0DE
:10A8F000A2F816E0A2F818E0A2F81AE03A79581C7B
:10A90000824240F2198200EBC00220460CEB420268
:10A9100050F816AF2A44D0F80490C2F80E90C2F84E
:10A920000AA000895082A2F814E0A2F816E0A2F86A
:10A9300018E0A2F81AE03A79981C824240F2FC81B1
:10A9400000EBC00220460CEB420250F820AF2A4434
:10A95000D0F80490C2F80E90C2F80AA00089508284
:10A96000A2F814E0A2F816E0A2F818E0A2F81AE0A3
:10A970003A79D81C904280F0DF8100EBC00220467B
:10A980000CEB420250F82AAF2A44D0F80490C2F8E7
:10A990000E90C2F80AA000895082A2F814E0A2F832
:10A9A00016E0A2F818E0A2F81AE03A79181D9042D1
:10A9B00080F0C28100EBC00220460CEB420250F84E
:10A9C00034AF2A44D0F80490C2F80E90C2F80AA01E
:10A9D00000895082A2F814E0A2F816E0A2F818E06C
:10A9E000A2F81AE03A79581D904280F0A581A0465D
:10A9F00000EBC00258F83E9F0CEB42022A44D8F804
:10AA000004C0C2F80EC0C2F80A90B8F808C0A2F894
:10AA100012C0A2F814E0A2F816E0A2F818E0A2F81A
:10AA20001AE03A790633013B03EBC303762005EBCA
:10AA3000430300FB01F133446F185B8A3E89B34244
:10AA400080F0AE80062A00F0AB8085F8C522A08891
:10AA5000002A40F02E83FB88ADF81C3007A9ADF822
:10AA60001E60FFF7ABFC00283FF463AE002385F8BF
:10AA7000C7320146A2882846FFF7A4FCAF4BA28844
:10AA80005A8003221A7054E6C08891F8C61295F8CD
:10AA9000C57240BB638933B3762606FB01F607EB2C
:10AAA000C70306EB43062E442246D389A3F524535D
:10AAB000082B6FD8DFE803F06C70696E6E6E6E6EF7
:10AAC0000500B2F80CC0B38AA6F81AC02BB1F38AFD
:10AAD0001BB1338B0BB1738B2BB963890130984257
:10AAE00002F10602E1D3762202FB01527B1C1279AD
:10AAF000002693428DF81B6040F00A8101238DF8F7
:10AB00001B30DFF84092B4F80480D9F80060002EC2
:10AB100000F04484762202FB01F2AB18884F9B7848
:10AB2000B878984200F05E82012E40F23E84B879F7
:10AB3000984200F08B82022E15D0B87A984200F02D
:10AB4000C382032E0FD0B87B984200F0CB82042E34
:10AB500009D0B87C984200F03783052E03D0B87D29
:10AB6000984200F0718395F8C9320133DBB2B342E9
:10AB700085F8C932C0F01382704B03210022A3F87C
:10AB80000280197085F8C722D3E59389B3829DE7C7
:10AB90009389F382B38A99E793893383B38A95E7DC
:10ABA000002785F8C572A2880DF11B012846FFF722
:10ABB00075FC0646002840F0C7809DF81B30002B2E
:10ABC0003FF4B7ADDFF87C91B4F804A0D9F80030B9
:10ABD00095F8C612002B00F0EB83C1EB0112C1EB1C
:10ABE00082025200A818564F807897F802C0844518
:10ABF00000F0AF82012B40F2E18397F806C0844554
:10AC000000F0E982022B19D097F80AC0844500F0C1
:10AC1000F182032B12D097F80EC0844500F02183F7
:10AC2000042B0BD097F812C0844500F05E83052BEF
:10AC300004D097F816C0844500F05F8395F8C922C8
:10AC40000132D2B29A4285F8C922C0F059823B4BF8
:10AC500003210022A3F802A0197085F8C72268E535
:10AC6000C1EB0113C1EB83035B00C268EA502B44C4
:10AC70000269C3F8062095F8C5228088002A40F0B2
:10AC8000AE80DA881B89ADF81E3007A9ADF81C200C
:10AC9000FFF794FB064600283FF44BAD294A95F890
:10ACA000C6321168002285F8C722B4F8048049B37F
:10ACB000C3EB0312C3EB82035B00EA18204F9278C8
:10ACC000B878904200F0A58201291BD9B87990424A
:10ACD00000F0C082022915D0B87A904200F0EB82D1
:10ACE00003290FD0B87B904200F01483042909D0C7
:10ACF000B87C904200F03083052903D0B97D9142A1
:10AD000000F024830D4B0322A3F802801A7010E593
:10AD100085F8C532A2880DF11B012846FFF7BEFB5E
:10AD20008046002840F0E1809DF81B30002B3FF466
:10AD300000AD95F8C612E4E6034674E69C2B0020AD
:10AD4000A02E0020982B0020C74B85F8C7721968E9
:10AD5000B4F8048095F8C6320029D3D0C3EB0312AF
:10AD6000C3EB82035B00EA18C04F9278B878904238
:10AD700000F073810129C5D9B879904200F0AB8108
:10AD80000229BFD0B87A904200F0B3810329B9D02C
:10AD9000B87B904200F027820429B3D0B87C90425F
:10ADA00000F030820529ADD0B97D9142AAD1BA8A8E
:10ADB000EB5A9A42A6D1AE4B1F68002FA2D07C223C
:10ADC000002107A801F0F2FA0123ADF81E8007A8C0
:10ADD00008968DF81C30B847B4F8048092E7013A21
:10ADE000D2B2762602EBC20206FB01F101EB42026F
:10ADF0002A44528A013292B244E79E4B9E4A9F49AE
:10AE0000A3EB020A4FEADA0A06234FEA0A4A3B7129
:10AE10004AF0020AAA5B5046FBF7EEFD98495046FD
:10AE2000FBF73CFC95F8C6123A7945E5012385F815
:10AE3000C73285F8C83283E495F8C6320133DBB2F5
:10AE4000C3EB0312C3EB82025200A91857F8230088
:10AE500085F8C632002385F8C532A8500A460B7122
:10AE600030460121FFF7A8FA00283FF462AC85F8CC
:10AE7000C732014632462846FFF7A4FA814B032227
:10AE80005E801A7055E435F803C0388884457FF435
:10AE900084AC774B1B680493002B3FF4A2ACDFF823
:10AEA000E8B1DBF800A0BAF1050F3FF69AAC754B9C
:10AEB0004FEACA12CDE901321344762202FB015156
:10AEC000181D5E80039301F066FADDE90336DE6744
:10AED000DDE901300AF1010202214245CBF80020F0
:10AEE000195400F0D380A6887BE45F4B85F8C762D5
:10AEF0001968A68895F8C63249B3C3EB0312C3EBB1
:10AF000082035B00EA18594F9278B878904200F0BB
:10AF1000B08101291BD9B879904200F0C58102297E
:10AF200015D0B87A904200F0FC8103290FD0B87B8D
:10AF3000904200F0FD81042909D0B87C904200F0D5
:10AF4000FE81052903D0B97D914200F010824D4B5E
:10AF500003225E801A70FFF7ECBB35F803C0B88897
:10AF600084457FF422AC94E735F803C038898445E2
:10AF70007FF422AC8DE735F803C0B88984457FF4AF
:10AF800022AC86E735F803C0388A84457FF422ACCA
:10AF90007FE7EB5ABA8A9A427FF423AC79E795F8B7
:10AFA000C6320133DBB2C3EB0312C3EB82025200A1
:10AFB000A91857F8230085F8C632002385F8C53252
:10AFC000A8500A460B7140460121FFF7F5F9002809
:10AFD0003FF4AFAB014685F8C73242462846FFF73B
:10AFE000F1F98FE6B7F800C0A85A84457FF49CAD0C
:10AFF0001F4B1868049000283FF4B5ADDFF888B007
:10B00000DBF800A0BAF1050F3FF6ADAD1D4B4FEADE
:10B01000CA12CDE901321344762202FB0151181DF8
:10B02000A3F80280039301F0B6F9DDE90330D86795
:10B03000DDE901300AF101010022B142CBF8001034
:10B040001A5400F03F81B4F804808CE5B7F804C0CE
:10B05000A85A84457FF46FADCAE735F803C0388835
:10B0600084457FF487AEA6E6982B0020A02E002012
:10B07000902B002038D2020008D20200C8CB020078
:10B0800010CC02009C2B00209C2E00201E464FF06E
:10B09000000AF36F30469847D9F800300AF1010AE8
:10B0A0009A4506F18006F4D398460023CBF8003089
:10B0B00019E7531EDBB203EBC30301EB43032B443D
:10B0C0005B8A01339BB2C7E4B7F808C0A85A84452D
:10B0D0007FF437AD8CE735F803C0B88884457FF43A
:10B0E0004FAE68E6B7F80CC0A85A84457FF42FAD80
:10B0F0007EE735F803C0388984457FF447AE5AE6C9
:10B1000095F8C6320133DBB2C3EB0312C3EB820204
:10B110005200A91857F8230085F8C632002385F895
:10B12000C532A8500A460B7150460121FFF744F979
:10B13000014600283FF4FDAA85F8C732524628464A
:10B14000FFF740F99E4B0322A3F802A01A70FFF705
:10B15000F0BA35F802E0B7F800C0E6457FF44AAD32
:10B16000984A12680292002A3FF468ADDFF858B29C
:10B17000DBF80080B8F1050F3FF660AD0593904B0A
:10B1800001934FEAC8101A18134603907622184606
:10B1900002FB0151A3F802A00430049301F0FBF874
:10B1A0000498019B84460298CCF87C000398002107
:10B1B0001954059B08F101029342CBF8002000F0DE
:10B1C000DC80B4F804A039E5B7F810C0A85A84456B
:10B1D0007FF4C3AC0CE735F802E0B7F804C0E645ED
:10B1E0007FF410ADBCE735F803C0B88984457FF41F
:10B1F000D3ADE0E535F802E0B7F808C0E6457FF4E6
:10B2000008ADADE735F803C0388A84457FF4CAAD90
:10B21000D1E535F803C0388884457FF455AD694BD6
:10B220001F68002F3FF46EAD7C22002107A801F0BB
:10B23000BDF80123ADF81E80089607A88DF81C30D4
:10B24000B847B4F804805DE5AB5ABA8A9A427FF4F5
:10B250008AACCDE635F803C0B88884457FF43AADB2
:10B26000DDE735F802E0B7F80CC0E6457FF4D8AC6E
:10B2700076E7B7F800C0E85A84457FF44AAE514BF0
:10B280001F68002F3FF463AE7C22002107A801F065
:10B290008DF80123ADF81E6007A8CDF820808DF849
:10B2A0001C30B847A68852E6B7F804C0E85A84456F
:10B2B0007FF435AEE3E735F803C0388984457FF481
:10B2C0000FADACE7DDF804809246D8F87C304046FC
:10B2D0009847D9F800600AF1010AB24508F18008E0
:10B2E000F3D30023CBF80030ADE635F802E0B7F831
:10B2F00010C0E6457FF49BAC32E7AA5AB88A904268
:10B300007FF49CAC2CE795F8C932013385F8C9323B
:10B31000FFF770BA35F803C0B88984457FF4E6AC0E
:10B320007DE7B7F808C0E85A84457FF4FEADA6E78C
:10B33000B7F80CC0E85A84457FF4FDAD9FE7B7F835
:10B3400010C0E85A84457FF4FCAD98E7BA8AEB5AFE
:10B350009A427FF4D7AC62E735F803C0388A844557
:10B360007FF4CAAC5BE74FF00108FFF73ABABA8A3C
:10B37000EB5A9A427FF4EBAD81E7DDF80480D8F810
:10B380007C3040469847D9F8003001369E4208F19B
:10B390008008F4D30022CBF8002012E795F8C932D8
:10B3A000013385F8C932FFF7E7BB0126FFF7DBBBA6
:10B3B00095F8C932013385F8C93248E401233DE4E8
:10B3C0009C2B0020902B00209C2E002090DF7047AB
:10B3D000A5DF7047B5DF704708B90E20704730B45D
:10B3E00003464FF0171200201B2541F61B3419614C
:10B3F0001A60C3F806201D719872D8729C8130BC07
:10B40000704700BF70B5858884B01DBB0388232BAF
:10B410000C4621D06FD93A2B54D0552B00F0B18077
:10B42000242B00F09C80A37AA3B1E1880020FFF7D1
:10B43000CFFF00286DD011280CD0FCF7F9FF7A4A15
:10B440007A4B7B499B1ADB081B04024643F0010040
:10B45000FBF7D2FA04B070BD037A0A7B03959342DE
:10B4600028BF134602A96A4628460095ADF8083061
:10B47000ADF80A30ADF80450FFF7A8FF0028D2D08D
:10B48000694B6A4EF61AF608FCF7D2FF360446F00E
:10B49000010603462A4630466649FBF72DFBBDF8F8
:10B4A0000020BDF8023002B91BB163493046FBF7FA
:10B4B00023FBBDF80420002AB5D030465F49FBF7D6
:10B4C0009BFAB0E74389C98822698B4228BF0B46A3
:10B4D000172B38BF172323814AB1E17A39B140F6DF
:10B4E00077210291ADF80C3002A920469047002345
:10B4F000E372A372AEE7102B0FD0112B93D14FF054
:10B50000171241F61B338D72CD72C1F806208B8164
:10B51000A0E70122A072E2729CE70B790B73C27B59
:10B52000012A52D0022A4DD0C98822898A425DD38D
:10B53000627B9A42BFF477AF00259BB228466A46E9
:10B5400002A9ADF80830ADF80A3003950095ADF8C2
:10B550000450FFF73BFF00283FF465AF90E70B690D
:10B56000027A4A73002B3FF45EAF4DF67A21ADF8B4
:10B570000C5002918DF80C2002A920469847A37A1E
:10B5800052E7C388C988A572172B38BF17238B428F
:10B5900028BF0B4628462381FFF71CFFC0B9E37A7A
:10B5A000002B7FF440AF2369002B3FF43CAF40F603
:10B5B000772122890291ADF80C2002A920469847F4
:10B5C000A37A31E74988E180AFE70988E180ACE7F9
:10B5D000FCF72EFF144A154B19499B1ADB081B0474
:10B5E000024643F00100FBF707FAD8E70020FFF717
:10B5F000EFFE18B90123E372237B99E7112803D1E9
:10B600000123A372237B93E7FCF712FF064A074B43
:10B6100007499B1ADB081B04024643F00100FBF7B5
:10B62000EBF9237B84E700BF08D2020058D2020066
:10B630005CCD020078CC0200C4CC020004CD020034
:10B6400090CD02008ADF70478BDF70478CDF704738
:10B6500030B32AB311BB70B504461046164600F04D
:10B66000B7FE0138C0B21F281ED894F82050CDB9BB
:10B670003146204600F0A2FE78B194F82000431C29
:10B6800084F8203004EB4014304600F0A1FE31462F
:10B690000246204600F07FFE284670BD0720704716
:10B6A0000E207047042070BD0C2070BD68B1CB0621
:10B6B0000DD011F0010116BF012380F8211080F890
:10B6C000213080F82220002070470E20704707208C
:10B6D000704700BF58B370B50D46C26300212322E6
:10B6E000044600F063FE25B32B7984F823302B7BCE
:10B6F00084F82C302B68A3B31E6858689968C4F886
:10B700003610C4F82E60C4F832009B896387AB689A
:10B71000002B39D01868596804F1240303C304F1DD
:10B7200040021F232266A4F86430002070BD0E2062
:10B73000704794F82E30174AA58643F0040365F34A
:10B74000C403A0265020012184F82E304FF0C87386
:10B7500084F823502686608684F82F10C4E90923D4
:10B76000DDE794F82E20A38642F0040263F3C402BE
:10B77000A0200123502184F82E202086618684F8A1
:10B780002F30AB68002BC5D1024A4FF0C873C4E913
:10B790000923C4E70600180010B310B5044686B0AC
:10B7A0001422002101A800F001FEFFF74DFF94F8DC
:10B7B0002E301B070BD404F1600104F12E00FFF7BB
:10B7C00041FF044630F008000CD106B010BDE36B19
:10B7D000002BF0D0012201A88DF804209847EAE759
:10B7E0000E207047064B07480749C01AC0080004DE
:10B7F00040F001002246FBF7FFF8204606B010BDDE
:10B8000008D2020048D20200D0CD02002DE9F04F4C
:10B810000388103B8DB005460C4600F10806102B3E
:10B8200034D8DFE803F09F333333333333333333E8
:10B83000338A334E3333360094F82C6094F8232047
:10B840000A3504F1240900218DF80810002A00F0BF
:10B85000D980FFF7F9FE142207A800F0A7FD3346B0
:10B860004A4639462846FFF7F1FE062308908DF830
:10B870001C30E36B18B12BB107A89847E36B0BB1F1
:10B8800002A8984741460020FFF7DCFE0DB0BDE856
:10B89000F08F142207A8002100F088FDE26B002A37
:10B8A000F4D030687168357A08AB03C32E340521B3
:10B8B0001D700B9407A88DF81C1090470DB0BDE8C3
:10B8C000F08F02A81422002100F070FD94F82E30B1
:10B8D00004F12E071B07069704F1600856D50223D2
:10B8E00002A88DF808300396E36B98474146002084
:10B8F000FFF7A8FE94F82330002BC7D094F82C60F3
:10B90000FFF7A2FE1422002107A800F04FFD3346E6
:10B91000394605F10A0004F12402FFF797FE0623D9
:10B9200008908DF81C300028B0D0E36B002BADD010
:10B9300007A898470DB0BDE8F08F07A81422002192
:10B9400000F034FD2B7A012BA0D1E26B002A9DD0B0
:10B950002E3404210B948DF8203007A88DF81C108C
:10B96000904793E7142207A8002100F01FFDE36B26
:10B97000AA88ADF824202E34072208968DF81C20C2
:10B980000B94002B82D007A89847D3E794F8213076
:10B9900094F82220019243B90396002A7FF44CAF19
:10B9A0000322E36B8DF8082069E794F82030B5F89E
:10B9B00024A04BB3013BDBB204F1200909EB43198E
:10B9C000A34601E0D9451FD05A465146286AFEF7E2
:10B9D00027FC0BF1200B0028F4D09DF810300396C3
:10B9E00043F001038DF81030019B94F82C6094F81B
:10B9F00023200A3504F12409002B7FF424AF8DF8AD
:10BA000008301AB9E36B3AE70396C9E7FFF71CFE63
:10BA1000019920E7A1DF7047A3DF704762DF70471D
:10BA20000B78002B40F0B8802DE9F0470446888859
:10BA300041F22352904284B002D004B0BDE8F087B6
:10BA40008879227B9042F8D14A88087AADF806209E
:10BA500001228DF80420002800F0AC80CD89BDF8CB
:10BA60000CC0BDF80A70BDF8086041F2245E75454F
:10BA700000F0B48041F2255E754540F0D080012889
:10BA8000B1F816C000F0E6801D4613460A8C41F25C
:10BA9000245E724500F0A88041F2255E724540F0B8
:10BAA000A6800228B1F828C018BF012300F0CE807C
:10BAB0004A8E41F2245E72456FD041F2255E724596
:10BAC0006ED10328B1F83AC018BF012300F0BE8040
:10BAD000B1F8442041F2245E724500F08D8041F2BD
